{
  "contractName": "UniversityDegree",
  "abi": [
    {
      "inputs": [],
      "stateMutability": "nonpayable",
      "type": "constructor"
    },
    {
      "anonymous": false,
      "inputs": [
        {
          "indexed": true,
          "internalType": "address",
          "name": "owner",
          "type": "address"
        },
        {
          "indexed": true,
          "internalType": "address",
          "name": "approved",
          "type": "address"
        },
        {
          "indexed": true,
          "internalType": "uint256",
          "name": "tokenId",
          "type": "uint256"
        }
      ],
      "name": "Approval",
      "type": "event"
    },
    {
      "anonymous": false,
      "inputs": [
        {
          "indexed": true,
          "internalType": "address",
          "name": "owner",
          "type": "address"
        },
        {
          "indexed": true,
          "internalType": "address",
          "name": "operator",
          "type": "address"
        },
        {
          "indexed": false,
          "internalType": "bool",
          "name": "approved",
          "type": "bool"
        }
      ],
      "name": "ApprovalForAll",
      "type": "event"
    },
    {
      "anonymous": false,
      "inputs": [
        {
          "indexed": true,
          "internalType": "address",
          "name": "from",
          "type": "address"
        },
        {
          "indexed": true,
          "internalType": "address",
          "name": "to",
          "type": "address"
        },
        {
          "indexed": true,
          "internalType": "uint256",
          "name": "tokenId",
          "type": "uint256"
        }
      ],
      "name": "Transfer",
      "type": "event"
    },
    {
      "inputs": [
        {
          "internalType": "address",
          "name": "to",
          "type": "address"
        },
        {
          "internalType": "uint256",
          "name": "tokenId",
          "type": "uint256"
        }
      ],
      "name": "approve",
      "outputs": [],
      "stateMutability": "nonpayable",
      "type": "function"
    },
    {
      "inputs": [
        {
          "internalType": "address",
          "name": "owner",
          "type": "address"
        }
      ],
      "name": "balanceOf",
      "outputs": [
        {
          "internalType": "uint256",
          "name": "",
          "type": "uint256"
        }
      ],
      "stateMutability": "view",
      "type": "function",
      "constant": true
    },
    {
      "inputs": [
        {
          "internalType": "uint256",
          "name": "tokenId",
          "type": "uint256"
        }
      ],
      "name": "getApproved",
      "outputs": [
        {
          "internalType": "address",
          "name": "",
          "type": "address"
        }
      ],
      "stateMutability": "view",
      "type": "function",
      "constant": true
    },
    {
      "inputs": [
        {
          "internalType": "address",
          "name": "owner",
          "type": "address"
        },
        {
          "internalType": "address",
          "name": "operator",
          "type": "address"
        }
      ],
      "name": "isApprovedForAll",
      "outputs": [
        {
          "internalType": "bool",
          "name": "",
          "type": "bool"
        }
      ],
      "stateMutability": "view",
      "type": "function",
      "constant": true
    },
    {
      "inputs": [
        {
          "internalType": "address",
          "name": "",
          "type": "address"
        }
      ],
      "name": "issuedDegrees",
      "outputs": [
        {
          "internalType": "bool",
          "name": "",
          "type": "bool"
        }
      ],
      "stateMutability": "view",
      "type": "function",
      "constant": true
    },
    {
      "inputs": [],
      "name": "name",
      "outputs": [
        {
          "internalType": "string",
          "name": "",
          "type": "string"
        }
      ],
      "stateMutability": "view",
      "type": "function",
      "constant": true
    },
    {
      "inputs": [
        {
          "internalType": "uint256",
          "name": "tokenId",
          "type": "uint256"
        }
      ],
      "name": "ownerOf",
      "outputs": [
        {
          "internalType": "address",
          "name": "",
          "type": "address"
        }
      ],
      "stateMutability": "view",
      "type": "function",
      "constant": true
    },
    {
      "inputs": [
        {
          "internalType": "address",
          "name": "",
          "type": "address"
        }
      ],
      "name": "personToDegree",
      "outputs": [
        {
          "internalType": "string",
          "name": "",
          "type": "string"
        }
      ],
      "stateMutability": "view",
      "type": "function",
      "constant": true
    },
    {
      "inputs": [
        {
          "internalType": "address",
          "name": "from",
          "type": "address"
        },
        {
          "internalType": "address",
          "name": "to",
          "type": "address"
        },
        {
          "internalType": "uint256",
          "name": "tokenId",
          "type": "uint256"
        }
      ],
      "name": "safeTransferFrom",
      "outputs": [],
      "stateMutability": "nonpayable",
      "type": "function"
    },
    {
      "inputs": [
        {
          "internalType": "address",
          "name": "from",
          "type": "address"
        },
        {
          "internalType": "address",
          "name": "to",
          "type": "address"
        },
        {
          "internalType": "uint256",
          "name": "tokenId",
          "type": "uint256"
        },
        {
          "internalType": "bytes",
          "name": "_data",
          "type": "bytes"
        }
      ],
      "name": "safeTransferFrom",
      "outputs": [],
      "stateMutability": "nonpayable",
      "type": "function"
    },
    {
      "inputs": [
        {
          "internalType": "address",
          "name": "operator",
          "type": "address"
        },
        {
          "internalType": "bool",
          "name": "approved",
          "type": "bool"
        }
      ],
      "name": "setApprovalForAll",
      "outputs": [],
      "stateMutability": "nonpayable",
      "type": "function"
    },
    {
      "inputs": [
        {
          "internalType": "bytes4",
          "name": "interfaceId",
          "type": "bytes4"
        }
      ],
      "name": "supportsInterface",
      "outputs": [
        {
          "internalType": "bool",
          "name": "",
          "type": "bool"
        }
      ],
      "stateMutability": "view",
      "type": "function",
      "constant": true
    },
    {
      "inputs": [],
      "name": "symbol",
      "outputs": [
        {
          "internalType": "string",
          "name": "",
          "type": "string"
        }
      ],
      "stateMutability": "view",
      "type": "function",
      "constant": true
    },
    {
      "inputs": [
        {
          "internalType": "uint256",
          "name": "tokenId",
          "type": "uint256"
        }
      ],
      "name": "tokenURI",
      "outputs": [
        {
          "internalType": "string",
          "name": "",
          "type": "string"
        }
      ],
      "stateMutability": "view",
      "type": "function",
      "constant": true
    },
    {
      "inputs": [
        {
          "internalType": "address",
          "name": "from",
          "type": "address"
        },
        {
          "internalType": "address",
          "name": "to",
          "type": "address"
        },
        {
          "internalType": "uint256",
          "name": "tokenId",
          "type": "uint256"
        }
      ],
      "name": "transferFrom",
      "outputs": [],
      "stateMutability": "nonpayable",
      "type": "function"
    },
    {
      "inputs": [
        {
          "internalType": "address",
          "name": "to",
          "type": "address"
        }
      ],
      "name": "issueDegree",
      "outputs": [],
      "stateMutability": "nonpayable",
      "type": "function"
    },
    {
      "inputs": [
        {
          "internalType": "string",
          "name": "tokenURI",
          "type": "string"
        }
      ],
      "name": "claimDegree",
      "outputs": [
        {
          "internalType": "uint256",
          "name": "",
          "type": "uint256"
        }
      ],
      "stateMutability": "nonpayable",
      "type": "function"
    }
  ],
  "bytecode": "0x60806040523480156200001157600080fd5b506040518060400160405280601081526020017f556e6976657273697479446567726565000000000000000000000000000000008152506040518060400160405280600681526020017f4465677265650000000000000000000000000000000000000000000000000000815250816000908051906020019062000096929190620000f9565b508060019080519060200190620000af929190620000f9565b50505033600760006101000a81548173ffffffffffffffffffffffffffffffffffffffff021916908373ffffffffffffffffffffffffffffffffffffffff1602179055506200020e565b8280546200010790620001a9565b90600052602060002090601f0160209004810192826200012b576000855562000177565b82601f106200014657805160ff191683800117855562000177565b8280016001018555821562000177579182015b828111156200017657825182559160200191906001019062000159565b5b5090506200018691906200018a565b5090565b5b80821115620001a55760008160009055506001016200018b565b5090565b60006002820490506001821680620001c257607f821691505b60208210811415620001d957620001d8620001df565b5b50919050565b7f4e487b7100000000000000000000000000000000000000000000000000000000600052602260045260246000fd5b612f3c806200021e6000396000f3fe608060405234801561001057600080fd5b506004361061010b5760003560e01c806349d89ea4116100a2578063a22cb46511610071578063a22cb465146102dc578063b88d4fde146102f8578063c87b56dd14610314578063e985e9c514610344578063f5caa763146103745761010b565b806349d89ea4146102425780636352211e1461025e57806370a082311461028e57806395d89b41146102be5761010b565b806323b872dd116100de57806323b872dd146101aa5780632db2f478146101c657806337f902f0146101f657806342842e0e146102265761010b565b806301ffc9a71461011057806306fdde0314610140578063081812fc1461015e578063095ea7b31461018e575b600080fd5b61012a60048036038101906101259190611f3c565b6103a4565b60405161013791906123a6565b60405180910390f35b610148610486565b60405161015591906123c1565b60405180910390f35b61017860048036038101906101739190611fcf565b610518565b604051610185919061233f565b60405180910390f35b6101a860048036038101906101a39190611f00565b61059d565b005b6101c460048036038101906101bf9190611dfa565b6106b5565b005b6101e060048036038101906101db9190611f8e565b610715565b6040516101ed9190612603565b60405180910390f35b610210600480360381019061020b9190611d95565b610884565b60405161021d91906123c1565b60405180910390f35b610240600480360381019061023b9190611dfa565b610924565b005b61025c60048036038101906102579190611d95565b610944565b005b61027860048036038101906102739190611fcf565b6109f9565b604051610285919061233f565b60405180910390f35b6102a860048036038101906102a39190611d95565b610aab565b6040516102b59190612603565b60405180910390f35b6102c6610b63565b6040516102d391906123c1565b60405180910390f35b6102f660048036038101906102f19190611ec4565b610bf5565b005b610312600480360381019061030d9190611e49565b610c0b565b005b61032e60048036038101906103299190611fcf565b610c6d565b60405161033b91906123c1565b60405180910390f35b61035e60048036038101906103599190611dbe565b610dbf565b60405161036b91906123a6565b60405180910390f35b61038e60048036038101906103899190611d95565b610e53565b60405161039b91906123a6565b60405180910390f35b60007f80ac58cd000000000000000000000000000000000000000000000000000000007bffffffffffffffffffffffffffffffffffffffffffffffffffffffff1916827bffffffffffffffffffffffffffffffffffffffffffffffffffffffff1916148061046f57507f5b5e139f000000000000000000000000000000000000000000000000000000007bffffffffffffffffffffffffffffffffffffffffffffffffffffffff1916827bffffffffffffffffffffffffffffffffffffffffffffffffffffffff1916145b8061047f575061047e82610e73565b5b9050919050565b60606000805461049590612859565b80601f01602080910402602001604051908101604052809291908181526020018280546104c190612859565b801561050e5780601f106104e35761010080835404028352916020019161050e565b820191906000526020600020905b8154815290600101906020018083116104f157829003601f168201915b5050505050905090565b600061052382610edd565b610562576040517f08c379a000000000000000000000000000000000000000000000000000000000815260040161055990612563565b60405180910390fd5b6004600083815260200190815260200160002060009054906101000a900473ffffffffffffffffffffffffffffffffffffffff169050919050565b60006105a8826109f9565b90508073ffffffffffffffffffffffffffffffffffffffff168373ffffffffffffffffffffffffffffffffffffffff161415610619576040517f08c379a0000000000000000000000000000000000000000000000000000000008152600401610610906125a3565b60405180910390fd5b8073ffffffffffffffffffffffffffffffffffffffff16610638610f49565b73ffffffffffffffffffffffffffffffffffffffff161480610667575061066681610661610f49565b610dbf565b5b6106a6576040517f08c379a000000000000000000000000000000000000000000000000000000000815260040161069d906124a3565b60405180910390fd5b6106b08383610f51565b505050565b6106c66106c0610f49565b8261100a565b610705576040517f08c379a00000000000000000000000000000000000000000000000000000000081526004016106fc906125c3565b60405180910390fd5b6107108383836110e8565b505050565b6000600960003373ffffffffffffffffffffffffffffffffffffffff1673ffffffffffffffffffffffffffffffffffffffff16815260200190815260200160002060009054906101000a900460ff166107a3576040517f08c379a000000000000000000000000000000000000000000000000000000000815260040161079a906125e3565b60405180910390fd5b6107ad600861134f565b60006107b96008611365565b90506107c53382611373565b6107cf818461154d565b82600a60003373ffffffffffffffffffffffffffffffffffffffff1673ffffffffffffffffffffffffffffffffffffffff1681526020019081526020016000209080519060200190610822929190611bb9565b506000600960003373ffffffffffffffffffffffffffffffffffffffff1673ffffffffffffffffffffffffffffffffffffffff16815260200190815260200160002060006101000a81548160ff02191690831515021790555080915050919050565b600a60205280600052604060002060009150905080546108a390612859565b80601f01602080910402602001604051908101604052809291908181526020018280546108cf90612859565b801561091c5780601f106108f15761010080835404028352916020019161091c565b820191906000526020600020905b8154815290600101906020018083116108ff57829003601f168201915b505050505081565b61093f83838360405180602001604052806000815250610c0b565b505050565b600760009054906101000a900473ffffffffffffffffffffffffffffffffffffffff1673ffffffffffffffffffffffffffffffffffffffff163373ffffffffffffffffffffffffffffffffffffffff161461099e57600080fd5b6001600960008373ffffffffffffffffffffffffffffffffffffffff1673ffffffffffffffffffffffffffffffffffffffff16815260200190815260200160002060006101000a81548160ff02191690831515021790555050565b6000806002600084815260200190815260200160002060009054906101000a900473ffffffffffffffffffffffffffffffffffffffff169050600073ffffffffffffffffffffffffffffffffffffffff168173ffffffffffffffffffffffffffffffffffffffff161415610aa2576040517f08c379a0000000000000000000000000000000000000000000000000000000008152600401610a99906124e3565b60405180910390fd5b80915050919050565b60008073ffffffffffffffffffffffffffffffffffffffff168273ffffffffffffffffffffffffffffffffffffffff161415610b1c576040517f08c379a0000000000000000000000000000000000000000000000000000000008152600401610b13906124c3565b60405180910390fd5b600360008373ffffffffffffffffffffffffffffffffffffffff1673ffffffffffffffffffffffffffffffffffffffff168152602001908152602001600020549050919050565b606060018054610b7290612859565b80601f0160208091040260200160405190810160405280929190818152602001828054610b9e90612859565b8015610beb5780601f10610bc057610100808354040283529160200191610beb565b820191906000526020600020905b815481529060010190602001808311610bce57829003601f168201915b5050505050905090565b610c07610c00610f49565b83836115c1565b5050565b610c1c610c16610f49565b8361100a565b610c5b576040517f08c379a0000000000000000000000000000000000000000000000000000000008152600401610c52906125c3565b60405180910390fd5b610c678484848461172e565b50505050565b6060610c7882610edd565b610cb7576040517f08c379a0000000000000000000000000000000000000000000000000000000008152600401610cae90612543565b60405180910390fd5b6000600660008481526020019081526020016000208054610cd790612859565b80601f0160208091040260200160405190810160405280929190818152602001828054610d0390612859565b8015610d505780601f10610d2557610100808354040283529160200191610d50565b820191906000526020600020905b815481529060010190602001808311610d3357829003601f168201915b505050505090506000610d6161178a565b9050600081511415610d77578192505050610dba565b600082511115610dac578082604051602001610d9492919061231b565b60405160208183030381529060405292505050610dba565b610db5846117a1565b925050505b919050565b6000600560008473ffffffffffffffffffffffffffffffffffffffff1673ffffffffffffffffffffffffffffffffffffffff16815260200190815260200160002060008373ffffffffffffffffffffffffffffffffffffffff1673ffffffffffffffffffffffffffffffffffffffff16815260200190815260200160002060009054906101000a900460ff16905092915050565b60096020528060005260406000206000915054906101000a900460ff1681565b60007f01ffc9a7000000000000000000000000000000000000000000000000000000007bffffffffffffffffffffffffffffffffffffffffffffffffffffffff1916827bffffffffffffffffffffffffffffffffffffffffffffffffffffffff1916149050919050565b60008073ffffffffffffffffffffffffffffffffffffffff166002600084815260200190815260200160002060009054906101000a900473ffffffffffffffffffffffffffffffffffffffff1673ffffffffffffffffffffffffffffffffffffffff1614159050919050565b600033905090565b816004600083815260200190815260200160002060006101000a81548173ffffffffffffffffffffffffffffffffffffffff021916908373ffffffffffffffffffffffffffffffffffffffff160217905550808273ffffffffffffffffffffffffffffffffffffffff16610fc4836109f9565b73ffffffffffffffffffffffffffffffffffffffff167f8c5be1e5ebec7d5bd14f71427d1e84f3dd0314c0f7b2291e5b200ac8c7c3b92560405160405180910390a45050565b600061101582610edd565b611054576040517f08c379a000000000000000000000000000000000000000000000000000000000815260040161104b90612483565b60405180910390fd5b600061105f836109f9565b90508073ffffffffffffffffffffffffffffffffffffffff168473ffffffffffffffffffffffffffffffffffffffff1614806110a157506110a08185610dbf565b5b806110df57508373ffffffffffffffffffffffffffffffffffffffff166110c784610518565b73ffffffffffffffffffffffffffffffffffffffff16145b91505092915050565b8273ffffffffffffffffffffffffffffffffffffffff16611108826109f9565b73ffffffffffffffffffffffffffffffffffffffff161461115e576040517f08c379a000000000000000000000000000000000000000000000000000000000815260040161115590612403565b60405180910390fd5b600073ffffffffffffffffffffffffffffffffffffffff168273ffffffffffffffffffffffffffffffffffffffff1614156111ce576040517f08c379a00000000000000000000000000000000000000000000000000000000081526004016111c590612443565b60405180910390fd5b6111d9838383611848565b6111e4600082610f51565b6001600360008573ffffffffffffffffffffffffffffffffffffffff1673ffffffffffffffffffffffffffffffffffffffff1681526020019081526020016000206000828254611234919061276f565b925050819055506001600360008473ffffffffffffffffffffffffffffffffffffffff1673ffffffffffffffffffffffffffffffffffffffff168152602001908152602001600020600082825461128b91906126e8565b92505081905550816002600083815260200190815260200160002060006101000a81548173ffffffffffffffffffffffffffffffffffffffff021916908373ffffffffffffffffffffffffffffffffffffffff160217905550808273ffffffffffffffffffffffffffffffffffffffff168473ffffffffffffffffffffffffffffffffffffffff167fddf252ad1be2c89b69c2b068fc378daa952ba7f163c4a11628f55a4df523b3ef60405160405180910390a461134a83838361184d565b505050565b6001816000016000828254019250508190555050565b600081600001549050919050565b600073ffffffffffffffffffffffffffffffffffffffff168273ffffffffffffffffffffffffffffffffffffffff1614156113e3576040517f08c379a00000000000000000000000000000000000000000000000000000000081526004016113da90612523565b60405180910390fd5b6113ec81610edd565b1561142c576040517f08c379a000000000000000000000000000000000000000000000000000000000815260040161142390612423565b60405180910390fd5b61143860008383611848565b6001600360008473ffffffffffffffffffffffffffffffffffffffff1673ffffffffffffffffffffffffffffffffffffffff168152602001908152602001600020600082825461148891906126e8565b92505081905550816002600083815260200190815260200160002060006101000a81548173ffffffffffffffffffffffffffffffffffffffff021916908373ffffffffffffffffffffffffffffffffffffffff160217905550808273ffffffffffffffffffffffffffffffffffffffff16600073ffffffffffffffffffffffffffffffffffffffff167fddf252ad1be2c89b69c2b068fc378daa952ba7f163c4a11628f55a4df523b3ef60405160405180910390a46115496000838361184d565b5050565b61155682610edd565b611595576040517f08c379a000000000000000000000000000000000000000000000000000000000815260040161158c90612503565b60405180910390fd5b806006600084815260200190815260200160002090805190602001906115bc929190611bb9565b505050565b8173ffffffffffffffffffffffffffffffffffffffff168373ffffffffffffffffffffffffffffffffffffffff161415611630576040517f08c379a000000000000000000000000000000000000000000000000000000000815260040161162790612463565b60405180910390fd5b80600560008573ffffffffffffffffffffffffffffffffffffffff1673ffffffffffffffffffffffffffffffffffffffff16815260200190815260200160002060008473ffffffffffffffffffffffffffffffffffffffff1673ffffffffffffffffffffffffffffffffffffffff16815260200190815260200160002060006101000a81548160ff0219169083151502179055508173ffffffffffffffffffffffffffffffffffffffff168373ffffffffffffffffffffffffffffffffffffffff167f17307eab39ab6107e8899845ad3d59bd9653f200f220920489ca2b5937696c318360405161172191906123a6565b60405180910390a3505050565b6117398484846110e8565b61174584848484611852565b611784576040517f08c379a000000000000000000000000000000000000000000000000000000000815260040161177b906123e3565b60405180910390fd5b50505050565b606060405180602001604052806000815250905090565b60606117ac82610edd565b6117eb576040517f08c379a00000000000000000000000000000000000000000000000000000000081526004016117e290612583565b60405180910390fd5b60006117f561178a565b905060008151116118155760405180602001604052806000815250611840565b8061181f846119e9565b60405160200161183092919061231b565b6040516020818303038152906040525b915050919050565b505050565b505050565b60006118738473ffffffffffffffffffffffffffffffffffffffff16611b96565b156119dc578373ffffffffffffffffffffffffffffffffffffffff1663150b7a0261189c610f49565b8786866040518563ffffffff1660e01b81526004016118be949392919061235a565b602060405180830381600087803b1580156118d857600080fd5b505af192505050801561190957506040513d601f19601f820116820180604052508101906119069190611f65565b60015b61198c573d8060008114611939576040519150601f19603f3d011682016040523d82523d6000602084013e61193e565b606091505b50600081511415611984576040517f08c379a000000000000000000000000000000000000000000000000000000000815260040161197b906123e3565b60405180910390fd5b805181602001fd5b63150b7a0260e01b7bffffffffffffffffffffffffffffffffffffffffffffffffffffffff1916817bffffffffffffffffffffffffffffffffffffffffffffffffffffffff1916149150506119e1565b600190505b949350505050565b60606000821415611a31576040518060400160405280600181526020017f30000000000000000000000000000000000000000000000000000000000000008152509050611b91565b600082905060005b60008214611a63578080611a4c906128bc565b915050600a82611a5c919061273e565b9150611a39565b60008167ffffffffffffffff811115611aa5577f4e487b7100000000000000000000000000000000000000000000000000000000600052604160045260246000fd5b6040519080825280601f01601f191660200182016040528015611ad75781602001600182028036833780820191505090505b5090505b60008514611b8a57600182611af0919061276f565b9150600a85611aff9190612905565b6030611b0b91906126e8565b60f81b818381518110611b47577f4e487b7100000000000000000000000000000000000000000000000000000000600052603260045260246000fd5b60200101907effffffffffffffffffffffffffffffffffffffffffffffffffffffffffffff1916908160001a905350600a85611b83919061273e565b9450611adb565b8093505050505b919050565b6000808273ffffffffffffffffffffffffffffffffffffffff163b119050919050565b828054611bc590612859565b90600052602060002090601f016020900481019282611be75760008555611c2e565b82601f10611c0057805160ff1916838001178555611c2e565b82800160010185558215611c2e579182015b82811115611c2d578251825591602001919060010190611c12565b5b509050611c3b9190611c3f565b5090565b5b80821115611c58576000816000905550600101611c40565b5090565b6000611c6f611c6a84612643565b61261e565b905082815260208101848484011115611c8757600080fd5b611c92848285612817565b509392505050565b6000611cad611ca884612674565b61261e565b905082815260208101848484011115611cc557600080fd5b611cd0848285612817565b509392505050565b600081359050611ce781612eaa565b92915050565b600081359050611cfc81612ec1565b92915050565b600081359050611d1181612ed8565b92915050565b600081519050611d2681612ed8565b92915050565b600082601f830112611d3d57600080fd5b8135611d4d848260208601611c5c565b91505092915050565b600082601f830112611d6757600080fd5b8135611d77848260208601611c9a565b91505092915050565b600081359050611d8f81612eef565b92915050565b600060208284031215611da757600080fd5b6000611db584828501611cd8565b91505092915050565b60008060408385031215611dd157600080fd5b6000611ddf85828601611cd8565b9250506020611df085828601611cd8565b9150509250929050565b600080600060608486031215611e0f57600080fd5b6000611e1d86828701611cd8565b9350506020611e2e86828701611cd8565b9250506040611e3f86828701611d80565b9150509250925092565b60008060008060808587031215611e5f57600080fd5b6000611e6d87828801611cd8565b9450506020611e7e87828801611cd8565b9350506040611e8f87828801611d80565b925050606085013567ffffffffffffffff811115611eac57600080fd5b611eb887828801611d2c565b91505092959194509250565b60008060408385031215611ed757600080fd5b6000611ee585828601611cd8565b9250506020611ef685828601611ced565b9150509250929050565b60008060408385031215611f1357600080fd5b6000611f2185828601611cd8565b9250506020611f3285828601611d80565b9150509250929050565b600060208284031215611f4e57600080fd5b6000611f5c84828501611d02565b91505092915050565b600060208284031215611f7757600080fd5b6000611f8584828501611d17565b91505092915050565b600060208284031215611fa057600080fd5b600082013567ffffffffffffffff811115611fba57600080fd5b611fc684828501611d56565b91505092915050565b600060208284031215611fe157600080fd5b6000611fef84828501611d80565b91505092915050565b612001816127a3565b82525050565b612010816127b5565b82525050565b6000612021826126a5565b61202b81856126bb565b935061203b818560208601612826565b612044816129f2565b840191505092915050565b600061205a826126b0565b61206481856126cc565b9350612074818560208601612826565b61207d816129f2565b840191505092915050565b6000612093826126b0565b61209d81856126dd565b93506120ad818560208601612826565b80840191505092915050565b60006120c66032836126cc565b91506120d182612a03565b604082019050919050565b60006120e96025836126cc565b91506120f482612a52565b604082019050919050565b600061210c601c836126cc565b915061211782612aa1565b602082019050919050565b600061212f6024836126cc565b915061213a82612aca565b604082019050919050565b60006121526019836126cc565b915061215d82612b19565b602082019050919050565b6000612175602c836126cc565b915061218082612b42565b604082019050919050565b60006121986038836126cc565b91506121a382612b91565b604082019050919050565b60006121bb602a836126cc565b91506121c682612be0565b604082019050919050565b60006121de6029836126cc565b91506121e982612c2f565b604082019050919050565b6000612201602e836126cc565b915061220c82612c7e565b604082019050919050565b60006122246020836126cc565b915061222f82612ccd565b602082019050919050565b60006122476031836126cc565b915061225282612cf6565b604082019050919050565b600061226a602c836126cc565b915061227582612d45565b604082019050919050565b600061228d602f836126cc565b915061229882612d94565b604082019050919050565b60006122b06021836126cc565b91506122bb82612de3565b604082019050919050565b60006122d36031836126cc565b91506122de82612e32565b604082019050919050565b60006122f66014836126cc565b915061230182612e81565b602082019050919050565b6123158161280d565b82525050565b60006123278285612088565b91506123338284612088565b91508190509392505050565b60006020820190506123546000830184611ff8565b92915050565b600060808201905061236f6000830187611ff8565b61237c6020830186611ff8565b612389604083018561230c565b818103606083015261239b8184612016565b905095945050505050565b60006020820190506123bb6000830184612007565b92915050565b600060208201905081810360008301526123db818461204f565b905092915050565b600060208201905081810360008301526123fc816120b9565b9050919050565b6000602082019050818103600083015261241c816120dc565b9050919050565b6000602082019050818103600083015261243c816120ff565b9050919050565b6000602082019050818103600083015261245c81612122565b9050919050565b6000602082019050818103600083015261247c81612145565b9050919050565b6000602082019050818103600083015261249c81612168565b9050919050565b600060208201905081810360008301526124bc8161218b565b9050919050565b600060208201905081810360008301526124dc816121ae565b9050919050565b600060208201905081810360008301526124fc816121d1565b9050919050565b6000602082019050818103600083015261251c816121f4565b9050919050565b6000602082019050818103600083015261253c81612217565b9050919050565b6000602082019050818103600083015261255c8161223a565b9050919050565b6000602082019050818103600083015261257c8161225d565b9050919050565b6000602082019050818103600083015261259c81612280565b9050919050565b600060208201905081810360008301526125bc816122a3565b9050919050565b600060208201905081810360008301526125dc816122c6565b9050919050565b600060208201905081810360008301526125fc816122e9565b9050919050565b6000602082019050612618600083018461230c565b92915050565b6000612628612639565b9050612634828261288b565b919050565b6000604051905090565b600067ffffffffffffffff82111561265e5761265d6129c3565b5b612667826129f2565b9050602081019050919050565b600067ffffffffffffffff82111561268f5761268e6129c3565b5b612698826129f2565b9050602081019050919050565b600081519050919050565b600081519050919050565b600082825260208201905092915050565b600082825260208201905092915050565b600081905092915050565b60006126f38261280d565b91506126fe8361280d565b9250827fffffffffffffffffffffffffffffffffffffffffffffffffffffffffffffffff0382111561273357612732612936565b5b828201905092915050565b60006127498261280d565b91506127548361280d565b92508261276457612763612965565b5b828204905092915050565b600061277a8261280d565b91506127858361280d565b92508282101561279857612797612936565b5b828203905092915050565b60006127ae826127ed565b9050919050565b60008115159050919050565b60007fffffffff0000000000000000000000000000000000000000000000000000000082169050919050565b600073ffffffffffffffffffffffffffffffffffffffff82169050919050565b6000819050919050565b82818337600083830152505050565b60005b83811015612844578082015181840152602081019050612829565b83811115612853576000848401525b50505050565b6000600282049050600182168061287157607f821691505b6020821081141561288557612884612994565b5b50919050565b612894826129f2565b810181811067ffffffffffffffff821117156128b3576128b26129c3565b5b80604052505050565b60006128c78261280d565b91507fffffffffffffffffffffffffffffffffffffffffffffffffffffffffffffffff8214156128fa576128f9612936565b5b600182019050919050565b60006129108261280d565b915061291b8361280d565b92508261292b5761292a612965565b5b828206905092915050565b7f4e487b7100000000000000000000000000000000000000000000000000000000600052601160045260246000fd5b7f4e487b7100000000000000000000000000000000000000000000000000000000600052601260045260246000fd5b7f4e487b7100000000000000000000000000000000000000000000000000000000600052602260045260246000fd5b7f4e487b7100000000000000000000000000000000000000000000000000000000600052604160045260246000fd5b6000601f19601f8301169050919050565b7f4552433732313a207472616e7366657220746f206e6f6e20455243373231526560008201527f63656976657220696d706c656d656e7465720000000000000000000000000000602082015250565b7f4552433732313a207472616e736665722066726f6d20696e636f72726563742060008201527f6f776e6572000000000000000000000000000000000000000000000000000000602082015250565b7f4552433732313a20746f6b656e20616c7265616479206d696e74656400000000600082015250565b7f4552433732313a207472616e7366657220746f20746865207a65726f2061646460008201527f7265737300000000000000000000000000000000000000000000000000000000602082015250565b7f4552433732313a20617070726f766520746f2063616c6c657200000000000000600082015250565b7f4552433732313a206f70657261746f7220717565727920666f72206e6f6e657860008201527f697374656e7420746f6b656e0000000000000000000000000000000000000000602082015250565b7f4552433732313a20617070726f76652063616c6c6572206973206e6f74206f7760008201527f6e6572206e6f7220617070726f76656420666f7220616c6c0000000000000000602082015250565b7f4552433732313a2062616c616e636520717565727920666f7220746865207a6560008201527f726f206164647265737300000000000000000000000000000000000000000000602082015250565b7f4552433732313a206f776e657220717565727920666f72206e6f6e657869737460008201527f656e7420746f6b656e0000000000000000000000000000000000000000000000602082015250565b7f45524337323155524953746f726167653a2055524920736574206f66206e6f6e60008201527f6578697374656e7420746f6b656e000000000000000000000000000000000000602082015250565b7f4552433732313a206d696e7420746f20746865207a65726f2061646472657373600082015250565b7f45524337323155524953746f726167653a2055524920717565727920666f722060008201527f6e6f6e6578697374656e7420746f6b656e000000000000000000000000000000602082015250565b7f4552433732313a20617070726f76656420717565727920666f72206e6f6e657860008201527f697374656e7420746f6b656e0000000000000000000000000000000000000000602082015250565b7f4552433732314d657461646174613a2055524920717565727920666f72206e6f60008201527f6e6578697374656e7420746f6b656e0000000000000000000000000000000000602082015250565b7f4552433732313a20617070726f76616c20746f2063757272656e74206f776e6560008201527f7200000000000000000000000000000000000000000000000000000000000000602082015250565b7f4552433732313a207472616e736665722063616c6c6572206973206e6f74206f60008201527f776e6572206e6f7220617070726f766564000000000000000000000000000000602082015250565b7f446567726565206973206e6f7420697373756564000000000000000000000000600082015250565b612eb3816127a3565b8114612ebe57600080fd5b50565b612eca816127b5565b8114612ed557600080fd5b50565b612ee1816127c1565b8114612eec57600080fd5b50565b612ef88161280d565b8114612f0357600080fd5b5056fea264697066735822122067b3991587c5ef10d2eca4a1fb2aee7455cb9108022e12c4ebce2454ff80912f64736f6c63430008020033",
  "immutableReferences": {},
  "source": "// SPDX-License-Identifier: MIT\n\npragma solidity ^0.8.2;\n\nimport \"@openzeppelin/contracts/token/ERC721/extensions/ERC721URIStorage.sol\";\nimport \"@openzeppelin/contracts/utils/Counters.sol\";\n\n\n\ncontract UniversityDegree is ERC721URIStorage {\n\n\taddress owner;\n\n\tusing Counters for Counters.Counter;\n\tCounters.Counter private _tokenIds;\n\n\tconstructor() ERC721(\"UniversityDegree\", \"Degree\"){\n\t\towner = msg.sender;\n\t}\n\n\tmapping (address => bool) public issuedDegrees;\n\n\tmodifier onlyOwner() {\n\t\trequire(msg.sender == owner);\n\t\t_;\n\t}\n\n\tfunction issueDegree(address to) external onlyOwner() {\n\t\tissuedDegrees[to] = true;\n\t}\n\n\tfunction claimDegree(string memory tokenURI) public returns(uint256) {\n\t\trequire(issuedDegrees[msg.sender], \"Degree is not issued\");\n\n\t\t_tokenIds.increment();\n\t\tuint256 newItemId = _tokenIds.current();\n\t\t_mint(msg.sender, newItemId);\n\t\t_setTokenURI(newItemId, tokenURI);\n\n\t\tpersonToDegree[msg.sender] = tokenURI;\n\t\tissuedDegrees[msg.sender] = false;\n\n\t\treturn newItemId;\n\t}\n\n\tmapping(address => string) public personToDegree;\n\n}\n",
  "sourcePath": "/Users/joethompson/Documents/Soulbounder/Contracts/contracts/UniversityDegree.sol",
  "compiler": {
    "name": "solc",
    "version": "0.8.2+commit.661d1103.Emscripten.clang"
  },
  "schemaVersion": "3.4.7",
  "updatedAt": "2022-06-12T21:04:40.446Z",
  "networkType": "ethereum",
  "devdoc": {
    "kind": "dev",
    "methods": {
      "approve(address,uint256)": {
        "details": "See {IERC721-approve}."
      },
      "balanceOf(address)": {
        "details": "See {IERC721-balanceOf}."
      },
      "getApproved(uint256)": {
        "details": "See {IERC721-getApproved}."
      },
      "isApprovedForAll(address,address)": {
        "details": "See {IERC721-isApprovedForAll}."
      },
      "name()": {
        "details": "See {IERC721Metadata-name}."
      },
      "ownerOf(uint256)": {
        "details": "See {IERC721-ownerOf}."
      },
      "safeTransferFrom(address,address,uint256)": {
        "details": "See {IERC721-safeTransferFrom}."
      },
      "safeTransferFrom(address,address,uint256,bytes)": {
        "details": "See {IERC721-safeTransferFrom}."
      },
      "setApprovalForAll(address,bool)": {
        "details": "See {IERC721-setApprovalForAll}."
      },
      "supportsInterface(bytes4)": {
        "details": "See {IERC165-supportsInterface}."
      },
      "symbol()": {
        "details": "See {IERC721Metadata-symbol}."
      },
      "tokenURI(uint256)": {
        "details": "See {IERC721Metadata-tokenURI}."
      },
      "transferFrom(address,address,uint256)": {
        "details": "See {IERC721-transferFrom}."
      }
    },
    "version": 1
  },
  "userdoc": {
    "kind": "user",
    "methods": {},
    "version": 1
  }
}