{
  "contractName": "Soulbounder",
  "abi": [
    {
      "inputs": [],
      "stateMutability": "nonpayable",
      "type": "constructor"
    },
    {
      "anonymous": false,
      "inputs": [
        {
          "indexed": true,
          "internalType": "address",
          "name": "owner",
          "type": "address"
        },
        {
          "indexed": true,
          "internalType": "address",
          "name": "approved",
          "type": "address"
        },
        {
          "indexed": true,
          "internalType": "uint256",
          "name": "tokenId",
          "type": "uint256"
        }
      ],
      "name": "Approval",
      "type": "event"
    },
    {
      "anonymous": false,
      "inputs": [
        {
          "indexed": true,
          "internalType": "address",
          "name": "owner",
          "type": "address"
        },
        {
          "indexed": true,
          "internalType": "address",
          "name": "operator",
          "type": "address"
        },
        {
          "indexed": false,
          "internalType": "bool",
          "name": "approved",
          "type": "bool"
        }
      ],
      "name": "ApprovalForAll",
      "type": "event"
    },
    {
      "anonymous": false,
      "inputs": [
        {
          "indexed": true,
          "internalType": "address",
          "name": "to",
          "type": "address"
        },
        {
          "indexed": true,
          "internalType": "uint256",
          "name": "tokenId",
          "type": "uint256"
        }
      ],
      "name": "Attest",
      "type": "event"
    },
    {
      "anonymous": false,
      "inputs": [
        {
          "indexed": true,
          "internalType": "address",
          "name": "previousOwner",
          "type": "address"
        },
        {
          "indexed": true,
          "internalType": "address",
          "name": "newOwner",
          "type": "address"
        }
      ],
      "name": "OwnershipTransferred",
      "type": "event"
    },
    {
      "anonymous": false,
      "inputs": [
        {
          "indexed": true,
          "internalType": "address",
          "name": "to",
          "type": "address"
        },
        {
          "indexed": true,
          "internalType": "uint256",
          "name": "tokenId",
          "type": "uint256"
        }
      ],
      "name": "Revoke",
      "type": "event"
    },
    {
      "anonymous": false,
      "inputs": [
        {
          "indexed": true,
          "internalType": "address",
          "name": "from",
          "type": "address"
        },
        {
          "indexed": true,
          "internalType": "address",
          "name": "to",
          "type": "address"
        },
        {
          "indexed": true,
          "internalType": "uint256",
          "name": "tokenId",
          "type": "uint256"
        }
      ],
      "name": "Transfer",
      "type": "event"
    },
    {
      "inputs": [
        {
          "internalType": "address",
          "name": "to",
          "type": "address"
        },
        {
          "internalType": "uint256",
          "name": "tokenId",
          "type": "uint256"
        }
      ],
      "name": "approve",
      "outputs": [],
      "stateMutability": "nonpayable",
      "type": "function"
    },
    {
      "inputs": [
        {
          "internalType": "address",
          "name": "owner",
          "type": "address"
        }
      ],
      "name": "balanceOf",
      "outputs": [
        {
          "internalType": "uint256",
          "name": "",
          "type": "uint256"
        }
      ],
      "stateMutability": "view",
      "type": "function",
      "constant": true
    },
    {
      "inputs": [
        {
          "internalType": "uint256",
          "name": "tokenId",
          "type": "uint256"
        }
      ],
      "name": "getApproved",
      "outputs": [
        {
          "internalType": "address",
          "name": "",
          "type": "address"
        }
      ],
      "stateMutability": "view",
      "type": "function",
      "constant": true
    },
    {
      "inputs": [
        {
          "internalType": "address",
          "name": "owner",
          "type": "address"
        },
        {
          "internalType": "address",
          "name": "operator",
          "type": "address"
        }
      ],
      "name": "isApprovedForAll",
      "outputs": [
        {
          "internalType": "bool",
          "name": "",
          "type": "bool"
        }
      ],
      "stateMutability": "view",
      "type": "function",
      "constant": true
    },
    {
      "inputs": [],
      "name": "name",
      "outputs": [
        {
          "internalType": "string",
          "name": "",
          "type": "string"
        }
      ],
      "stateMutability": "view",
      "type": "function",
      "constant": true
    },
    {
      "inputs": [],
      "name": "owner",
      "outputs": [
        {
          "internalType": "address",
          "name": "",
          "type": "address"
        }
      ],
      "stateMutability": "view",
      "type": "function",
      "constant": true
    },
    {
      "inputs": [
        {
          "internalType": "uint256",
          "name": "tokenId",
          "type": "uint256"
        }
      ],
      "name": "ownerOf",
      "outputs": [
        {
          "internalType": "address",
          "name": "",
          "type": "address"
        }
      ],
      "stateMutability": "view",
      "type": "function",
      "constant": true
    },
    {
      "inputs": [],
      "name": "renounceOwnership",
      "outputs": [],
      "stateMutability": "nonpayable",
      "type": "function"
    },
    {
      "inputs": [
        {
          "internalType": "address",
          "name": "from",
          "type": "address"
        },
        {
          "internalType": "address",
          "name": "to",
          "type": "address"
        },
        {
          "internalType": "uint256",
          "name": "tokenId",
          "type": "uint256"
        }
      ],
      "name": "safeTransferFrom",
      "outputs": [],
      "stateMutability": "nonpayable",
      "type": "function"
    },
    {
      "inputs": [
        {
          "internalType": "address",
          "name": "from",
          "type": "address"
        },
        {
          "internalType": "address",
          "name": "to",
          "type": "address"
        },
        {
          "internalType": "uint256",
          "name": "tokenId",
          "type": "uint256"
        },
        {
          "internalType": "bytes",
          "name": "data",
          "type": "bytes"
        }
      ],
      "name": "safeTransferFrom",
      "outputs": [],
      "stateMutability": "nonpayable",
      "type": "function"
    },
    {
      "inputs": [
        {
          "internalType": "address",
          "name": "operator",
          "type": "address"
        },
        {
          "internalType": "bool",
          "name": "approved",
          "type": "bool"
        }
      ],
      "name": "setApprovalForAll",
      "outputs": [],
      "stateMutability": "nonpayable",
      "type": "function"
    },
    {
      "inputs": [],
      "name": "symbol",
      "outputs": [
        {
          "internalType": "string",
          "name": "",
          "type": "string"
        }
      ],
      "stateMutability": "view",
      "type": "function",
      "constant": true
    },
    {
      "inputs": [
        {
          "internalType": "uint256",
          "name": "index",
          "type": "uint256"
        }
      ],
      "name": "tokenByIndex",
      "outputs": [
        {
          "internalType": "uint256",
          "name": "",
          "type": "uint256"
        }
      ],
      "stateMutability": "view",
      "type": "function",
      "constant": true
    },
    {
      "inputs": [
        {
          "internalType": "address",
          "name": "owner",
          "type": "address"
        },
        {
          "internalType": "uint256",
          "name": "index",
          "type": "uint256"
        }
      ],
      "name": "tokenOfOwnerByIndex",
      "outputs": [
        {
          "internalType": "uint256",
          "name": "",
          "type": "uint256"
        }
      ],
      "stateMutability": "view",
      "type": "function",
      "constant": true
    },
    {
      "inputs": [],
      "name": "totalSupply",
      "outputs": [
        {
          "internalType": "uint256",
          "name": "",
          "type": "uint256"
        }
      ],
      "stateMutability": "view",
      "type": "function",
      "constant": true
    },
    {
      "inputs": [
        {
          "internalType": "address",
          "name": "from",
          "type": "address"
        },
        {
          "internalType": "address",
          "name": "to",
          "type": "address"
        },
        {
          "internalType": "uint256",
          "name": "tokenId",
          "type": "uint256"
        }
      ],
      "name": "transferFrom",
      "outputs": [],
      "stateMutability": "nonpayable",
      "type": "function"
    },
    {
      "inputs": [
        {
          "internalType": "address",
          "name": "newOwner",
          "type": "address"
        }
      ],
      "name": "transferOwnership",
      "outputs": [],
      "stateMutability": "nonpayable",
      "type": "function"
    },
    {
      "inputs": [
        {
          "internalType": "address",
          "name": "to",
          "type": "address"
        },
        {
          "internalType": "string",
          "name": "uri",
          "type": "string"
        },
        {
          "internalType": "uint256",
          "name": "tokenType",
          "type": "uint256"
        }
      ],
      "name": "safeMint",
      "outputs": [],
      "stateMutability": "nonpayable",
      "type": "function"
    },
    {
      "inputs": [
        {
          "internalType": "uint256",
          "name": "tokenId",
          "type": "uint256"
        }
      ],
      "name": "burn",
      "outputs": [],
      "stateMutability": "nonpayable",
      "type": "function"
    },
    {
      "inputs": [
        {
          "internalType": "uint256",
          "name": "tokenId",
          "type": "uint256"
        }
      ],
      "name": "revoke",
      "outputs": [],
      "stateMutability": "nonpayable",
      "type": "function"
    },
    {
      "inputs": [
        {
          "internalType": "uint256",
          "name": "tokenId",
          "type": "uint256"
        }
      ],
      "name": "tokenURI",
      "outputs": [
        {
          "internalType": "string",
          "name": "",
          "type": "string"
        }
      ],
      "stateMutability": "view",
      "type": "function",
      "constant": true
    },
    {
      "inputs": [
        {
          "internalType": "uint256",
          "name": "tokenId",
          "type": "uint256"
        }
      ],
      "name": "getTokenType",
      "outputs": [
        {
          "internalType": "uint256",
          "name": "",
          "type": "uint256"
        }
      ],
      "stateMutability": "view",
      "type": "function",
      "constant": true
    },
    {
      "inputs": [
        {
          "internalType": "bytes4",
          "name": "interfaceId",
          "type": "bytes4"
        }
      ],
      "name": "supportsInterface",
      "outputs": [
        {
          "internalType": "bool",
          "name": "",
          "type": "bool"
        }
      ],
      "stateMutability": "view",
      "type": "function",
      "constant": true
    }
  ],
  "bytecode": "0x60806040523480156200001157600080fd5b506040518060400160405280600b81526020017f536f756c626f756e6465720000000000000000000000000000000000000000008152506040518060400160405280600381526020017f5342540000000000000000000000000000000000000000000000000000000000815250816000908051906020019062000096929190620001a6565b508060019080519060200190620000af929190620001a6565b505050620000d2620000c6620000d860201b60201c565b620000e060201b60201c565b620002bb565b600033905090565b6000600b60009054906101000a900473ffffffffffffffffffffffffffffffffffffffff16905081600b60006101000a81548173ffffffffffffffffffffffffffffffffffffffff021916908373ffffffffffffffffffffffffffffffffffffffff1602179055508173ffffffffffffffffffffffffffffffffffffffff168173ffffffffffffffffffffffffffffffffffffffff167f8be0079c531659141344cd1fd0a4f28419497f9722a3daafe3b4186f6b6457e060405160405180910390a35050565b828054620001b49062000285565b90600052602060002090601f016020900481019282620001d8576000855562000224565b82601f10620001f357805160ff191683800117855562000224565b8280016001018555821562000224579182015b828111156200022357825182559160200191906001019062000206565b5b50905062000233919062000237565b5090565b5b808211156200025257600081600090555060010162000238565b5090565b7f4e487b7100000000000000000000000000000000000000000000000000000000600052602260045260246000fd5b600060028204905060018216806200029e57607f821691505b60208210811415620002b557620002b462000256565b5b50919050565b613ece80620002cb6000396000f3fe608060405234801561001057600080fd5b506004361061014d5760003560e01c80636352211e116100c3578063a22cb4651161007c578063a22cb465146103b0578063b88d4fde146103cc578063c772745a146103e8578063c87b56dd14610404578063e985e9c514610434578063f2fde38b146104645761014d565b80636352211e146102da57806370a082311461030a578063715018a61461033a57806376aed2e1146103445780638da5cb5b1461037457806395d89b41146103925761014d565b806320c5429b1161011557806320c5429b1461020a57806323b872dd146102265780632f745c591461024257806342842e0e1461027257806342966c681461028e5780634f6ccce7146102aa5761014d565b806301ffc9a71461015257806306fdde0314610182578063081812fc146101a0578063095ea7b3146101d057806318160ddd146101ec575b600080fd5b61016c60048036038101906101679190612ad3565b610480565b6040516101799190612b1b565b60405180910390f35b61018a610492565b6040516101979190612bcf565b60405180910390f35b6101ba60048036038101906101b59190612c27565b610524565b6040516101c79190612c95565b60405180910390f35b6101ea60048036038101906101e59190612cdc565b61056a565b005b6101f4610682565b6040516102019190612d2b565b60405180910390f35b610224600480360381019061021f9190612c27565b61068f565b005b610240600480360381019061023b9190612d46565b61072d565b005b61025c60048036038101906102579190612cdc565b61078d565b6040516102699190612d2b565b60405180910390f35b61028c60048036038101906102879190612d46565b610832565b005b6102a860048036038101906102a39190612c27565b610852565b005b6102c460048036038101906102bf9190612c27565b610966565b6040516102d19190612d2b565b60405180910390f35b6102f460048036038101906102ef9190612c27565b6109d7565b6040516103019190612c95565b60405180910390f35b610324600480360381019061031f9190612d99565b610a5e565b6040516103319190612d2b565b60405180910390f35b610342610b16565b005b61035e60048036038101906103599190612c27565b610b2a565b60405161036b9190612d2b565b60405180910390f35b61037c610b47565b6040516103899190612c95565b60405180910390f35b61039a610b71565b6040516103a79190612bcf565b60405180910390f35b6103ca60048036038101906103c59190612df2565b610c03565b005b6103e660048036038101906103e19190612f67565b610c19565b005b61040260048036038101906103fd919061308b565b610c7b565b005b61041e60048036038101906104199190612c27565b610df8565b60405161042b9190612bcf565b60405180910390f35b61044e600480360381019061044991906130fa565b610e0a565b60405161045b9190612b1b565b60405180910390f35b61047e60048036038101906104799190612d99565b610e9e565b005b600061048b82610f22565b9050919050565b6060600080546104a190613169565b80601f01602080910402602001604051908101604052809291908181526020018280546104cd90613169565b801561051a5780601f106104ef5761010080835404028352916020019161051a565b820191906000526020600020905b8154815290600101906020018083116104fd57829003601f168201915b5050505050905090565b600061052f82610f9c565b6004600083815260200190815260200160002060009054906101000a900473ffffffffffffffffffffffffffffffffffffffff169050919050565b6000610575826109d7565b90508073ffffffffffffffffffffffffffffffffffffffff168373ffffffffffffffffffffffffffffffffffffffff1614156105e6576040517f08c379a00000000000000000000000000000000000000000000000000000000081526004016105dd9061320d565b60405180910390fd5b8073ffffffffffffffffffffffffffffffffffffffff16610605610fe7565b73ffffffffffffffffffffffffffffffffffffffff16148061063457506106338161062e610fe7565b610e0a565b5b610673576040517f08c379a000000000000000000000000000000000000000000000000000000000815260040161066a9061329f565b60405180910390fd5b61067d8383610fef565b505050565b6000600880549050905090565b610698816110a8565b6000600e6000838152602001908152602001600020549050600e6000838152602001908152602001600020600090556001811415610729576000600d60003373ffffffffffffffffffffffffffffffffffffffff1673ffffffffffffffffffffffffffffffffffffffff16815260200190815260200160002060006101000a81548160ff0219169083151502179055505b5050565b61073e610738610fe7565b826110b4565b61077d576040517f08c379a000000000000000000000000000000000000000000000000000000000815260040161077490613331565b60405180910390fd5b610788838383611149565b505050565b600061079883610a5e565b82106107d9576040517f08c379a00000000000000000000000000000000000000000000000000000000081526004016107d0906133c3565b60405180910390fd5b600660008473ffffffffffffffffffffffffffffffffffffffff1673ffffffffffffffffffffffffffffffffffffffff168152602001908152602001600020600083815260200190815260200160002054905092915050565b61084d83838360405180602001604052806000815250610c19565b505050565b3373ffffffffffffffffffffffffffffffffffffffff16610872826109d7565b73ffffffffffffffffffffffffffffffffffffffff16146108c8576040517f08c379a00000000000000000000000000000000000000000000000000000000081526004016108bf9061342f565b60405180910390fd5b6108d1816110a8565b6000600e6000838152602001908152602001600020549050600e6000838152602001908152602001600020600090556001811415610962576000600d60003373ffffffffffffffffffffffffffffffffffffffff1673ffffffffffffffffffffffffffffffffffffffff16815260200190815260200160002060006101000a81548160ff0219169083151502179055505b5050565b6000610970610682565b82106109b1576040517f08c379a00000000000000000000000000000000000000000000000000000000081526004016109a8906134c1565b60405180910390fd5b600882815481106109c5576109c46134e1565b5b90600052602060002001549050919050565b6000806109e383611443565b9050600073ffffffffffffffffffffffffffffffffffffffff168173ffffffffffffffffffffffffffffffffffffffff161415610a55576040517f08c379a0000000000000000000000000000000000000000000000000000000008152600401610a4c9061355c565b60405180910390fd5b80915050919050565b60008073ffffffffffffffffffffffffffffffffffffffff168273ffffffffffffffffffffffffffffffffffffffff161415610acf576040517f08c379a0000000000000000000000000000000000000000000000000000000008152600401610ac6906135ee565b60405180910390fd5b600360008373ffffffffffffffffffffffffffffffffffffffff1673ffffffffffffffffffffffffffffffffffffffff168152602001908152602001600020549050919050565b610b1e611480565b610b2860006114fe565b565b6000600e6000838152602001908152602001600020549050919050565b6000600b60009054906101000a900473ffffffffffffffffffffffffffffffffffffffff16905090565b606060018054610b8090613169565b80601f0160208091040260200160405190810160405280929190818152602001828054610bac90613169565b8015610bf95780601f10610bce57610100808354040283529160200191610bf9565b820191906000526020600020905b815481529060010190602001808311610bdc57829003601f168201915b5050505050905090565b610c15610c0e610fe7565b83836115c4565b5050565b610c2a610c24610fe7565b836110b4565b610c69576040517f08c379a0000000000000000000000000000000000000000000000000000000008152600401610c6090613331565b60405180910390fd5b610c7584848484611731565b50505050565b6000811415610cbf576040517f08c379a0000000000000000000000000000000000000000000000000000000008152600401610cb69061365a565b60405180910390fd5b6001811415610dae57600d60008473ffffffffffffffffffffffffffffffffffffffff1673ffffffffffffffffffffffffffffffffffffffff16815260200190815260200160002060009054906101000a900460ff1615610d55576040517f08c379a0000000000000000000000000000000000000000000000000000000008152600401610d4c906136ec565b60405180910390fd5b6001600d60008573ffffffffffffffffffffffffffffffffffffffff1673ffffffffffffffffffffffffffffffffffffffff16815260200190815260200160002060006101000a81548160ff0219169083151502179055505b6000610dba600c61178d565b9050610dc6600c61179b565b610dd084826117b1565b610dda81846117cf565b81600e60008381526020019081526020016000208190555050505050565b6060610e0382611843565b9050919050565b6000600560008473ffffffffffffffffffffffffffffffffffffffff1673ffffffffffffffffffffffffffffffffffffffff16815260200190815260200160002060008373ffffffffffffffffffffffffffffffffffffffff1673ffffffffffffffffffffffffffffffffffffffff16815260200190815260200160002060009054906101000a900460ff16905092915050565b610ea6611480565b600073ffffffffffffffffffffffffffffffffffffffff168173ffffffffffffffffffffffffffffffffffffffff161415610f16576040517f08c379a0000000000000000000000000000000000000000000000000000000008152600401610f0d9061377e565b60405180910390fd5b610f1f816114fe565b50565b60007f780e9d63000000000000000000000000000000000000000000000000000000007bffffffffffffffffffffffffffffffffffffffffffffffffffffffff1916827bffffffffffffffffffffffffffffffffffffffffffffffffffffffff19161480610f955750610f9482611956565b5b9050919050565b610fa581611a38565b610fe4576040517f08c379a0000000000000000000000000000000000000000000000000000000008152600401610fdb9061355c565b60405180910390fd5b50565b600033905090565b816004600083815260200190815260200160002060006101000a81548173ffffffffffffffffffffffffffffffffffffffff021916908373ffffffffffffffffffffffffffffffffffffffff160217905550808273ffffffffffffffffffffffffffffffffffffffff16611062836109d7565b73ffffffffffffffffffffffffffffffffffffffff167f8c5be1e5ebec7d5bd14f71427d1e84f3dd0314c0f7b2291e5b200ac8c7c3b92560405160405180910390a45050565b6110b181611a79565b50565b6000806110c0836109d7565b90508073ffffffffffffffffffffffffffffffffffffffff168473ffffffffffffffffffffffffffffffffffffffff16148061110257506111018185610e0a565b5b8061114057508373ffffffffffffffffffffffffffffffffffffffff1661112884610524565b73ffffffffffffffffffffffffffffffffffffffff16145b91505092915050565b8273ffffffffffffffffffffffffffffffffffffffff16611169826109d7565b73ffffffffffffffffffffffffffffffffffffffff16146111bf576040517f08c379a00000000000000000000000000000000000000000000000000000000081526004016111b690613810565b60405180910390fd5b600073ffffffffffffffffffffffffffffffffffffffff168273ffffffffffffffffffffffffffffffffffffffff16141561122f576040517f08c379a0000000000000000000000000000000000000000000000000000000008152600401611226906138a2565b60405180910390fd5b61123c8383836001611acc565b8273ffffffffffffffffffffffffffffffffffffffff1661125c826109d7565b73ffffffffffffffffffffffffffffffffffffffff16146112b2576040517f08c379a00000000000000000000000000000000000000000000000000000000081526004016112a990613810565b60405180910390fd5b6004600082815260200190815260200160002060006101000a81549073ffffffffffffffffffffffffffffffffffffffff02191690556001600360008573ffffffffffffffffffffffffffffffffffffffff1673ffffffffffffffffffffffffffffffffffffffff168152602001908152602001600020600082825403925050819055506001600360008473ffffffffffffffffffffffffffffffffffffffff1673ffffffffffffffffffffffffffffffffffffffff16815260200190815260200160002060008282540192505081905550816002600083815260200190815260200160002060006101000a81548173ffffffffffffffffffffffffffffffffffffffff021916908373ffffffffffffffffffffffffffffffffffffffff160217905550808273ffffffffffffffffffffffffffffffffffffffff168473ffffffffffffffffffffffffffffffffffffffff167fddf252ad1be2c89b69c2b068fc378daa952ba7f163c4a11628f55a4df523b3ef60405160405180910390a461143e8383836001611b84565b505050565b60006002600083815260200190815260200160002060009054906101000a900473ffffffffffffffffffffffffffffffffffffffff169050919050565b611488610fe7565b73ffffffffffffffffffffffffffffffffffffffff166114a6610b47565b73ffffffffffffffffffffffffffffffffffffffff16146114fc576040517f08c379a00000000000000000000000000000000000000000000000000000000081526004016114f39061390e565b60405180910390fd5b565b6000600b60009054906101000a900473ffffffffffffffffffffffffffffffffffffffff16905081600b60006101000a81548173ffffffffffffffffffffffffffffffffffffffff021916908373ffffffffffffffffffffffffffffffffffffffff1602179055508173ffffffffffffffffffffffffffffffffffffffff168173ffffffffffffffffffffffffffffffffffffffff167f8be0079c531659141344cd1fd0a4f28419497f9722a3daafe3b4186f6b6457e060405160405180910390a35050565b8173ffffffffffffffffffffffffffffffffffffffff168373ffffffffffffffffffffffffffffffffffffffff161415611633576040517f08c379a000000000000000000000000000000000000000000000000000000000815260040161162a9061397a565b60405180910390fd5b80600560008573ffffffffffffffffffffffffffffffffffffffff1673ffffffffffffffffffffffffffffffffffffffff16815260200190815260200160002060008473ffffffffffffffffffffffffffffffffffffffff1673ffffffffffffffffffffffffffffffffffffffff16815260200190815260200160002060006101000a81548160ff0219169083151502179055508173ffffffffffffffffffffffffffffffffffffffff168373ffffffffffffffffffffffffffffffffffffffff167f17307eab39ab6107e8899845ad3d59bd9653f200f220920489ca2b5937696c31836040516117249190612b1b565b60405180910390a3505050565b61173c848484611149565b61174884848484611c83565b611787576040517f08c379a000000000000000000000000000000000000000000000000000000000815260040161177e90613a0c565b60405180910390fd5b50505050565b600081600001549050919050565b6001816000016000828254019250508190555050565b6117cb828260405180602001604052806000815250611e1a565b5050565b6117d882611a38565b611817576040517f08c379a000000000000000000000000000000000000000000000000000000000815260040161180e90613a9e565b60405180910390fd5b80600a6000848152602001908152602001600020908051906020019061183e929190612984565b505050565b606061184e82610f9c565b6000600a6000848152602001908152602001600020805461186e90613169565b80601f016020809104026020016040519081016040528092919081815260200182805461189a90613169565b80156118e75780601f106118bc576101008083540402835291602001916118e7565b820191906000526020600020905b8154815290600101906020018083116118ca57829003601f168201915b5050505050905060006118f8611e75565b905060008151141561190e578192505050611951565b60008251111561194357808260405160200161192b929190613afa565b60405160208183030381529060405292505050611951565b61194c84611e8c565b925050505b919050565b60007f80ac58cd000000000000000000000000000000000000000000000000000000007bffffffffffffffffffffffffffffffffffffffffffffffffffffffff1916827bffffffffffffffffffffffffffffffffffffffffffffffffffffffff19161480611a2157507f5b5e139f000000000000000000000000000000000000000000000000000000007bffffffffffffffffffffffffffffffffffffffffffffffffffffffff1916827bffffffffffffffffffffffffffffffffffffffffffffffffffffffff1916145b80611a315750611a3082611ef4565b5b9050919050565b60008073ffffffffffffffffffffffffffffffffffffffff16611a5a83611443565b73ffffffffffffffffffffffffffffffffffffffff1614159050919050565b611a8281611f5e565b6000600a60008381526020019081526020016000208054611aa290613169565b905014611ac957600a60008281526020019081526020016000206000611ac89190612a0a565b5b50565b600073ffffffffffffffffffffffffffffffffffffffff168473ffffffffffffffffffffffffffffffffffffffff161480611b335750600073ffffffffffffffffffffffffffffffffffffffff168373ffffffffffffffffffffffffffffffffffffffff16145b611b72576040517f08c379a0000000000000000000000000000000000000000000000000000000008152600401611b6990613b6a565b60405180910390fd5b611b7e848484846120ac565b50505050565b600073ffffffffffffffffffffffffffffffffffffffff168473ffffffffffffffffffffffffffffffffffffffff161415611c0257818373ffffffffffffffffffffffffffffffffffffffff167fe9274a84b19e9428826de6bae8c48329354f8f0e73f771b97cae2d9dccd45a2760405160405180910390a3611c7d565b600073ffffffffffffffffffffffffffffffffffffffff168373ffffffffffffffffffffffffffffffffffffffff161415611c7c57818373ffffffffffffffffffffffffffffffffffffffff167fec9ab91322523c899ede7830ec9bfc992b5981cdcc27b91162fb23de5791117b60405160405180910390a35b5b50505050565b6000611ca48473ffffffffffffffffffffffffffffffffffffffff1661220c565b15611e0d578373ffffffffffffffffffffffffffffffffffffffff1663150b7a02611ccd610fe7565b8786866040518563ffffffff1660e01b8152600401611cef9493929190613bdf565b602060405180830381600087803b158015611d0957600080fd5b505af1925050508015611d3a57506040513d601f19601f82011682018060405250810190611d379190613c40565b60015b611dbd573d8060008114611d6a576040519150601f19603f3d011682016040523d82523d6000602084013e611d6f565b606091505b50600081511415611db5576040517f08c379a0000000000000000000000000000000000000000000000000000000008152600401611dac90613a0c565b60405180910390fd5b805181602001fd5b63150b7a0260e01b7bffffffffffffffffffffffffffffffffffffffffffffffffffffffff1916817bffffffffffffffffffffffffffffffffffffffffffffffffffffffff191614915050611e12565b600190505b949350505050565b611e24838361222f565b611e316000848484611c83565b611e70576040517f08c379a0000000000000000000000000000000000000000000000000000000008152600401611e6790613a0c565b60405180910390fd5b505050565b606060405180602001604052806000815250905090565b6060611e9782610f9c565b6000611ea1611e75565b90506000815111611ec15760405180602001604052806000815250611eec565b80611ecb8461244d565b604051602001611edc929190613afa565b6040516020818303038152906040525b915050919050565b60007f01ffc9a7000000000000000000000000000000000000000000000000000000007bffffffffffffffffffffffffffffffffffffffffffffffffffffffff1916827bffffffffffffffffffffffffffffffffffffffffffffffffffffffff1916149050919050565b6000611f69826109d7565b9050611f79816000846001611acc565b611f82826109d7565b90506004600083815260200190815260200160002060006101000a81549073ffffffffffffffffffffffffffffffffffffffff02191690556001600360008373ffffffffffffffffffffffffffffffffffffffff1673ffffffffffffffffffffffffffffffffffffffff168152602001908152602001600020600082825403925050819055506002600083815260200190815260200160002060006101000a81549073ffffffffffffffffffffffffffffffffffffffff021916905581600073ffffffffffffffffffffffffffffffffffffffff168273ffffffffffffffffffffffffffffffffffffffff167fddf252ad1be2c89b69c2b068fc378daa952ba7f163c4a11628f55a4df523b3ef60405160405180910390a46120a8816000846001611b84565b5050565b6120b884848484612525565b60018111156120fc576040517f08c379a00000000000000000000000000000000000000000000000000000000081526004016120f390613cdf565b60405180910390fd5b6000829050600073ffffffffffffffffffffffffffffffffffffffff168573ffffffffffffffffffffffffffffffffffffffff1614156121445761213f8161252b565b612183565b8373ffffffffffffffffffffffffffffffffffffffff168573ffffffffffffffffffffffffffffffffffffffff1614612182576121818582612574565b5b5b600073ffffffffffffffffffffffffffffffffffffffff168473ffffffffffffffffffffffffffffffffffffffff1614156121c6576121c1816126e1565b612205565b8473ffffffffffffffffffffffffffffffffffffffff168473ffffffffffffffffffffffffffffffffffffffff16146122045761220384826127b2565b5b5b5050505050565b6000808273ffffffffffffffffffffffffffffffffffffffff163b119050919050565b600073ffffffffffffffffffffffffffffffffffffffff168273ffffffffffffffffffffffffffffffffffffffff16141561229f576040517f08c379a000000000000000000000000000000000000000000000000000000000815260040161229690613d4b565b60405180910390fd5b6122a881611a38565b156122e8576040517f08c379a00000000000000000000000000000000000000000000000000000000081526004016122df90613db7565b60405180910390fd5b6122f6600083836001611acc565b6122ff81611a38565b1561233f576040517f08c379a000000000000000000000000000000000000000000000000000000000815260040161233690613db7565b60405180910390fd5b6001600360008473ffffffffffffffffffffffffffffffffffffffff1673ffffffffffffffffffffffffffffffffffffffff16815260200190815260200160002060008282540192505081905550816002600083815260200190815260200160002060006101000a81548173ffffffffffffffffffffffffffffffffffffffff021916908373ffffffffffffffffffffffffffffffffffffffff160217905550808273ffffffffffffffffffffffffffffffffffffffff16600073ffffffffffffffffffffffffffffffffffffffff167fddf252ad1be2c89b69c2b068fc378daa952ba7f163c4a11628f55a4df523b3ef60405160405180910390a4612449600083836001611b84565b5050565b60606000600161245c84612831565b01905060008167ffffffffffffffff81111561247b5761247a612e3c565b5b6040519080825280601f01601f1916602001820160405280156124ad5781602001600182028036833780820191505090505b509050600082602001820190505b60011561251a578080600190039150507f3031323334353637383961626364656600000000000000000000000000000000600a86061a8153600a858161250457612503613dd7565b5b04945060008514156125155761251a565b6124bb565b819350505050919050565b50505050565b6008805490506009600083815260200190815260200160002081905550600881908060018154018082558091505060019003906000526020600020016000909190919091505550565b6000600161258184610a5e565b61258b9190613e35565b9050600060076000848152602001908152602001600020549050818114612670576000600660008673ffffffffffffffffffffffffffffffffffffffff1673ffffffffffffffffffffffffffffffffffffffff168152602001908152602001600020600084815260200190815260200160002054905080600660008773ffffffffffffffffffffffffffffffffffffffff1673ffffffffffffffffffffffffffffffffffffffff168152602001908152602001600020600084815260200190815260200160002081905550816007600083815260200190815260200160002081905550505b6007600084815260200190815260200160002060009055600660008573ffffffffffffffffffffffffffffffffffffffff1673ffffffffffffffffffffffffffffffffffffffff16815260200190815260200160002060008381526020019081526020016000206000905550505050565b600060016008805490506126f59190613e35565b9050600060096000848152602001908152602001600020549050600060088381548110612725576127246134e1565b5b906000526020600020015490508060088381548110612747576127466134e1565b5b90600052602060002001819055508160096000838152602001908152602001600020819055506009600085815260200190815260200160002060009055600880548061279657612795613e69565b5b6001900381819060005260206000200160009055905550505050565b60006127bd83610a5e565b905081600660008573ffffffffffffffffffffffffffffffffffffffff1673ffffffffffffffffffffffffffffffffffffffff168152602001908152602001600020600083815260200190815260200160002081905550806007600084815260200190815260200160002081905550505050565b600080600090507a184f03e93ff9f4daa797ed6e38ed64bf6a1f010000000000000000831061288f577a184f03e93ff9f4daa797ed6e38ed64bf6a1f010000000000000000838161288557612884613dd7565b5b0492506040810190505b6d04ee2d6d415b85acef810000000083106128cc576d04ee2d6d415b85acef810000000083816128c2576128c1613dd7565b5b0492506020810190505b662386f26fc1000083106128fb57662386f26fc1000083816128f1576128f0613dd7565b5b0492506010810190505b6305f5e1008310612924576305f5e100838161291a57612919613dd7565b5b0492506008810190505b612710831061294957612710838161293f5761293e613dd7565b5b0492506004810190505b6064831061296c576064838161296257612961613dd7565b5b0492506002810190505b600a831061297b576001810190505b80915050919050565b82805461299090613169565b90600052602060002090601f0160209004810192826129b257600085556129f9565b82601f106129cb57805160ff19168380011785556129f9565b828001600101855582156129f9579182015b828111156129f85782518255916020019190600101906129dd565b5b509050612a069190612a4a565b5090565b508054612a1690613169565b6000825580601f10612a285750612a47565b601f016020900490600052602060002090810190612a469190612a4a565b5b50565b5b80821115612a63576000816000905550600101612a4b565b5090565b6000604051905090565b600080fd5b600080fd5b60007fffffffff0000000000000000000000000000000000000000000000000000000082169050919050565b612ab081612a7b565b8114612abb57600080fd5b50565b600081359050612acd81612aa7565b92915050565b600060208284031215612ae957612ae8612a71565b5b6000612af784828501612abe565b91505092915050565b60008115159050919050565b612b1581612b00565b82525050565b6000602082019050612b306000830184612b0c565b92915050565b600081519050919050565b600082825260208201905092915050565b60005b83811015612b70578082015181840152602081019050612b55565b83811115612b7f576000848401525b50505050565b6000601f19601f8301169050919050565b6000612ba182612b36565b612bab8185612b41565b9350612bbb818560208601612b52565b612bc481612b85565b840191505092915050565b60006020820190508181036000830152612be98184612b96565b905092915050565b6000819050919050565b612c0481612bf1565b8114612c0f57600080fd5b50565b600081359050612c2181612bfb565b92915050565b600060208284031215612c3d57612c3c612a71565b5b6000612c4b84828501612c12565b91505092915050565b600073ffffffffffffffffffffffffffffffffffffffff82169050919050565b6000612c7f82612c54565b9050919050565b612c8f81612c74565b82525050565b6000602082019050612caa6000830184612c86565b92915050565b612cb981612c74565b8114612cc457600080fd5b50565b600081359050612cd681612cb0565b92915050565b60008060408385031215612cf357612cf2612a71565b5b6000612d0185828601612cc7565b9250506020612d1285828601612c12565b9150509250929050565b612d2581612bf1565b82525050565b6000602082019050612d406000830184612d1c565b92915050565b600080600060608486031215612d5f57612d5e612a71565b5b6000612d6d86828701612cc7565b9350506020612d7e86828701612cc7565b9250506040612d8f86828701612c12565b9150509250925092565b600060208284031215612daf57612dae612a71565b5b6000612dbd84828501612cc7565b91505092915050565b612dcf81612b00565b8114612dda57600080fd5b50565b600081359050612dec81612dc6565b92915050565b60008060408385031215612e0957612e08612a71565b5b6000612e1785828601612cc7565b9250506020612e2885828601612ddd565b9150509250929050565b600080fd5b600080fd5b7f4e487b7100000000000000000000000000000000000000000000000000000000600052604160045260246000fd5b612e7482612b85565b810181811067ffffffffffffffff82111715612e9357612e92612e3c565b5b80604052505050565b6000612ea6612a67565b9050612eb28282612e6b565b919050565b600067ffffffffffffffff821115612ed257612ed1612e3c565b5b612edb82612b85565b9050602081019050919050565b82818337600083830152505050565b6000612f0a612f0584612eb7565b612e9c565b905082815260208101848484011115612f2657612f25612e37565b5b612f31848285612ee8565b509392505050565b600082601f830112612f4e57612f4d612e32565b5b8135612f5e848260208601612ef7565b91505092915050565b60008060008060808587031215612f8157612f80612a71565b5b6000612f8f87828801612cc7565b9450506020612fa087828801612cc7565b9350506040612fb187828801612c12565b925050606085013567ffffffffffffffff811115612fd257612fd1612a76565b5b612fde87828801612f39565b91505092959194509250565b600067ffffffffffffffff82111561300557613004612e3c565b5b61300e82612b85565b9050602081019050919050565b600061302e61302984612fea565b612e9c565b90508281526020810184848401111561304a57613049612e37565b5b613055848285612ee8565b509392505050565b600082601f83011261307257613071612e32565b5b813561308284826020860161301b565b91505092915050565b6000806000606084860312156130a4576130a3612a71565b5b60006130b286828701612cc7565b935050602084013567ffffffffffffffff8111156130d3576130d2612a76565b5b6130df8682870161305d565b92505060406130f086828701612c12565b9150509250925092565b6000806040838503121561311157613110612a71565b5b600061311f85828601612cc7565b925050602061313085828601612cc7565b9150509250929050565b7f4e487b7100000000000000000000000000000000000000000000000000000000600052602260045260246000fd5b6000600282049050600182168061318157607f821691505b602082108114156131955761319461313a565b5b50919050565b7f4552433732313a20617070726f76616c20746f2063757272656e74206f776e6560008201527f7200000000000000000000000000000000000000000000000000000000000000602082015250565b60006131f7602183612b41565b91506132028261319b565b604082019050919050565b60006020820190508181036000830152613226816131ea565b9050919050565b7f4552433732313a20617070726f76652063616c6c6572206973206e6f7420746f60008201527f6b656e206f776e6572206f7220617070726f76656420666f7220616c6c000000602082015250565b6000613289603d83612b41565b91506132948261322d565b604082019050919050565b600060208201905081810360008301526132b88161327c565b9050919050565b7f4552433732313a2063616c6c6572206973206e6f7420746f6b656e206f776e6560008201527f72206f7220617070726f76656400000000000000000000000000000000000000602082015250565b600061331b602d83612b41565b9150613326826132bf565b604082019050919050565b6000602082019050818103600083015261334a8161330e565b9050919050565b7f455243373231456e756d657261626c653a206f776e657220696e646578206f7560008201527f74206f6620626f756e6473000000000000000000000000000000000000000000602082015250565b60006133ad602b83612b41565b91506133b882613351565b604082019050919050565b600060208201905081810360008301526133dc816133a0565b9050919050565b7f4f6e6c7920746f6b656e206f776e65722063616e206275726e20697400000000600082015250565b6000613419601c83612b41565b9150613424826133e3565b602082019050919050565b600060208201905081810360008301526134488161340c565b9050919050565b7f455243373231456e756d657261626c653a20676c6f62616c20696e646578206f60008201527f7574206f6620626f756e64730000000000000000000000000000000000000000602082015250565b60006134ab602c83612b41565b91506134b68261344f565b604082019050919050565b600060208201905081810360008301526134da8161349e565b9050919050565b7f4e487b7100000000000000000000000000000000000000000000000000000000600052603260045260246000fd5b7f4552433732313a20696e76616c696420746f6b656e2049440000000000000000600082015250565b6000613546601883612b41565b915061355182613510565b602082019050919050565b6000602082019050818103600083015261357581613539565b9050919050565b7f4552433732313a2061646472657373207a65726f206973206e6f74206120766160008201527f6c6964206f776e65720000000000000000000000000000000000000000000000602082015250565b60006135d8602983612b41565b91506135e38261357c565b604082019050919050565b60006020820190508181036000830152613607816135cb565b9050919050565b7f496e76616c696420746f6b656e20747970650000000000000000000000000000600082015250565b6000613644601283612b41565b915061364f8261360e565b602082019050919050565b6000602082019050818103600083015261367381613637565b9050919050565b7f4f6e6c79206f6e652061757468656e7469636174696f6e20746f6b656e20636160008201527f6e206265206d696e746564207065722077616c6c657400000000000000000000602082015250565b60006136d6603683612b41565b91506136e18261367a565b604082019050919050565b60006020820190508181036000830152613705816136c9565b9050919050565b7f4f776e61626c653a206e6577206f776e657220697320746865207a65726f206160008201527f6464726573730000000000000000000000000000000000000000000000000000602082015250565b6000613768602683612b41565b91506137738261370c565b604082019050919050565b600060208201905081810360008301526137978161375b565b9050919050565b7f4552433732313a207472616e736665722066726f6d20696e636f72726563742060008201527f6f776e6572000000000000000000000000000000000000000000000000000000602082015250565b60006137fa602583612b41565b91506138058261379e565b604082019050919050565b60006020820190508181036000830152613829816137ed565b9050919050565b7f4552433732313a207472616e7366657220746f20746865207a65726f2061646460008201527f7265737300000000000000000000000000000000000000000000000000000000602082015250565b600061388c602483612b41565b915061389782613830565b604082019050919050565b600060208201905081810360008301526138bb8161387f565b9050919050565b7f4f776e61626c653a2063616c6c6572206973206e6f7420746865206f776e6572600082015250565b60006138f8602083612b41565b9150613903826138c2565b602082019050919050565b60006020820190508181036000830152613927816138eb565b9050919050565b7f4552433732313a20617070726f766520746f2063616c6c657200000000000000600082015250565b6000613964601983612b41565b915061396f8261392e565b602082019050919050565b6000602082019050818103600083015261399381613957565b9050919050565b7f4552433732313a207472616e7366657220746f206e6f6e20455243373231526560008201527f63656976657220696d706c656d656e7465720000000000000000000000000000602082015250565b60006139f6603283612b41565b9150613a018261399a565b604082019050919050565b60006020820190508181036000830152613a25816139e9565b9050919050565b7f45524337323155524953746f726167653a2055524920736574206f66206e6f6e60008201527f6578697374656e7420746f6b656e000000000000000000000000000000000000602082015250565b6000613a88602e83612b41565b9150613a9382613a2c565b604082019050919050565b60006020820190508181036000830152613ab781613a7b565b9050919050565b600081905092915050565b6000613ad482612b36565b613ade8185613abe565b9350613aee818560208601612b52565b80840191505092915050565b6000613b068285613ac9565b9150613b128284613ac9565b91508190509392505050565b7f596f752063616e2774207472616e73666572207468697320746f6b656e000000600082015250565b6000613b54601d83612b41565b9150613b5f82613b1e565b602082019050919050565b60006020820190508181036000830152613b8381613b47565b9050919050565b600081519050919050565b600082825260208201905092915050565b6000613bb182613b8a565b613bbb8185613b95565b9350613bcb818560208601612b52565b613bd481612b85565b840191505092915050565b6000608082019050613bf46000830187612c86565b613c016020830186612c86565b613c0e6040830185612d1c565b8181036060830152613c208184613ba6565b905095945050505050565b600081519050613c3a81612aa7565b92915050565b600060208284031215613c5657613c55612a71565b5b6000613c6484828501613c2b565b91505092915050565b7f455243373231456e756d657261626c653a20636f6e736563757469766520747260008201527f616e7366657273206e6f7420737570706f727465640000000000000000000000602082015250565b6000613cc9603583612b41565b9150613cd482613c6d565b604082019050919050565b60006020820190508181036000830152613cf881613cbc565b9050919050565b7f4552433732313a206d696e7420746f20746865207a65726f2061646472657373600082015250565b6000613d35602083612b41565b9150613d4082613cff565b602082019050919050565b60006020820190508181036000830152613d6481613d28565b9050919050565b7f4552433732313a20746f6b656e20616c7265616479206d696e74656400000000600082015250565b6000613da1601c83612b41565b9150613dac82613d6b565b602082019050919050565b60006020820190508181036000830152613dd081613d94565b9050919050565b7f4e487b7100000000000000000000000000000000000000000000000000000000600052601260045260246000fd5b7f4e487b7100000000000000000000000000000000000000000000000000000000600052601160045260246000fd5b6000613e4082612bf1565b9150613e4b83612bf1565b925082821015613e5e57613e5d613e06565b5b828203905092915050565b7f4e487b7100000000000000000000000000000000000000000000000000000000600052603160045260246000fdfea2646970667358221220c127e6cbf99cc67351a348ecce7370319532ab3333f7aaa67a5d0dff6acfa14364736f6c63430008090033",
  "immutableReferences": {},
  "source": "// SPDX-License-Identifier: MIT\npragma solidity ^0.8.9;\n\nimport \"@openzeppelin/contracts/token/ERC721/ERC721.sol\";\nimport \"@openzeppelin/contracts/token/ERC721/extensions/ERC721Enumerable.sol\";\nimport \"@openzeppelin/contracts/token/ERC721/extensions/ERC721URIStorage.sol\";\nimport \"@openzeppelin/contracts/access/Ownable.sol\";\nimport \"@openzeppelin/contracts/utils/Counters.sol\";\n\ncontract Soulbounder is ERC721, ERC721Enumerable, ERC721URIStorage, Ownable {\n    using Counters for Counters.Counter;\n\n    Counters.Counter private _tokenIdCounter;\n    mapping(address => bool) private _walletHasAuthToken;\n    mapping(uint256 => uint256) private _tokenTypes;\n\n    event Attest(address indexed to, uint256 indexed tokenId);\n    event Revoke(address indexed to, uint256 indexed tokenId);\n\n\n    constructor() ERC721(\"Soulbounder\", \"SBT\") {}\n\n\n    function safeMint(address to, string memory uri, uint256 tokenType) public {\n        require(tokenType != 0, \"Invalid token type\");\n        \n        if (tokenType == 1) {\n            require(!_walletHasAuthToken[to], \"Only one authentication token can be minted per wallet\");\n            _walletHasAuthToken[to] = true;\n        }\n\n        uint256 tokenId = _tokenIdCounter.current();\n        _tokenIdCounter.increment();\n        _safeMint(to, tokenId);\n        _setTokenURI(tokenId, uri);\n        _tokenTypes[tokenId] = tokenType;\n    }\n\n    function burn(uint256 tokenId) external {\n        require(ownerOf(tokenId) == msg.sender, \"Only token owner can burn it\");\n        _burn(tokenId);\n\n\n        uint256 tokenType = _tokenTypes[tokenId];\n        delete _tokenTypes[tokenId];\n        if (tokenType == 1) {\n            _walletHasAuthToken[msg.sender] = false;\n        }\n    }\n\n\n    function revoke(uint256 tokenId) external {\n        _burn(tokenId);\n\n        uint256 tokenType = _tokenTypes[tokenId];\n        delete _tokenTypes[tokenId];\n        if (tokenType == 1) {\n            _walletHasAuthToken[msg.sender] = false;\n        }\n    }\n\n\n    function _beforeTokenTransfer(address from, address to, uint256 tokenId, uint256 batchSize)\n        internal\n        override(ERC721, ERC721Enumerable)\n        virtual\n    {\n        require(from == address(0) || to == address(0), \"You can't transfer this token\");\n        super._beforeTokenTransfer(from, to, tokenId, batchSize);\n    }\n\n\n    function _afterTokenTransfer(address from, address to, uint256 tokenId, uint256 batchSize) \n        internal \n        override \n        virtual \n    {\n        if (from == address(0)) {\n            emit Attest(to, tokenId);\n        } else if (to == address(0)) {\n            emit Revoke(to, tokenId);\n        }\n\n    }\n\n    function _burn(uint256 tokenId) internal override(ERC721, ERC721URIStorage) {\n\n        super._burn(tokenId);\n    }\n\n\n    function tokenURI(uint256 tokenId)\n        public\n        view\n        override(ERC721, ERC721URIStorage)\n        returns (string memory)\n    {\n        return super.tokenURI(tokenId);\n    }\n\n    function getTokenType(uint256 tokenId) public view returns (uint256) {\n        return _tokenTypes[tokenId];\n    }\n\n\n    function supportsInterface(bytes4 interfaceId)\n        public\n        view\n        override(ERC721, ERC721Enumerable)\n        returns (bool)\n    {\n        return super.supportsInterface(interfaceId);\n    }\n}\n",
  "sourcePath": "/Users/joethompson/Documents/Github Projects/Soulbounder/Truffle/contracts/Soulbounder.sol",
  "compiler": {
    "name": "solc",
    "version": "0.8.9+commit.e5eed63a.Emscripten.clang"
  },
  "schemaVersion": "3.4.14",
  "updatedAt": "2023-06-04T12:08:55.338Z",
  "networkType": "ethereum",
  "devdoc": {
    "kind": "dev",
    "methods": {
      "approve(address,uint256)": {
        "details": "See {IERC721-approve}."
      },
      "balanceOf(address)": {
        "details": "See {IERC721-balanceOf}."
      },
      "getApproved(uint256)": {
        "details": "See {IERC721-getApproved}."
      },
      "isApprovedForAll(address,address)": {
        "details": "See {IERC721-isApprovedForAll}."
      },
      "name()": {
        "details": "See {IERC721Metadata-name}."
      },
      "owner()": {
        "details": "Returns the address of the current owner."
      },
      "ownerOf(uint256)": {
        "details": "See {IERC721-ownerOf}."
      },
      "renounceOwnership()": {
        "details": "Leaves the contract without owner. It will not be possible to call `onlyOwner` functions anymore. Can only be called by the current owner. NOTE: Renouncing ownership will leave the contract without an owner, thereby removing any functionality that is only available to the owner."
      },
      "safeTransferFrom(address,address,uint256)": {
        "details": "See {IERC721-safeTransferFrom}."
      },
      "safeTransferFrom(address,address,uint256,bytes)": {
        "details": "See {IERC721-safeTransferFrom}."
      },
      "setApprovalForAll(address,bool)": {
        "details": "See {IERC721-setApprovalForAll}."
      },
      "symbol()": {
        "details": "See {IERC721Metadata-symbol}."
      },
      "tokenByIndex(uint256)": {
        "details": "See {IERC721Enumerable-tokenByIndex}."
      },
      "tokenOfOwnerByIndex(address,uint256)": {
        "details": "See {IERC721Enumerable-tokenOfOwnerByIndex}."
      },
      "totalSupply()": {
        "details": "See {IERC721Enumerable-totalSupply}."
      },
      "transferFrom(address,address,uint256)": {
        "details": "See {IERC721-transferFrom}."
      },
      "transferOwnership(address)": {
        "details": "Transfers ownership of the contract to a new account (`newOwner`). Can only be called by the current owner."
      }
    },
    "version": 1
  },
  "userdoc": {
    "kind": "user",
    "methods": {},
    "version": 1
  }
}