{
  "contractName": "Soulbounder",
  "abi": [
    {
      "inputs": [],
      "stateMutability": "nonpayable",
      "type": "constructor"
    },
    {
      "anonymous": false,
      "inputs": [
        {
          "indexed": true,
          "internalType": "address",
          "name": "owner",
          "type": "address"
        },
        {
          "indexed": true,
          "internalType": "address",
          "name": "approved",
          "type": "address"
        },
        {
          "indexed": true,
          "internalType": "uint256",
          "name": "tokenId",
          "type": "uint256"
        }
      ],
      "name": "Approval",
      "type": "event"
    },
    {
      "anonymous": false,
      "inputs": [
        {
          "indexed": true,
          "internalType": "address",
          "name": "owner",
          "type": "address"
        },
        {
          "indexed": true,
          "internalType": "address",
          "name": "operator",
          "type": "address"
        },
        {
          "indexed": false,
          "internalType": "bool",
          "name": "approved",
          "type": "bool"
        }
      ],
      "name": "ApprovalForAll",
      "type": "event"
    },
    {
      "anonymous": false,
      "inputs": [
        {
          "indexed": true,
          "internalType": "address",
          "name": "to",
          "type": "address"
        },
        {
          "indexed": true,
          "internalType": "uint256",
          "name": "tokenId",
          "type": "uint256"
        }
      ],
      "name": "Attest",
      "type": "event"
    },
    {
      "anonymous": false,
      "inputs": [
        {
          "indexed": true,
          "internalType": "address",
          "name": "previousOwner",
          "type": "address"
        },
        {
          "indexed": true,
          "internalType": "address",
          "name": "newOwner",
          "type": "address"
        }
      ],
      "name": "OwnershipTransferred",
      "type": "event"
    },
    {
      "anonymous": false,
      "inputs": [
        {
          "indexed": true,
          "internalType": "address",
          "name": "to",
          "type": "address"
        },
        {
          "indexed": true,
          "internalType": "uint256",
          "name": "tokenId",
          "type": "uint256"
        }
      ],
      "name": "Revoke",
      "type": "event"
    },
    {
      "anonymous": false,
      "inputs": [
        {
          "indexed": true,
          "internalType": "address",
          "name": "from",
          "type": "address"
        },
        {
          "indexed": true,
          "internalType": "address",
          "name": "to",
          "type": "address"
        },
        {
          "indexed": true,
          "internalType": "uint256",
          "name": "tokenId",
          "type": "uint256"
        }
      ],
      "name": "Transfer",
      "type": "event"
    },
    {
      "inputs": [
        {
          "internalType": "address",
          "name": "to",
          "type": "address"
        },
        {
          "internalType": "uint256",
          "name": "tokenId",
          "type": "uint256"
        }
      ],
      "name": "approve",
      "outputs": [],
      "stateMutability": "nonpayable",
      "type": "function"
    },
    {
      "inputs": [
        {
          "internalType": "address",
          "name": "owner",
          "type": "address"
        }
      ],
      "name": "balanceOf",
      "outputs": [
        {
          "internalType": "uint256",
          "name": "",
          "type": "uint256"
        }
      ],
      "stateMutability": "view",
      "type": "function",
      "constant": true
    },
    {
      "inputs": [
        {
          "internalType": "uint256",
          "name": "tokenId",
          "type": "uint256"
        }
      ],
      "name": "getApproved",
      "outputs": [
        {
          "internalType": "address",
          "name": "",
          "type": "address"
        }
      ],
      "stateMutability": "view",
      "type": "function",
      "constant": true
    },
    {
      "inputs": [
        {
          "internalType": "address",
          "name": "owner",
          "type": "address"
        },
        {
          "internalType": "address",
          "name": "operator",
          "type": "address"
        }
      ],
      "name": "isApprovedForAll",
      "outputs": [
        {
          "internalType": "bool",
          "name": "",
          "type": "bool"
        }
      ],
      "stateMutability": "view",
      "type": "function",
      "constant": true
    },
    {
      "inputs": [],
      "name": "name",
      "outputs": [
        {
          "internalType": "string",
          "name": "",
          "type": "string"
        }
      ],
      "stateMutability": "view",
      "type": "function",
      "constant": true
    },
    {
      "inputs": [],
      "name": "owner",
      "outputs": [
        {
          "internalType": "address",
          "name": "",
          "type": "address"
        }
      ],
      "stateMutability": "view",
      "type": "function",
      "constant": true
    },
    {
      "inputs": [
        {
          "internalType": "uint256",
          "name": "tokenId",
          "type": "uint256"
        }
      ],
      "name": "ownerOf",
      "outputs": [
        {
          "internalType": "address",
          "name": "",
          "type": "address"
        }
      ],
      "stateMutability": "view",
      "type": "function",
      "constant": true
    },
    {
      "inputs": [],
      "name": "renounceOwnership",
      "outputs": [],
      "stateMutability": "nonpayable",
      "type": "function"
    },
    {
      "inputs": [
        {
          "internalType": "address",
          "name": "from",
          "type": "address"
        },
        {
          "internalType": "address",
          "name": "to",
          "type": "address"
        },
        {
          "internalType": "uint256",
          "name": "tokenId",
          "type": "uint256"
        }
      ],
      "name": "safeTransferFrom",
      "outputs": [],
      "stateMutability": "nonpayable",
      "type": "function"
    },
    {
      "inputs": [
        {
          "internalType": "address",
          "name": "from",
          "type": "address"
        },
        {
          "internalType": "address",
          "name": "to",
          "type": "address"
        },
        {
          "internalType": "uint256",
          "name": "tokenId",
          "type": "uint256"
        },
        {
          "internalType": "bytes",
          "name": "data",
          "type": "bytes"
        }
      ],
      "name": "safeTransferFrom",
      "outputs": [],
      "stateMutability": "nonpayable",
      "type": "function"
    },
    {
      "inputs": [
        {
          "internalType": "address",
          "name": "operator",
          "type": "address"
        },
        {
          "internalType": "bool",
          "name": "approved",
          "type": "bool"
        }
      ],
      "name": "setApprovalForAll",
      "outputs": [],
      "stateMutability": "nonpayable",
      "type": "function"
    },
    {
      "inputs": [],
      "name": "symbol",
      "outputs": [
        {
          "internalType": "string",
          "name": "",
          "type": "string"
        }
      ],
      "stateMutability": "view",
      "type": "function",
      "constant": true
    },
    {
      "inputs": [
        {
          "internalType": "uint256",
          "name": "index",
          "type": "uint256"
        }
      ],
      "name": "tokenByIndex",
      "outputs": [
        {
          "internalType": "uint256",
          "name": "",
          "type": "uint256"
        }
      ],
      "stateMutability": "view",
      "type": "function",
      "constant": true
    },
    {
      "inputs": [
        {
          "internalType": "address",
          "name": "owner",
          "type": "address"
        },
        {
          "internalType": "uint256",
          "name": "index",
          "type": "uint256"
        }
      ],
      "name": "tokenOfOwnerByIndex",
      "outputs": [
        {
          "internalType": "uint256",
          "name": "",
          "type": "uint256"
        }
      ],
      "stateMutability": "view",
      "type": "function",
      "constant": true
    },
    {
      "inputs": [],
      "name": "totalSupply",
      "outputs": [
        {
          "internalType": "uint256",
          "name": "",
          "type": "uint256"
        }
      ],
      "stateMutability": "view",
      "type": "function",
      "constant": true
    },
    {
      "inputs": [
        {
          "internalType": "address",
          "name": "from",
          "type": "address"
        },
        {
          "internalType": "address",
          "name": "to",
          "type": "address"
        },
        {
          "internalType": "uint256",
          "name": "tokenId",
          "type": "uint256"
        }
      ],
      "name": "transferFrom",
      "outputs": [],
      "stateMutability": "nonpayable",
      "type": "function"
    },
    {
      "inputs": [
        {
          "internalType": "address",
          "name": "newOwner",
          "type": "address"
        }
      ],
      "name": "transferOwnership",
      "outputs": [],
      "stateMutability": "nonpayable",
      "type": "function"
    },
    {
      "inputs": [
        {
          "internalType": "address",
          "name": "to",
          "type": "address"
        },
        {
          "internalType": "string",
          "name": "uri",
          "type": "string"
        },
        {
          "internalType": "uint256",
          "name": "tokenType",
          "type": "uint256"
        }
      ],
      "name": "safeMint",
      "outputs": [],
      "stateMutability": "nonpayable",
      "type": "function"
    },
    {
      "inputs": [
        {
          "internalType": "uint256",
          "name": "tokenId",
          "type": "uint256"
        },
        {
          "internalType": "string",
          "name": "newUri",
          "type": "string"
        }
      ],
      "name": "editTokenMetadata",
      "outputs": [],
      "stateMutability": "nonpayable",
      "type": "function"
    },
    {
      "inputs": [
        {
          "internalType": "uint256",
          "name": "tokenId",
          "type": "uint256"
        }
      ],
      "name": "burn",
      "outputs": [],
      "stateMutability": "nonpayable",
      "type": "function"
    },
    {
      "inputs": [
        {
          "internalType": "uint256",
          "name": "tokenId",
          "type": "uint256"
        }
      ],
      "name": "revoke",
      "outputs": [],
      "stateMutability": "nonpayable",
      "type": "function"
    },
    {
      "inputs": [
        {
          "internalType": "uint256",
          "name": "tokenId",
          "type": "uint256"
        }
      ],
      "name": "tokenURI",
      "outputs": [
        {
          "internalType": "string",
          "name": "",
          "type": "string"
        }
      ],
      "stateMutability": "view",
      "type": "function",
      "constant": true
    },
    {
      "inputs": [
        {
          "internalType": "uint256",
          "name": "tokenId",
          "type": "uint256"
        }
      ],
      "name": "getTokenType",
      "outputs": [
        {
          "internalType": "uint256",
          "name": "",
          "type": "uint256"
        }
      ],
      "stateMutability": "view",
      "type": "function",
      "constant": true
    },
    {
      "inputs": [
        {
          "internalType": "bytes4",
          "name": "interfaceId",
          "type": "bytes4"
        }
      ],
      "name": "supportsInterface",
      "outputs": [
        {
          "internalType": "bool",
          "name": "",
          "type": "bool"
        }
      ],
      "stateMutability": "view",
      "type": "function",
      "constant": true
    }
  ],
  "bytecode": "0x60806040523480156200001157600080fd5b506040518060400160405280600b81526020017f536f756c626f756e6465720000000000000000000000000000000000000000008152506040518060400160405280600381526020017f5342540000000000000000000000000000000000000000000000000000000000815250816000908051906020019062000096929190620001a6565b508060019080519060200190620000af929190620001a6565b505050620000d2620000c6620000d860201b60201c565b620000e060201b60201c565b620002bb565b600033905090565b6000600b60009054906101000a900473ffffffffffffffffffffffffffffffffffffffff16905081600b60006101000a81548173ffffffffffffffffffffffffffffffffffffffff021916908373ffffffffffffffffffffffffffffffffffffffff1602179055508173ffffffffffffffffffffffffffffffffffffffff168173ffffffffffffffffffffffffffffffffffffffff167f8be0079c531659141344cd1fd0a4f28419497f9722a3daafe3b4186f6b6457e060405160405180910390a35050565b828054620001b49062000285565b90600052602060002090601f016020900481019282620001d8576000855562000224565b82601f10620001f357805160ff191683800117855562000224565b8280016001018555821562000224579182015b828111156200022357825182559160200191906001019062000206565b5b50905062000233919062000237565b5090565b5b808211156200025257600081600090555060010162000238565b5090565b7f4e487b7100000000000000000000000000000000000000000000000000000000600052602260045260246000fd5b600060028204905060018216806200029e57607f821691505b60208210811415620002b557620002b462000256565b5b50919050565b61414f80620002cb6000396000f3fe608060405234801561001057600080fd5b50600436106101585760003560e01c80636352211e116100c3578063a22cb4651161007c578063a22cb465146103d7578063b88d4fde146103f3578063c772745a1461040f578063c87b56dd1461042b578063e985e9c51461045b578063f2fde38b1461048b57610158565b80636352211e1461030157806370a0823114610331578063715018a61461036157806376aed2e11461036b5780638da5cb5b1461039b57806395d89b41146103b957610158565b806320c5429b1161011557806320c5429b1461023157806323b872dd1461024d5780632f745c591461026957806342842e0e1461029957806342966c68146102b55780634f6ccce7146102d157610158565b806301ffc9a71461015d57806306fdde031461018d578063081812fc146101ab578063093edf83146101db578063095ea7b3146101f757806318160ddd14610213575b600080fd5b61017760048036038101906101729190612bd4565b6104a7565b6040516101849190612c1c565b60405180910390f35b6101956104b9565b6040516101a29190612cd0565b60405180910390f35b6101c560048036038101906101c09190612d28565b61054b565b6040516101d29190612d96565b60405180910390f35b6101f560048036038101906101f09190612ee6565b610591565b005b610211600480360381019061020c9190612f6e565b61066b565b005b61021b610783565b6040516102289190612fbd565b60405180910390f35b61024b60048036038101906102469190612d28565b610790565b005b61026760048036038101906102629190612fd8565b61082e565b005b610283600480360381019061027e9190612f6e565b61088e565b6040516102909190612fbd565b60405180910390f35b6102b360048036038101906102ae9190612fd8565b610933565b005b6102cf60048036038101906102ca9190612d28565b610953565b005b6102eb60048036038101906102e69190612d28565b610a67565b6040516102f89190612fbd565b60405180910390f35b61031b60048036038101906103169190612d28565b610ad8565b6040516103289190612d96565b60405180910390f35b61034b6004803603810190610346919061302b565b610b5f565b6040516103589190612fbd565b60405180910390f35b610369610c17565b005b61038560048036038101906103809190612d28565b610c2b565b6040516103929190612fbd565b60405180910390f35b6103a3610c48565b6040516103b09190612d96565b60405180910390f35b6103c1610c72565b6040516103ce9190612cd0565b60405180910390f35b6103f160048036038101906103ec9190613084565b610d04565b005b61040d60048036038101906104089190613165565b610d1a565b005b610429600480360381019061042491906131e8565b610d7c565b005b61044560048036038101906104409190612d28565b610ef9565b6040516104529190612cd0565b60405180910390f35b61047560048036038101906104709190613257565b610f0b565b6040516104829190612c1c565b60405180910390f35b6104a560048036038101906104a0919061302b565b610f9f565b005b60006104b282611023565b9050919050565b6060600080546104c8906132c6565b80601f01602080910402602001604051908101604052809291908181526020018280546104f4906132c6565b80156105415780601f1061051657610100808354040283529160200191610541565b820191906000526020600020905b81548152906001019060200180831161052457829003601f168201915b5050505050905090565b60006105568261109d565b6004600083815260200190815260200160002060009054906101000a900473ffffffffffffffffffffffffffffffffffffffff169050919050565b6001600e600084815260200190815260200160002054146105e7576040517f08c379a00000000000000000000000000000000000000000000000000000000081526004016105de9061336a565b60405180910390fd5b3373ffffffffffffffffffffffffffffffffffffffff1661060783610ad8565b73ffffffffffffffffffffffffffffffffffffffff161461065d576040517f08c379a0000000000000000000000000000000000000000000000000000000008152600401610654906133fc565b60405180910390fd5b61066782826110e8565b5050565b600061067682610ad8565b90508073ffffffffffffffffffffffffffffffffffffffff168373ffffffffffffffffffffffffffffffffffffffff1614156106e7576040517f08c379a00000000000000000000000000000000000000000000000000000000081526004016106de9061348e565b60405180910390fd5b8073ffffffffffffffffffffffffffffffffffffffff1661070661115c565b73ffffffffffffffffffffffffffffffffffffffff16148061073557506107348161072f61115c565b610f0b565b5b610774576040517f08c379a000000000000000000000000000000000000000000000000000000000815260040161076b90613520565b60405180910390fd5b61077e8383611164565b505050565b6000600880549050905090565b6107998161121d565b6000600e6000838152602001908152602001600020549050600e600083815260200190815260200160002060009055600181141561082a576000600d60003373ffffffffffffffffffffffffffffffffffffffff1673ffffffffffffffffffffffffffffffffffffffff16815260200190815260200160002060006101000a81548160ff0219169083151502179055505b5050565b61083f61083961115c565b82611229565b61087e576040517f08c379a0000000000000000000000000000000000000000000000000000000008152600401610875906135b2565b60405180910390fd5b6108898383836112be565b505050565b600061089983610b5f565b82106108da576040517f08c379a00000000000000000000000000000000000000000000000000000000081526004016108d190613644565b60405180910390fd5b600660008473ffffffffffffffffffffffffffffffffffffffff1673ffffffffffffffffffffffffffffffffffffffff168152602001908152602001600020600083815260200190815260200160002054905092915050565b61094e83838360405180602001604052806000815250610d1a565b505050565b3373ffffffffffffffffffffffffffffffffffffffff1661097382610ad8565b73ffffffffffffffffffffffffffffffffffffffff16146109c9576040517f08c379a00000000000000000000000000000000000000000000000000000000081526004016109c0906136b0565b60405180910390fd5b6109d28161121d565b6000600e6000838152602001908152602001600020549050600e6000838152602001908152602001600020600090556001811415610a63576000600d60003373ffffffffffffffffffffffffffffffffffffffff1673ffffffffffffffffffffffffffffffffffffffff16815260200190815260200160002060006101000a81548160ff0219169083151502179055505b5050565b6000610a71610783565b8210610ab2576040517f08c379a0000000000000000000000000000000000000000000000000000000008152600401610aa990613742565b60405180910390fd5b60088281548110610ac657610ac5613762565b5b90600052602060002001549050919050565b600080610ae4836115b8565b9050600073ffffffffffffffffffffffffffffffffffffffff168173ffffffffffffffffffffffffffffffffffffffff161415610b56576040517f08c379a0000000000000000000000000000000000000000000000000000000008152600401610b4d906137dd565b60405180910390fd5b80915050919050565b60008073ffffffffffffffffffffffffffffffffffffffff168273ffffffffffffffffffffffffffffffffffffffff161415610bd0576040517f08c379a0000000000000000000000000000000000000000000000000000000008152600401610bc79061386f565b60405180910390fd5b600360008373ffffffffffffffffffffffffffffffffffffffff1673ffffffffffffffffffffffffffffffffffffffff168152602001908152602001600020549050919050565b610c1f6115f5565b610c296000611673565b565b6000600e6000838152602001908152602001600020549050919050565b6000600b60009054906101000a900473ffffffffffffffffffffffffffffffffffffffff16905090565b606060018054610c81906132c6565b80601f0160208091040260200160405190810160405280929190818152602001828054610cad906132c6565b8015610cfa5780601f10610ccf57610100808354040283529160200191610cfa565b820191906000526020600020905b815481529060010190602001808311610cdd57829003601f168201915b5050505050905090565b610d16610d0f61115c565b8383611739565b5050565b610d2b610d2561115c565b83611229565b610d6a576040517f08c379a0000000000000000000000000000000000000000000000000000000008152600401610d61906135b2565b60405180910390fd5b610d76848484846118a6565b50505050565b6000811415610dc0576040517f08c379a0000000000000000000000000000000000000000000000000000000008152600401610db7906138db565b60405180910390fd5b6001811415610eaf57600d60008473ffffffffffffffffffffffffffffffffffffffff1673ffffffffffffffffffffffffffffffffffffffff16815260200190815260200160002060009054906101000a900460ff1615610e56576040517f08c379a0000000000000000000000000000000000000000000000000000000008152600401610e4d9061396d565b60405180910390fd5b6001600d60008573ffffffffffffffffffffffffffffffffffffffff1673ffffffffffffffffffffffffffffffffffffffff16815260200190815260200160002060006101000a81548160ff0219169083151502179055505b6000610ebb600c611902565b9050610ec7600c611910565b610ed18482611926565b610edb81846110e8565b81600e60008381526020019081526020016000208190555050505050565b6060610f0482611944565b9050919050565b6000600560008473ffffffffffffffffffffffffffffffffffffffff1673ffffffffffffffffffffffffffffffffffffffff16815260200190815260200160002060008373ffffffffffffffffffffffffffffffffffffffff1673ffffffffffffffffffffffffffffffffffffffff16815260200190815260200160002060009054906101000a900460ff16905092915050565b610fa76115f5565b600073ffffffffffffffffffffffffffffffffffffffff168173ffffffffffffffffffffffffffffffffffffffff161415611017576040517f08c379a000000000000000000000000000000000000000000000000000000000815260040161100e906139ff565b60405180910390fd5b61102081611673565b50565b60007f780e9d63000000000000000000000000000000000000000000000000000000007bffffffffffffffffffffffffffffffffffffffffffffffffffffffff1916827bffffffffffffffffffffffffffffffffffffffffffffffffffffffff19161480611096575061109582611a57565b5b9050919050565b6110a681611b39565b6110e5576040517f08c379a00000000000000000000000000000000000000000000000000000000081526004016110dc906137dd565b60405180910390fd5b50565b6110f182611b39565b611130576040517f08c379a000000000000000000000000000000000000000000000000000000000815260040161112790613a91565b60405180910390fd5b80600a60008481526020019081526020016000209080519060200190611157929190612a85565b505050565b600033905090565b816004600083815260200190815260200160002060006101000a81548173ffffffffffffffffffffffffffffffffffffffff021916908373ffffffffffffffffffffffffffffffffffffffff160217905550808273ffffffffffffffffffffffffffffffffffffffff166111d783610ad8565b73ffffffffffffffffffffffffffffffffffffffff167f8c5be1e5ebec7d5bd14f71427d1e84f3dd0314c0f7b2291e5b200ac8c7c3b92560405160405180910390a45050565b61122681611b7a565b50565b60008061123583610ad8565b90508073ffffffffffffffffffffffffffffffffffffffff168473ffffffffffffffffffffffffffffffffffffffff16148061127757506112768185610f0b565b5b806112b557508373ffffffffffffffffffffffffffffffffffffffff1661129d8461054b565b73ffffffffffffffffffffffffffffffffffffffff16145b91505092915050565b8273ffffffffffffffffffffffffffffffffffffffff166112de82610ad8565b73ffffffffffffffffffffffffffffffffffffffff1614611334576040517f08c379a000000000000000000000000000000000000000000000000000000000815260040161132b90613b23565b60405180910390fd5b600073ffffffffffffffffffffffffffffffffffffffff168273ffffffffffffffffffffffffffffffffffffffff1614156113a4576040517f08c379a000000000000000000000000000000000000000000000000000000000815260040161139b90613bb5565b60405180910390fd5b6113b18383836001611bcd565b8273ffffffffffffffffffffffffffffffffffffffff166113d182610ad8565b73ffffffffffffffffffffffffffffffffffffffff1614611427576040517f08c379a000000000000000000000000000000000000000000000000000000000815260040161141e90613b23565b60405180910390fd5b6004600082815260200190815260200160002060006101000a81549073ffffffffffffffffffffffffffffffffffffffff02191690556001600360008573ffffffffffffffffffffffffffffffffffffffff1673ffffffffffffffffffffffffffffffffffffffff168152602001908152602001600020600082825403925050819055506001600360008473ffffffffffffffffffffffffffffffffffffffff1673ffffffffffffffffffffffffffffffffffffffff16815260200190815260200160002060008282540192505081905550816002600083815260200190815260200160002060006101000a81548173ffffffffffffffffffffffffffffffffffffffff021916908373ffffffffffffffffffffffffffffffffffffffff160217905550808273ffffffffffffffffffffffffffffffffffffffff168473ffffffffffffffffffffffffffffffffffffffff167fddf252ad1be2c89b69c2b068fc378daa952ba7f163c4a11628f55a4df523b3ef60405160405180910390a46115b38383836001611c85565b505050565b60006002600083815260200190815260200160002060009054906101000a900473ffffffffffffffffffffffffffffffffffffffff169050919050565b6115fd61115c565b73ffffffffffffffffffffffffffffffffffffffff1661161b610c48565b73ffffffffffffffffffffffffffffffffffffffff1614611671576040517f08c379a000000000000000000000000000000000000000000000000000000000815260040161166890613c21565b60405180910390fd5b565b6000600b60009054906101000a900473ffffffffffffffffffffffffffffffffffffffff16905081600b60006101000a81548173ffffffffffffffffffffffffffffffffffffffff021916908373ffffffffffffffffffffffffffffffffffffffff1602179055508173ffffffffffffffffffffffffffffffffffffffff168173ffffffffffffffffffffffffffffffffffffffff167f8be0079c531659141344cd1fd0a4f28419497f9722a3daafe3b4186f6b6457e060405160405180910390a35050565b8173ffffffffffffffffffffffffffffffffffffffff168373ffffffffffffffffffffffffffffffffffffffff1614156117a8576040517f08c379a000000000000000000000000000000000000000000000000000000000815260040161179f90613c8d565b60405180910390fd5b80600560008573ffffffffffffffffffffffffffffffffffffffff1673ffffffffffffffffffffffffffffffffffffffff16815260200190815260200160002060008473ffffffffffffffffffffffffffffffffffffffff1673ffffffffffffffffffffffffffffffffffffffff16815260200190815260200160002060006101000a81548160ff0219169083151502179055508173ffffffffffffffffffffffffffffffffffffffff168373ffffffffffffffffffffffffffffffffffffffff167f17307eab39ab6107e8899845ad3d59bd9653f200f220920489ca2b5937696c31836040516118999190612c1c565b60405180910390a3505050565b6118b18484846112be565b6118bd84848484611d84565b6118fc576040517f08c379a00000000000000000000000000000000000000000000000000000000081526004016118f390613d1f565b60405180910390fd5b50505050565b600081600001549050919050565b6001816000016000828254019250508190555050565b611940828260405180602001604052806000815250611f1b565b5050565b606061194f8261109d565b6000600a6000848152602001908152602001600020805461196f906132c6565b80601f016020809104026020016040519081016040528092919081815260200182805461199b906132c6565b80156119e85780601f106119bd576101008083540402835291602001916119e8565b820191906000526020600020905b8154815290600101906020018083116119cb57829003601f168201915b5050505050905060006119f9611f76565b9050600081511415611a0f578192505050611a52565b600082511115611a44578082604051602001611a2c929190613d7b565b60405160208183030381529060405292505050611a52565b611a4d84611f8d565b925050505b919050565b60007f80ac58cd000000000000000000000000000000000000000000000000000000007bffffffffffffffffffffffffffffffffffffffffffffffffffffffff1916827bffffffffffffffffffffffffffffffffffffffffffffffffffffffff19161480611b2257507f5b5e139f000000000000000000000000000000000000000000000000000000007bffffffffffffffffffffffffffffffffffffffffffffffffffffffff1916827bffffffffffffffffffffffffffffffffffffffffffffffffffffffff1916145b80611b325750611b3182611ff5565b5b9050919050565b60008073ffffffffffffffffffffffffffffffffffffffff16611b5b836115b8565b73ffffffffffffffffffffffffffffffffffffffff1614159050919050565b611b838161205f565b6000600a60008381526020019081526020016000208054611ba3906132c6565b905014611bca57600a60008281526020019081526020016000206000611bc99190612b0b565b5b50565b600073ffffffffffffffffffffffffffffffffffffffff168473ffffffffffffffffffffffffffffffffffffffff161480611c345750600073ffffffffffffffffffffffffffffffffffffffff168373ffffffffffffffffffffffffffffffffffffffff16145b611c73576040517f08c379a0000000000000000000000000000000000000000000000000000000008152600401611c6a90613deb565b60405180910390fd5b611c7f848484846121ad565b50505050565b600073ffffffffffffffffffffffffffffffffffffffff168473ffffffffffffffffffffffffffffffffffffffff161415611d0357818373ffffffffffffffffffffffffffffffffffffffff167fe9274a84b19e9428826de6bae8c48329354f8f0e73f771b97cae2d9dccd45a2760405160405180910390a3611d7e565b600073ffffffffffffffffffffffffffffffffffffffff168373ffffffffffffffffffffffffffffffffffffffff161415611d7d57818373ffffffffffffffffffffffffffffffffffffffff167fec9ab91322523c899ede7830ec9bfc992b5981cdcc27b91162fb23de5791117b60405160405180910390a35b5b50505050565b6000611da58473ffffffffffffffffffffffffffffffffffffffff1661230d565b15611f0e578373ffffffffffffffffffffffffffffffffffffffff1663150b7a02611dce61115c565b8786866040518563ffffffff1660e01b8152600401611df09493929190613e60565b602060405180830381600087803b158015611e0a57600080fd5b505af1925050508015611e3b57506040513d601f19601f82011682018060405250810190611e389190613ec1565b60015b611ebe573d8060008114611e6b576040519150601f19603f3d011682016040523d82523d6000602084013e611e70565b606091505b50600081511415611eb6576040517f08c379a0000000000000000000000000000000000000000000000000000000008152600401611ead90613d1f565b60405180910390fd5b805181602001fd5b63150b7a0260e01b7bffffffffffffffffffffffffffffffffffffffffffffffffffffffff1916817bffffffffffffffffffffffffffffffffffffffffffffffffffffffff191614915050611f13565b600190505b949350505050565b611f258383612330565b611f326000848484611d84565b611f71576040517f08c379a0000000000000000000000000000000000000000000000000000000008152600401611f6890613d1f565b60405180910390fd5b505050565b606060405180602001604052806000815250905090565b6060611f988261109d565b6000611fa2611f76565b90506000815111611fc25760405180602001604052806000815250611fed565b80611fcc8461254e565b604051602001611fdd929190613d7b565b6040516020818303038152906040525b915050919050565b60007f01ffc9a7000000000000000000000000000000000000000000000000000000007bffffffffffffffffffffffffffffffffffffffffffffffffffffffff1916827bffffffffffffffffffffffffffffffffffffffffffffffffffffffff1916149050919050565b600061206a82610ad8565b905061207a816000846001611bcd565b61208382610ad8565b90506004600083815260200190815260200160002060006101000a81549073ffffffffffffffffffffffffffffffffffffffff02191690556001600360008373ffffffffffffffffffffffffffffffffffffffff1673ffffffffffffffffffffffffffffffffffffffff168152602001908152602001600020600082825403925050819055506002600083815260200190815260200160002060006101000a81549073ffffffffffffffffffffffffffffffffffffffff021916905581600073ffffffffffffffffffffffffffffffffffffffff168273ffffffffffffffffffffffffffffffffffffffff167fddf252ad1be2c89b69c2b068fc378daa952ba7f163c4a11628f55a4df523b3ef60405160405180910390a46121a9816000846001611c85565b5050565b6121b984848484612626565b60018111156121fd576040517f08c379a00000000000000000000000000000000000000000000000000000000081526004016121f490613f60565b60405180910390fd5b6000829050600073ffffffffffffffffffffffffffffffffffffffff168573ffffffffffffffffffffffffffffffffffffffff161415612245576122408161262c565b612284565b8373ffffffffffffffffffffffffffffffffffffffff168573ffffffffffffffffffffffffffffffffffffffff1614612283576122828582612675565b5b5b600073ffffffffffffffffffffffffffffffffffffffff168473ffffffffffffffffffffffffffffffffffffffff1614156122c7576122c2816127e2565b612306565b8473ffffffffffffffffffffffffffffffffffffffff168473ffffffffffffffffffffffffffffffffffffffff16146123055761230484826128b3565b5b5b5050505050565b6000808273ffffffffffffffffffffffffffffffffffffffff163b119050919050565b600073ffffffffffffffffffffffffffffffffffffffff168273ffffffffffffffffffffffffffffffffffffffff1614156123a0576040517f08c379a000000000000000000000000000000000000000000000000000000000815260040161239790613fcc565b60405180910390fd5b6123a981611b39565b156123e9576040517f08c379a00000000000000000000000000000000000000000000000000000000081526004016123e090614038565b60405180910390fd5b6123f7600083836001611bcd565b61240081611b39565b15612440576040517f08c379a000000000000000000000000000000000000000000000000000000000815260040161243790614038565b60405180910390fd5b6001600360008473ffffffffffffffffffffffffffffffffffffffff1673ffffffffffffffffffffffffffffffffffffffff16815260200190815260200160002060008282540192505081905550816002600083815260200190815260200160002060006101000a81548173ffffffffffffffffffffffffffffffffffffffff021916908373ffffffffffffffffffffffffffffffffffffffff160217905550808273ffffffffffffffffffffffffffffffffffffffff16600073ffffffffffffffffffffffffffffffffffffffff167fddf252ad1be2c89b69c2b068fc378daa952ba7f163c4a11628f55a4df523b3ef60405160405180910390a461254a600083836001611c85565b5050565b60606000600161255d84612932565b01905060008167ffffffffffffffff81111561257c5761257b612dbb565b5b6040519080825280601f01601f1916602001820160405280156125ae5781602001600182028036833780820191505090505b509050600082602001820190505b60011561261b578080600190039150507f3031323334353637383961626364656600000000000000000000000000000000600a86061a8153600a858161260557612604614058565b5b04945060008514156126165761261b565b6125bc565b819350505050919050565b50505050565b6008805490506009600083815260200190815260200160002081905550600881908060018154018082558091505060019003906000526020600020016000909190919091505550565b6000600161268284610b5f565b61268c91906140b6565b9050600060076000848152602001908152602001600020549050818114612771576000600660008673ffffffffffffffffffffffffffffffffffffffff1673ffffffffffffffffffffffffffffffffffffffff168152602001908152602001600020600084815260200190815260200160002054905080600660008773ffffffffffffffffffffffffffffffffffffffff1673ffffffffffffffffffffffffffffffffffffffff168152602001908152602001600020600084815260200190815260200160002081905550816007600083815260200190815260200160002081905550505b6007600084815260200190815260200160002060009055600660008573ffffffffffffffffffffffffffffffffffffffff1673ffffffffffffffffffffffffffffffffffffffff16815260200190815260200160002060008381526020019081526020016000206000905550505050565b600060016008805490506127f691906140b6565b905060006009600084815260200190815260200160002054905060006008838154811061282657612825613762565b5b90600052602060002001549050806008838154811061284857612847613762565b5b906000526020600020018190555081600960008381526020019081526020016000208190555060096000858152602001908152602001600020600090556008805480612897576128966140ea565b5b6001900381819060005260206000200160009055905550505050565b60006128be83610b5f565b905081600660008573ffffffffffffffffffffffffffffffffffffffff1673ffffffffffffffffffffffffffffffffffffffff168152602001908152602001600020600083815260200190815260200160002081905550806007600084815260200190815260200160002081905550505050565b600080600090507a184f03e93ff9f4daa797ed6e38ed64bf6a1f0100000000000000008310612990577a184f03e93ff9f4daa797ed6e38ed64bf6a1f010000000000000000838161298657612985614058565b5b0492506040810190505b6d04ee2d6d415b85acef810000000083106129cd576d04ee2d6d415b85acef810000000083816129c3576129c2614058565b5b0492506020810190505b662386f26fc1000083106129fc57662386f26fc1000083816129f2576129f1614058565b5b0492506010810190505b6305f5e1008310612a25576305f5e1008381612a1b57612a1a614058565b5b0492506008810190505b6127108310612a4a576127108381612a4057612a3f614058565b5b0492506004810190505b60648310612a6d5760648381612a6357612a62614058565b5b0492506002810190505b600a8310612a7c576001810190505b80915050919050565b828054612a91906132c6565b90600052602060002090601f016020900481019282612ab35760008555612afa565b82601f10612acc57805160ff1916838001178555612afa565b82800160010185558215612afa579182015b82811115612af9578251825591602001919060010190612ade565b5b509050612b079190612b4b565b5090565b508054612b17906132c6565b6000825580601f10612b295750612b48565b601f016020900490600052602060002090810190612b479190612b4b565b5b50565b5b80821115612b64576000816000905550600101612b4c565b5090565b6000604051905090565b600080fd5b600080fd5b60007fffffffff0000000000000000000000000000000000000000000000000000000082169050919050565b612bb181612b7c565b8114612bbc57600080fd5b50565b600081359050612bce81612ba8565b92915050565b600060208284031215612bea57612be9612b72565b5b6000612bf884828501612bbf565b91505092915050565b60008115159050919050565b612c1681612c01565b82525050565b6000602082019050612c316000830184612c0d565b92915050565b600081519050919050565b600082825260208201905092915050565b60005b83811015612c71578082015181840152602081019050612c56565b83811115612c80576000848401525b50505050565b6000601f19601f8301169050919050565b6000612ca282612c37565b612cac8185612c42565b9350612cbc818560208601612c53565b612cc581612c86565b840191505092915050565b60006020820190508181036000830152612cea8184612c97565b905092915050565b6000819050919050565b612d0581612cf2565b8114612d1057600080fd5b50565b600081359050612d2281612cfc565b92915050565b600060208284031215612d3e57612d3d612b72565b5b6000612d4c84828501612d13565b91505092915050565b600073ffffffffffffffffffffffffffffffffffffffff82169050919050565b6000612d8082612d55565b9050919050565b612d9081612d75565b82525050565b6000602082019050612dab6000830184612d87565b92915050565b600080fd5b600080fd5b7f4e487b7100000000000000000000000000000000000000000000000000000000600052604160045260246000fd5b612df382612c86565b810181811067ffffffffffffffff82111715612e1257612e11612dbb565b5b80604052505050565b6000612e25612b68565b9050612e318282612dea565b919050565b600067ffffffffffffffff821115612e5157612e50612dbb565b5b612e5a82612c86565b9050602081019050919050565b82818337600083830152505050565b6000612e89612e8484612e36565b612e1b565b905082815260208101848484011115612ea557612ea4612db6565b5b612eb0848285612e67565b509392505050565b600082601f830112612ecd57612ecc612db1565b5b8135612edd848260208601612e76565b91505092915050565b60008060408385031215612efd57612efc612b72565b5b6000612f0b85828601612d13565b925050602083013567ffffffffffffffff811115612f2c57612f2b612b77565b5b612f3885828601612eb8565b9150509250929050565b612f4b81612d75565b8114612f5657600080fd5b50565b600081359050612f6881612f42565b92915050565b60008060408385031215612f8557612f84612b72565b5b6000612f9385828601612f59565b9250506020612fa485828601612d13565b9150509250929050565b612fb781612cf2565b82525050565b6000602082019050612fd26000830184612fae565b92915050565b600080600060608486031215612ff157612ff0612b72565b5b6000612fff86828701612f59565b935050602061301086828701612f59565b925050604061302186828701612d13565b9150509250925092565b60006020828403121561304157613040612b72565b5b600061304f84828501612f59565b91505092915050565b61306181612c01565b811461306c57600080fd5b50565b60008135905061307e81613058565b92915050565b6000806040838503121561309b5761309a612b72565b5b60006130a985828601612f59565b92505060206130ba8582860161306f565b9150509250929050565b600067ffffffffffffffff8211156130df576130de612dbb565b5b6130e882612c86565b9050602081019050919050565b6000613108613103846130c4565b612e1b565b90508281526020810184848401111561312457613123612db6565b5b61312f848285612e67565b509392505050565b600082601f83011261314c5761314b612db1565b5b813561315c8482602086016130f5565b91505092915050565b6000806000806080858703121561317f5761317e612b72565b5b600061318d87828801612f59565b945050602061319e87828801612f59565b93505060406131af87828801612d13565b925050606085013567ffffffffffffffff8111156131d0576131cf612b77565b5b6131dc87828801613137565b91505092959194509250565b60008060006060848603121561320157613200612b72565b5b600061320f86828701612f59565b935050602084013567ffffffffffffffff8111156132305761322f612b77565b5b61323c86828701612eb8565b925050604061324d86828701612d13565b9150509250925092565b6000806040838503121561326e5761326d612b72565b5b600061327c85828601612f59565b925050602061328d85828601612f59565b9150509250929050565b7f4e487b7100000000000000000000000000000000000000000000000000000000600052602260045260246000fd5b600060028204905060018216806132de57607f821691505b602082108114156132f2576132f1613297565b5b50919050565b7f546f6b656e207479706520646f6573206e6f7420737570706f7274206d65746160008201527f646174612065646974696e670000000000000000000000000000000000000000602082015250565b6000613354602c83612c42565b915061335f826132f8565b604082019050919050565b6000602082019050818103600083015261338381613347565b9050919050565b7f4f6e6c7920746f6b656e206f776e65722063616e2065646974206d657461646160008201527f7461000000000000000000000000000000000000000000000000000000000000602082015250565b60006133e6602283612c42565b91506133f18261338a565b604082019050919050565b60006020820190508181036000830152613415816133d9565b9050919050565b7f4552433732313a20617070726f76616c20746f2063757272656e74206f776e6560008201527f7200000000000000000000000000000000000000000000000000000000000000602082015250565b6000613478602183612c42565b91506134838261341c565b604082019050919050565b600060208201905081810360008301526134a78161346b565b9050919050565b7f4552433732313a20617070726f76652063616c6c6572206973206e6f7420746f60008201527f6b656e206f776e6572206f7220617070726f76656420666f7220616c6c000000602082015250565b600061350a603d83612c42565b9150613515826134ae565b604082019050919050565b60006020820190508181036000830152613539816134fd565b9050919050565b7f4552433732313a2063616c6c6572206973206e6f7420746f6b656e206f776e6560008201527f72206f7220617070726f76656400000000000000000000000000000000000000602082015250565b600061359c602d83612c42565b91506135a782613540565b604082019050919050565b600060208201905081810360008301526135cb8161358f565b9050919050565b7f455243373231456e756d657261626c653a206f776e657220696e646578206f7560008201527f74206f6620626f756e6473000000000000000000000000000000000000000000602082015250565b600061362e602b83612c42565b9150613639826135d2565b604082019050919050565b6000602082019050818103600083015261365d81613621565b9050919050565b7f4f6e6c7920746f6b656e206f776e65722063616e206275726e20697400000000600082015250565b600061369a601c83612c42565b91506136a582613664565b602082019050919050565b600060208201905081810360008301526136c98161368d565b9050919050565b7f455243373231456e756d657261626c653a20676c6f62616c20696e646578206f60008201527f7574206f6620626f756e64730000000000000000000000000000000000000000602082015250565b600061372c602c83612c42565b9150613737826136d0565b604082019050919050565b6000602082019050818103600083015261375b8161371f565b9050919050565b7f4e487b7100000000000000000000000000000000000000000000000000000000600052603260045260246000fd5b7f4552433732313a20696e76616c696420746f6b656e2049440000000000000000600082015250565b60006137c7601883612c42565b91506137d282613791565b602082019050919050565b600060208201905081810360008301526137f6816137ba565b9050919050565b7f4552433732313a2061646472657373207a65726f206973206e6f74206120766160008201527f6c6964206f776e65720000000000000000000000000000000000000000000000602082015250565b6000613859602983612c42565b9150613864826137fd565b604082019050919050565b600060208201905081810360008301526138888161384c565b9050919050565b7f496e76616c696420746f6b656e20747970650000000000000000000000000000600082015250565b60006138c5601283612c42565b91506138d08261388f565b602082019050919050565b600060208201905081810360008301526138f4816138b8565b9050919050565b7f4f6e6c79206f6e652061757468656e7469636174696f6e20746f6b656e20636160008201527f6e206265206d696e746564207065722077616c6c657400000000000000000000602082015250565b6000613957603683612c42565b9150613962826138fb565b604082019050919050565b600060208201905081810360008301526139868161394a565b9050919050565b7f4f776e61626c653a206e6577206f776e657220697320746865207a65726f206160008201527f6464726573730000000000000000000000000000000000000000000000000000602082015250565b60006139e9602683612c42565b91506139f48261398d565b604082019050919050565b60006020820190508181036000830152613a18816139dc565b9050919050565b7f45524337323155524953746f726167653a2055524920736574206f66206e6f6e60008201527f6578697374656e7420746f6b656e000000000000000000000000000000000000602082015250565b6000613a7b602e83612c42565b9150613a8682613a1f565b604082019050919050565b60006020820190508181036000830152613aaa81613a6e565b9050919050565b7f4552433732313a207472616e736665722066726f6d20696e636f72726563742060008201527f6f776e6572000000000000000000000000000000000000000000000000000000602082015250565b6000613b0d602583612c42565b9150613b1882613ab1565b604082019050919050565b60006020820190508181036000830152613b3c81613b00565b9050919050565b7f4552433732313a207472616e7366657220746f20746865207a65726f2061646460008201527f7265737300000000000000000000000000000000000000000000000000000000602082015250565b6000613b9f602483612c42565b9150613baa82613b43565b604082019050919050565b60006020820190508181036000830152613bce81613b92565b9050919050565b7f4f776e61626c653a2063616c6c6572206973206e6f7420746865206f776e6572600082015250565b6000613c0b602083612c42565b9150613c1682613bd5565b602082019050919050565b60006020820190508181036000830152613c3a81613bfe565b9050919050565b7f4552433732313a20617070726f766520746f2063616c6c657200000000000000600082015250565b6000613c77601983612c42565b9150613c8282613c41565b602082019050919050565b60006020820190508181036000830152613ca681613c6a565b9050919050565b7f4552433732313a207472616e7366657220746f206e6f6e20455243373231526560008201527f63656976657220696d706c656d656e7465720000000000000000000000000000602082015250565b6000613d09603283612c42565b9150613d1482613cad565b604082019050919050565b60006020820190508181036000830152613d3881613cfc565b9050919050565b600081905092915050565b6000613d5582612c37565b613d5f8185613d3f565b9350613d6f818560208601612c53565b80840191505092915050565b6000613d878285613d4a565b9150613d938284613d4a565b91508190509392505050565b7f596f752063616e2774207472616e73666572207468697320746f6b656e000000600082015250565b6000613dd5601d83612c42565b9150613de082613d9f565b602082019050919050565b60006020820190508181036000830152613e0481613dc8565b9050919050565b600081519050919050565b600082825260208201905092915050565b6000613e3282613e0b565b613e3c8185613e16565b9350613e4c818560208601612c53565b613e5581612c86565b840191505092915050565b6000608082019050613e756000830187612d87565b613e826020830186612d87565b613e8f6040830185612fae565b8181036060830152613ea18184613e27565b905095945050505050565b600081519050613ebb81612ba8565b92915050565b600060208284031215613ed757613ed6612b72565b5b6000613ee584828501613eac565b91505092915050565b7f455243373231456e756d657261626c653a20636f6e736563757469766520747260008201527f616e7366657273206e6f7420737570706f727465640000000000000000000000602082015250565b6000613f4a603583612c42565b9150613f5582613eee565b604082019050919050565b60006020820190508181036000830152613f7981613f3d565b9050919050565b7f4552433732313a206d696e7420746f20746865207a65726f2061646472657373600082015250565b6000613fb6602083612c42565b9150613fc182613f80565b602082019050919050565b60006020820190508181036000830152613fe581613fa9565b9050919050565b7f4552433732313a20746f6b656e20616c7265616479206d696e74656400000000600082015250565b6000614022601c83612c42565b915061402d82613fec565b602082019050919050565b6000602082019050818103600083015261405181614015565b9050919050565b7f4e487b7100000000000000000000000000000000000000000000000000000000600052601260045260246000fd5b7f4e487b7100000000000000000000000000000000000000000000000000000000600052601160045260246000fd5b60006140c182612cf2565b91506140cc83612cf2565b9250828210156140df576140de614087565b5b828203905092915050565b7f4e487b7100000000000000000000000000000000000000000000000000000000600052603160045260246000fdfea2646970667358221220fe8b67953d82b5d0fc2abcfad7be7fb0f73534c09acee9d9dc3e7a684e6180f264736f6c63430008090033",
  "immutableReferences": {},
  "source": "// SPDX-License-Identifier: MIT\npragma solidity ^0.8.9;\n\nimport \"@openzeppelin/contracts/token/ERC721/ERC721.sol\";\nimport \"@openzeppelin/contracts/token/ERC721/extensions/ERC721Enumerable.sol\";\nimport \"@openzeppelin/contracts/token/ERC721/extensions/ERC721URIStorage.sol\";\nimport \"@openzeppelin/contracts/access/Ownable.sol\";\nimport \"@openzeppelin/contracts/utils/Counters.sol\";\n\ncontract Soulbounder is ERC721, ERC721Enumerable, ERC721URIStorage, Ownable {\n    using Counters for Counters.Counter;\n\n    Counters.Counter private _tokenIdCounter;\n    mapping(address => bool) private _walletHasAuthToken;\n    mapping(uint256 => uint256) private _tokenTypes;\n\n    event Attest(address indexed to, uint256 indexed tokenId);\n    event Revoke(address indexed to, uint256 indexed tokenId);\n\n\n    constructor() ERC721(\"Soulbounder\", \"SBT\") {}\n\n\n    function safeMint(address to, string memory uri, uint256 tokenType) public {\n        require(tokenType != 0, \"Invalid token type\");\n        \n        if (tokenType == 1) {\n            require(!_walletHasAuthToken[to], \"Only one authentication token can be minted per wallet\");\n            _walletHasAuthToken[to] = true;\n        }\n\n        uint256 tokenId = _tokenIdCounter.current();\n        _tokenIdCounter.increment();\n        _safeMint(to, tokenId);\n        _setTokenURI(tokenId, uri);\n        _tokenTypes[tokenId] = tokenType;\n    }\n\n    function editTokenMetadata(uint256 tokenId, string memory newUri) public {\n        require(_tokenTypes[tokenId] == 1, \"Token type does not support metadata editing\");\n        require(ownerOf(tokenId) == msg.sender, \"Only token owner can edit metadata\");\n\n        _setTokenURI(tokenId, newUri);\n    }\n    \n\n    function burn(uint256 tokenId) external {\n        require(ownerOf(tokenId) == msg.sender, \"Only token owner can burn it\");\n        _burn(tokenId);\n\n\n        uint256 tokenType = _tokenTypes[tokenId];\n        delete _tokenTypes[tokenId];\n        if (tokenType == 1) {\n            _walletHasAuthToken[msg.sender] = false;\n        }\n    }\n\n\n    function revoke(uint256 tokenId) external {\n        _burn(tokenId);\n\n        uint256 tokenType = _tokenTypes[tokenId];\n        delete _tokenTypes[tokenId];\n        if (tokenType == 1) {\n            _walletHasAuthToken[msg.sender] = false;\n        }\n    }\n\n\n    function _beforeTokenTransfer(address from, address to, uint256 tokenId, uint256 batchSize)\n        internal\n        override(ERC721, ERC721Enumerable)\n        virtual\n    {\n        require(from == address(0) || to == address(0), \"You can't transfer this token\");\n        super._beforeTokenTransfer(from, to, tokenId, batchSize);\n    }\n\n\n    function _afterTokenTransfer(address from, address to, uint256 tokenId, uint256 batchSize) \n        internal \n        override \n        virtual \n    {\n        if (from == address(0)) {\n            emit Attest(to, tokenId);\n        } else if (to == address(0)) {\n            emit Revoke(to, tokenId);\n        }\n\n    }\n\n    function _burn(uint256 tokenId) internal override(ERC721, ERC721URIStorage) {\n\n        super._burn(tokenId);\n    }\n\n\n    function tokenURI(uint256 tokenId)\n        public\n        view\n        override(ERC721, ERC721URIStorage)\n        returns (string memory)\n    {\n        return super.tokenURI(tokenId);\n    }\n\n    function getTokenType(uint256 tokenId) public view returns (uint256) {\n        return _tokenTypes[tokenId];\n    }\n\n\n    function supportsInterface(bytes4 interfaceId)\n        public\n        view\n        override(ERC721, ERC721Enumerable)\n        returns (bool)\n    {\n        return super.supportsInterface(interfaceId);\n    }\n}\n",
  "sourcePath": "/Users/joethompson/Documents/Github Projects/Soulbounder/Truffle/contracts/Soulbounder.sol",
  "compiler": {
    "name": "solc",
    "version": "0.8.9+commit.e5eed63a.Emscripten.clang"
  },
  "schemaVersion": "3.4.14",
  "updatedAt": "2023-06-11T10:25:20.753Z",
  "networkType": "ethereum",
  "devdoc": {
    "kind": "dev",
    "methods": {
      "approve(address,uint256)": {
        "details": "See {IERC721-approve}."
      },
      "balanceOf(address)": {
        "details": "See {IERC721-balanceOf}."
      },
      "getApproved(uint256)": {
        "details": "See {IERC721-getApproved}."
      },
      "isApprovedForAll(address,address)": {
        "details": "See {IERC721-isApprovedForAll}."
      },
      "name()": {
        "details": "See {IERC721Metadata-name}."
      },
      "owner()": {
        "details": "Returns the address of the current owner."
      },
      "ownerOf(uint256)": {
        "details": "See {IERC721-ownerOf}."
      },
      "renounceOwnership()": {
        "details": "Leaves the contract without owner. It will not be possible to call `onlyOwner` functions anymore. Can only be called by the current owner. NOTE: Renouncing ownership will leave the contract without an owner, thereby removing any functionality that is only available to the owner."
      },
      "safeTransferFrom(address,address,uint256)": {
        "details": "See {IERC721-safeTransferFrom}."
      },
      "safeTransferFrom(address,address,uint256,bytes)": {
        "details": "See {IERC721-safeTransferFrom}."
      },
      "setApprovalForAll(address,bool)": {
        "details": "See {IERC721-setApprovalForAll}."
      },
      "symbol()": {
        "details": "See {IERC721Metadata-symbol}."
      },
      "tokenByIndex(uint256)": {
        "details": "See {IERC721Enumerable-tokenByIndex}."
      },
      "tokenOfOwnerByIndex(address,uint256)": {
        "details": "See {IERC721Enumerable-tokenOfOwnerByIndex}."
      },
      "totalSupply()": {
        "details": "See {IERC721Enumerable-totalSupply}."
      },
      "transferFrom(address,address,uint256)": {
        "details": "See {IERC721-transferFrom}."
      },
      "transferOwnership(address)": {
        "details": "Transfers ownership of the contract to a new account (`newOwner`). Can only be called by the current owner."
      }
    },
    "version": 1
  },
  "userdoc": {
    "kind": "user",
    "methods": {},
    "version": 1
  }
}