{
  "contractName": "Soulbounder",
  "abi": [
    {
      "inputs": [],
      "stateMutability": "nonpayable",
      "type": "constructor"
    },
    {
      "anonymous": false,
      "inputs": [
        {
          "indexed": true,
          "internalType": "address",
          "name": "owner",
          "type": "address"
        },
        {
          "indexed": true,
          "internalType": "address",
          "name": "approved",
          "type": "address"
        },
        {
          "indexed": true,
          "internalType": "uint256",
          "name": "tokenId",
          "type": "uint256"
        }
      ],
      "name": "Approval",
      "type": "event"
    },
    {
      "anonymous": false,
      "inputs": [
        {
          "indexed": true,
          "internalType": "address",
          "name": "owner",
          "type": "address"
        },
        {
          "indexed": true,
          "internalType": "address",
          "name": "operator",
          "type": "address"
        },
        {
          "indexed": false,
          "internalType": "bool",
          "name": "approved",
          "type": "bool"
        }
      ],
      "name": "ApprovalForAll",
      "type": "event"
    },
    {
      "anonymous": false,
      "inputs": [
        {
          "indexed": true,
          "internalType": "address",
          "name": "to",
          "type": "address"
        },
        {
          "indexed": true,
          "internalType": "uint256",
          "name": "tokenId",
          "type": "uint256"
        }
      ],
      "name": "Attest",
      "type": "event"
    },
    {
      "anonymous": false,
      "inputs": [
        {
          "indexed": true,
          "internalType": "address",
          "name": "previousOwner",
          "type": "address"
        },
        {
          "indexed": true,
          "internalType": "address",
          "name": "newOwner",
          "type": "address"
        }
      ],
      "name": "OwnershipTransferred",
      "type": "event"
    },
    {
      "anonymous": false,
      "inputs": [
        {
          "indexed": true,
          "internalType": "address",
          "name": "to",
          "type": "address"
        },
        {
          "indexed": true,
          "internalType": "uint256",
          "name": "tokenId",
          "type": "uint256"
        }
      ],
      "name": "Revoke",
      "type": "event"
    },
    {
      "anonymous": false,
      "inputs": [
        {
          "indexed": true,
          "internalType": "address",
          "name": "from",
          "type": "address"
        },
        {
          "indexed": true,
          "internalType": "address",
          "name": "to",
          "type": "address"
        },
        {
          "indexed": true,
          "internalType": "uint256",
          "name": "tokenId",
          "type": "uint256"
        }
      ],
      "name": "Transfer",
      "type": "event"
    },
    {
      "inputs": [
        {
          "internalType": "address",
          "name": "to",
          "type": "address"
        },
        {
          "internalType": "uint256",
          "name": "tokenId",
          "type": "uint256"
        }
      ],
      "name": "approve",
      "outputs": [],
      "stateMutability": "nonpayable",
      "type": "function"
    },
    {
      "inputs": [
        {
          "internalType": "address",
          "name": "owner",
          "type": "address"
        }
      ],
      "name": "balanceOf",
      "outputs": [
        {
          "internalType": "uint256",
          "name": "",
          "type": "uint256"
        }
      ],
      "stateMutability": "view",
      "type": "function",
      "constant": true
    },
    {
      "inputs": [
        {
          "internalType": "uint256",
          "name": "tokenId",
          "type": "uint256"
        }
      ],
      "name": "getApproved",
      "outputs": [
        {
          "internalType": "address",
          "name": "",
          "type": "address"
        }
      ],
      "stateMutability": "view",
      "type": "function",
      "constant": true
    },
    {
      "inputs": [
        {
          "internalType": "address",
          "name": "owner",
          "type": "address"
        },
        {
          "internalType": "address",
          "name": "operator",
          "type": "address"
        }
      ],
      "name": "isApprovedForAll",
      "outputs": [
        {
          "internalType": "bool",
          "name": "",
          "type": "bool"
        }
      ],
      "stateMutability": "view",
      "type": "function",
      "constant": true
    },
    {
      "inputs": [],
      "name": "name",
      "outputs": [
        {
          "internalType": "string",
          "name": "",
          "type": "string"
        }
      ],
      "stateMutability": "view",
      "type": "function",
      "constant": true
    },
    {
      "inputs": [],
      "name": "owner",
      "outputs": [
        {
          "internalType": "address",
          "name": "",
          "type": "address"
        }
      ],
      "stateMutability": "view",
      "type": "function",
      "constant": true
    },
    {
      "inputs": [
        {
          "internalType": "uint256",
          "name": "tokenId",
          "type": "uint256"
        }
      ],
      "name": "ownerOf",
      "outputs": [
        {
          "internalType": "address",
          "name": "",
          "type": "address"
        }
      ],
      "stateMutability": "view",
      "type": "function",
      "constant": true
    },
    {
      "inputs": [],
      "name": "renounceOwnership",
      "outputs": [],
      "stateMutability": "nonpayable",
      "type": "function"
    },
    {
      "inputs": [
        {
          "internalType": "address",
          "name": "from",
          "type": "address"
        },
        {
          "internalType": "address",
          "name": "to",
          "type": "address"
        },
        {
          "internalType": "uint256",
          "name": "tokenId",
          "type": "uint256"
        }
      ],
      "name": "safeTransferFrom",
      "outputs": [],
      "stateMutability": "nonpayable",
      "type": "function"
    },
    {
      "inputs": [
        {
          "internalType": "address",
          "name": "from",
          "type": "address"
        },
        {
          "internalType": "address",
          "name": "to",
          "type": "address"
        },
        {
          "internalType": "uint256",
          "name": "tokenId",
          "type": "uint256"
        },
        {
          "internalType": "bytes",
          "name": "data",
          "type": "bytes"
        }
      ],
      "name": "safeTransferFrom",
      "outputs": [],
      "stateMutability": "nonpayable",
      "type": "function"
    },
    {
      "inputs": [
        {
          "internalType": "address",
          "name": "operator",
          "type": "address"
        },
        {
          "internalType": "bool",
          "name": "approved",
          "type": "bool"
        }
      ],
      "name": "setApprovalForAll",
      "outputs": [],
      "stateMutability": "nonpayable",
      "type": "function"
    },
    {
      "inputs": [],
      "name": "symbol",
      "outputs": [
        {
          "internalType": "string",
          "name": "",
          "type": "string"
        }
      ],
      "stateMutability": "view",
      "type": "function",
      "constant": true
    },
    {
      "inputs": [
        {
          "internalType": "uint256",
          "name": "index",
          "type": "uint256"
        }
      ],
      "name": "tokenByIndex",
      "outputs": [
        {
          "internalType": "uint256",
          "name": "",
          "type": "uint256"
        }
      ],
      "stateMutability": "view",
      "type": "function",
      "constant": true
    },
    {
      "inputs": [
        {
          "internalType": "address",
          "name": "owner",
          "type": "address"
        },
        {
          "internalType": "uint256",
          "name": "index",
          "type": "uint256"
        }
      ],
      "name": "tokenOfOwnerByIndex",
      "outputs": [
        {
          "internalType": "uint256",
          "name": "",
          "type": "uint256"
        }
      ],
      "stateMutability": "view",
      "type": "function",
      "constant": true
    },
    {
      "inputs": [],
      "name": "totalSupply",
      "outputs": [
        {
          "internalType": "uint256",
          "name": "",
          "type": "uint256"
        }
      ],
      "stateMutability": "view",
      "type": "function",
      "constant": true
    },
    {
      "inputs": [
        {
          "internalType": "address",
          "name": "from",
          "type": "address"
        },
        {
          "internalType": "address",
          "name": "to",
          "type": "address"
        },
        {
          "internalType": "uint256",
          "name": "tokenId",
          "type": "uint256"
        }
      ],
      "name": "transferFrom",
      "outputs": [],
      "stateMutability": "nonpayable",
      "type": "function"
    },
    {
      "inputs": [
        {
          "internalType": "address",
          "name": "newOwner",
          "type": "address"
        }
      ],
      "name": "transferOwnership",
      "outputs": [],
      "stateMutability": "nonpayable",
      "type": "function"
    },
    {
      "inputs": [
        {
          "internalType": "address",
          "name": "to",
          "type": "address"
        },
        {
          "internalType": "string",
          "name": "uri",
          "type": "string"
        }
      ],
      "name": "safeMint",
      "outputs": [],
      "stateMutability": "nonpayable",
      "type": "function"
    },
    {
      "inputs": [
        {
          "internalType": "uint256",
          "name": "tokenId",
          "type": "uint256"
        }
      ],
      "name": "burn",
      "outputs": [],
      "stateMutability": "nonpayable",
      "type": "function"
    },
    {
      "inputs": [
        {
          "internalType": "uint256",
          "name": "tokenId",
          "type": "uint256"
        }
      ],
      "name": "revoke",
      "outputs": [],
      "stateMutability": "nonpayable",
      "type": "function"
    },
    {
      "inputs": [
        {
          "internalType": "uint256",
          "name": "tokenId",
          "type": "uint256"
        }
      ],
      "name": "tokenURI",
      "outputs": [
        {
          "internalType": "string",
          "name": "",
          "type": "string"
        }
      ],
      "stateMutability": "view",
      "type": "function",
      "constant": true
    },
    {
      "inputs": [
        {
          "internalType": "bytes4",
          "name": "interfaceId",
          "type": "bytes4"
        }
      ],
      "name": "supportsInterface",
      "outputs": [
        {
          "internalType": "bool",
          "name": "",
          "type": "bool"
        }
      ],
      "stateMutability": "view",
      "type": "function",
      "constant": true
    }
  ],
  "bytecode": "0x60806040523480156200001157600080fd5b506040518060400160405280600b81526020017f536f756c626f756e6465720000000000000000000000000000000000000000008152506040518060400160405280600381526020017f5342540000000000000000000000000000000000000000000000000000000000815250816000908051906020019062000096929190620001a6565b508060019080519060200190620000af929190620001a6565b505050620000d2620000c6620000d860201b60201c565b620000e060201b60201c565b620002bb565b600033905090565b6000600b60009054906101000a900473ffffffffffffffffffffffffffffffffffffffff16905081600b60006101000a81548173ffffffffffffffffffffffffffffffffffffffff021916908373ffffffffffffffffffffffffffffffffffffffff1602179055508173ffffffffffffffffffffffffffffffffffffffff168173ffffffffffffffffffffffffffffffffffffffff167f8be0079c531659141344cd1fd0a4f28419497f9722a3daafe3b4186f6b6457e060405160405180910390a35050565b828054620001b49062000285565b90600052602060002090601f016020900481019282620001d8576000855562000224565b82601f10620001f357805160ff191683800117855562000224565b8280016001018555821562000224579182015b828111156200022357825182559160200191906001019062000206565b5b50905062000233919062000237565b5090565b5b808211156200025257600081600090555060010162000238565b5090565b7f4e487b7100000000000000000000000000000000000000000000000000000000600052602260045260246000fd5b600060028204905060018216806200029e57607f821691505b60208210811415620002b557620002b462000256565b5b50919050565b613af580620002cb6000396000f3fe608060405234801561001057600080fd5b50600436106101425760003560e01c80636352211e116100b8578063a22cb4651161007c578063a22cb46514610375578063b88d4fde14610391578063c87b56dd146103ad578063d204c45e146103dd578063e985e9c5146103f9578063f2fde38b1461042957610142565b80636352211e146102cf57806370a08231146102ff578063715018a61461032f5780638da5cb5b1461033957806395d89b411461035757610142565b806320c5429b1161010a57806320c5429b146101ff57806323b872dd1461021b5780632f745c591461023757806342842e0e1461026757806342966c68146102835780634f6ccce71461029f57610142565b806301ffc9a71461014757806306fdde0314610177578063081812fc14610195578063095ea7b3146101c557806318160ddd146101e1575b600080fd5b610161600480360381019061015c919061280b565b610445565b60405161016e9190612853565b60405180910390f35b61017f610457565b60405161018c9190612907565b60405180910390f35b6101af60048036038101906101aa919061295f565b6104e9565b6040516101bc91906129cd565b60405180910390f35b6101df60048036038101906101da9190612a14565b61052f565b005b6101e9610647565b6040516101f69190612a63565b60405180910390f35b6102196004803603810190610214919061295f565b610654565b005b61023560048036038101906102309190612a7e565b610660565b005b610251600480360381019061024c9190612a14565b6106c0565b60405161025e9190612a63565b60405180910390f35b610281600480360381019061027c9190612a7e565b610765565b005b61029d6004803603810190610298919061295f565b610785565b005b6102b960048036038101906102b4919061295f565b610807565b6040516102c69190612a63565b60405180910390f35b6102e960048036038101906102e4919061295f565b610878565b6040516102f691906129cd565b60405180910390f35b61031960048036038101906103149190612ad1565b6108ff565b6040516103269190612a63565b60405180910390f35b6103376109b7565b005b6103416109cb565b60405161034e91906129cd565b60405180910390f35b61035f6109f5565b60405161036c9190612907565b60405180910390f35b61038f600480360381019061038a9190612b2a565b610a87565b005b6103ab60048036038101906103a69190612c9f565b610a9d565b005b6103c760048036038101906103c2919061295f565b610aff565b6040516103d49190612907565b60405180910390f35b6103f760048036038101906103f29190612dc3565b610b11565b005b610413600480360381019061040e9190612e1f565b610b42565b6040516104209190612853565b60405180910390f35b610443600480360381019061043e9190612ad1565b610bd6565b005b600061045082610c5a565b9050919050565b60606000805461046690612e8e565b80601f016020809104026020016040519081016040528092919081815260200182805461049290612e8e565b80156104df5780601f106104b4576101008083540402835291602001916104df565b820191906000526020600020905b8154815290600101906020018083116104c257829003601f168201915b5050505050905090565b60006104f482610cd4565b6004600083815260200190815260200160002060009054906101000a900473ffffffffffffffffffffffffffffffffffffffff169050919050565b600061053a82610878565b90508073ffffffffffffffffffffffffffffffffffffffff168373ffffffffffffffffffffffffffffffffffffffff1614156105ab576040517f08c379a00000000000000000000000000000000000000000000000000000000081526004016105a290612f32565b60405180910390fd5b8073ffffffffffffffffffffffffffffffffffffffff166105ca610d1f565b73ffffffffffffffffffffffffffffffffffffffff1614806105f957506105f8816105f3610d1f565b610b42565b5b610638576040517f08c379a000000000000000000000000000000000000000000000000000000000815260040161062f90612fc4565b60405180910390fd5b6106428383610d27565b505050565b6000600880549050905090565b61065d81610de0565b50565b61067161066b610d1f565b82610dec565b6106b0576040517f08c379a00000000000000000000000000000000000000000000000000000000081526004016106a790613056565b60405180910390fd5b6106bb838383610e81565b505050565b60006106cb836108ff565b821061070c576040517f08c379a0000000000000000000000000000000000000000000000000000000008152600401610703906130e8565b60405180910390fd5b600660008473ffffffffffffffffffffffffffffffffffffffff1673ffffffffffffffffffffffffffffffffffffffff168152602001908152602001600020600083815260200190815260200160002054905092915050565b61078083838360405180602001604052806000815250610a9d565b505050565b3373ffffffffffffffffffffffffffffffffffffffff166107a582610878565b73ffffffffffffffffffffffffffffffffffffffff16146107fb576040517f08c379a00000000000000000000000000000000000000000000000000000000081526004016107f290613154565b60405180910390fd5b61080481610de0565b50565b6000610811610647565b8210610852576040517f08c379a0000000000000000000000000000000000000000000000000000000008152600401610849906131e6565b60405180910390fd5b6008828154811061086657610865613206565b5b90600052602060002001549050919050565b6000806108848361117b565b9050600073ffffffffffffffffffffffffffffffffffffffff168173ffffffffffffffffffffffffffffffffffffffff1614156108f6576040517f08c379a00000000000000000000000000000000000000000000000000000000081526004016108ed90613281565b60405180910390fd5b80915050919050565b60008073ffffffffffffffffffffffffffffffffffffffff168273ffffffffffffffffffffffffffffffffffffffff161415610970576040517f08c379a000000000000000000000000000000000000000000000000000000000815260040161096790613313565b60405180910390fd5b600360008373ffffffffffffffffffffffffffffffffffffffff1673ffffffffffffffffffffffffffffffffffffffff168152602001908152602001600020549050919050565b6109bf6111b8565b6109c96000611236565b565b6000600b60009054906101000a900473ffffffffffffffffffffffffffffffffffffffff16905090565b606060018054610a0490612e8e565b80601f0160208091040260200160405190810160405280929190818152602001828054610a3090612e8e565b8015610a7d5780601f10610a5257610100808354040283529160200191610a7d565b820191906000526020600020905b815481529060010190602001808311610a6057829003601f168201915b5050505050905090565b610a99610a92610d1f565b83836112fc565b5050565b610aae610aa8610d1f565b83610dec565b610aed576040517f08c379a0000000000000000000000000000000000000000000000000000000008152600401610ae490613056565b60405180910390fd5b610af984848484611469565b50505050565b6060610b0a826114c5565b9050919050565b6000610b1d600c6115d8565b9050610b29600c6115e6565b610b3383826115fc565b610b3d818361161a565b505050565b6000600560008473ffffffffffffffffffffffffffffffffffffffff1673ffffffffffffffffffffffffffffffffffffffff16815260200190815260200160002060008373ffffffffffffffffffffffffffffffffffffffff1673ffffffffffffffffffffffffffffffffffffffff16815260200190815260200160002060009054906101000a900460ff16905092915050565b610bde6111b8565b600073ffffffffffffffffffffffffffffffffffffffff168173ffffffffffffffffffffffffffffffffffffffff161415610c4e576040517f08c379a0000000000000000000000000000000000000000000000000000000008152600401610c45906133a5565b60405180910390fd5b610c5781611236565b50565b60007f780e9d63000000000000000000000000000000000000000000000000000000007bffffffffffffffffffffffffffffffffffffffffffffffffffffffff1916827bffffffffffffffffffffffffffffffffffffffffffffffffffffffff19161480610ccd5750610ccc8261168e565b5b9050919050565b610cdd81611770565b610d1c576040517f08c379a0000000000000000000000000000000000000000000000000000000008152600401610d1390613281565b60405180910390fd5b50565b600033905090565b816004600083815260200190815260200160002060006101000a81548173ffffffffffffffffffffffffffffffffffffffff021916908373ffffffffffffffffffffffffffffffffffffffff160217905550808273ffffffffffffffffffffffffffffffffffffffff16610d9a83610878565b73ffffffffffffffffffffffffffffffffffffffff167f8c5be1e5ebec7d5bd14f71427d1e84f3dd0314c0f7b2291e5b200ac8c7c3b92560405160405180910390a45050565b610de9816117b1565b50565b600080610df883610878565b90508073ffffffffffffffffffffffffffffffffffffffff168473ffffffffffffffffffffffffffffffffffffffff161480610e3a5750610e398185610b42565b5b80610e7857508373ffffffffffffffffffffffffffffffffffffffff16610e60846104e9565b73ffffffffffffffffffffffffffffffffffffffff16145b91505092915050565b8273ffffffffffffffffffffffffffffffffffffffff16610ea182610878565b73ffffffffffffffffffffffffffffffffffffffff1614610ef7576040517f08c379a0000000000000000000000000000000000000000000000000000000008152600401610eee90613437565b60405180910390fd5b600073ffffffffffffffffffffffffffffffffffffffff168273ffffffffffffffffffffffffffffffffffffffff161415610f67576040517f08c379a0000000000000000000000000000000000000000000000000000000008152600401610f5e906134c9565b60405180910390fd5b610f748383836001611804565b8273ffffffffffffffffffffffffffffffffffffffff16610f9482610878565b73ffffffffffffffffffffffffffffffffffffffff1614610fea576040517f08c379a0000000000000000000000000000000000000000000000000000000008152600401610fe190613437565b60405180910390fd5b6004600082815260200190815260200160002060006101000a81549073ffffffffffffffffffffffffffffffffffffffff02191690556001600360008573ffffffffffffffffffffffffffffffffffffffff1673ffffffffffffffffffffffffffffffffffffffff168152602001908152602001600020600082825403925050819055506001600360008473ffffffffffffffffffffffffffffffffffffffff1673ffffffffffffffffffffffffffffffffffffffff16815260200190815260200160002060008282540192505081905550816002600083815260200190815260200160002060006101000a81548173ffffffffffffffffffffffffffffffffffffffff021916908373ffffffffffffffffffffffffffffffffffffffff160217905550808273ffffffffffffffffffffffffffffffffffffffff168473ffffffffffffffffffffffffffffffffffffffff167fddf252ad1be2c89b69c2b068fc378daa952ba7f163c4a11628f55a4df523b3ef60405160405180910390a461117683838360016118bc565b505050565b60006002600083815260200190815260200160002060009054906101000a900473ffffffffffffffffffffffffffffffffffffffff169050919050565b6111c0610d1f565b73ffffffffffffffffffffffffffffffffffffffff166111de6109cb565b73ffffffffffffffffffffffffffffffffffffffff1614611234576040517f08c379a000000000000000000000000000000000000000000000000000000000815260040161122b90613535565b60405180910390fd5b565b6000600b60009054906101000a900473ffffffffffffffffffffffffffffffffffffffff16905081600b60006101000a81548173ffffffffffffffffffffffffffffffffffffffff021916908373ffffffffffffffffffffffffffffffffffffffff1602179055508173ffffffffffffffffffffffffffffffffffffffff168173ffffffffffffffffffffffffffffffffffffffff167f8be0079c531659141344cd1fd0a4f28419497f9722a3daafe3b4186f6b6457e060405160405180910390a35050565b8173ffffffffffffffffffffffffffffffffffffffff168373ffffffffffffffffffffffffffffffffffffffff16141561136b576040517f08c379a0000000000000000000000000000000000000000000000000000000008152600401611362906135a1565b60405180910390fd5b80600560008573ffffffffffffffffffffffffffffffffffffffff1673ffffffffffffffffffffffffffffffffffffffff16815260200190815260200160002060008473ffffffffffffffffffffffffffffffffffffffff1673ffffffffffffffffffffffffffffffffffffffff16815260200190815260200160002060006101000a81548160ff0219169083151502179055508173ffffffffffffffffffffffffffffffffffffffff168373ffffffffffffffffffffffffffffffffffffffff167f17307eab39ab6107e8899845ad3d59bd9653f200f220920489ca2b5937696c318360405161145c9190612853565b60405180910390a3505050565b611474848484610e81565b611480848484846119bb565b6114bf576040517f08c379a00000000000000000000000000000000000000000000000000000000081526004016114b690613633565b60405180910390fd5b50505050565b60606114d082610cd4565b6000600a600084815260200190815260200160002080546114f090612e8e565b80601f016020809104026020016040519081016040528092919081815260200182805461151c90612e8e565b80156115695780601f1061153e57610100808354040283529160200191611569565b820191906000526020600020905b81548152906001019060200180831161154c57829003601f168201915b50505050509050600061157a611b52565b90506000815114156115905781925050506115d3565b6000825111156115c55780826040516020016115ad92919061368f565b604051602081830303815290604052925050506115d3565b6115ce84611b69565b925050505b919050565b600081600001549050919050565b6001816000016000828254019250508190555050565b611616828260405180602001604052806000815250611bd1565b5050565b61162382611770565b611662576040517f08c379a000000000000000000000000000000000000000000000000000000000815260040161165990613725565b60405180910390fd5b80600a600084815260200190815260200160002090805190602001906116899291906126bc565b505050565b60007f80ac58cd000000000000000000000000000000000000000000000000000000007bffffffffffffffffffffffffffffffffffffffffffffffffffffffff1916827bffffffffffffffffffffffffffffffffffffffffffffffffffffffff1916148061175957507f5b5e139f000000000000000000000000000000000000000000000000000000007bffffffffffffffffffffffffffffffffffffffffffffffffffffffff1916827bffffffffffffffffffffffffffffffffffffffffffffffffffffffff1916145b80611769575061176882611c2c565b5b9050919050565b60008073ffffffffffffffffffffffffffffffffffffffff166117928361117b565b73ffffffffffffffffffffffffffffffffffffffff1614159050919050565b6117ba81611c96565b6000600a600083815260200190815260200160002080546117da90612e8e565b90501461180157600a600082815260200190815260200160002060006118009190612742565b5b50565b600073ffffffffffffffffffffffffffffffffffffffff168473ffffffffffffffffffffffffffffffffffffffff16148061186b5750600073ffffffffffffffffffffffffffffffffffffffff168373ffffffffffffffffffffffffffffffffffffffff16145b6118aa576040517f08c379a00000000000000000000000000000000000000000000000000000000081526004016118a190613791565b60405180910390fd5b6118b684848484611de4565b50505050565b600073ffffffffffffffffffffffffffffffffffffffff168473ffffffffffffffffffffffffffffffffffffffff16141561193a57818373ffffffffffffffffffffffffffffffffffffffff167fe9274a84b19e9428826de6bae8c48329354f8f0e73f771b97cae2d9dccd45a2760405160405180910390a36119b5565b600073ffffffffffffffffffffffffffffffffffffffff168373ffffffffffffffffffffffffffffffffffffffff1614156119b457818373ffffffffffffffffffffffffffffffffffffffff167fec9ab91322523c899ede7830ec9bfc992b5981cdcc27b91162fb23de5791117b60405160405180910390a35b5b50505050565b60006119dc8473ffffffffffffffffffffffffffffffffffffffff16611f44565b15611b45578373ffffffffffffffffffffffffffffffffffffffff1663150b7a02611a05610d1f565b8786866040518563ffffffff1660e01b8152600401611a279493929190613806565b602060405180830381600087803b158015611a4157600080fd5b505af1925050508015611a7257506040513d601f19601f82011682018060405250810190611a6f9190613867565b60015b611af5573d8060008114611aa2576040519150601f19603f3d011682016040523d82523d6000602084013e611aa7565b606091505b50600081511415611aed576040517f08c379a0000000000000000000000000000000000000000000000000000000008152600401611ae490613633565b60405180910390fd5b805181602001fd5b63150b7a0260e01b7bffffffffffffffffffffffffffffffffffffffffffffffffffffffff1916817bffffffffffffffffffffffffffffffffffffffffffffffffffffffff191614915050611b4a565b600190505b949350505050565b606060405180602001604052806000815250905090565b6060611b7482610cd4565b6000611b7e611b52565b90506000815111611b9e5760405180602001604052806000815250611bc9565b80611ba884611f67565b604051602001611bb992919061368f565b6040516020818303038152906040525b915050919050565b611bdb838361203f565b611be860008484846119bb565b611c27576040517f08c379a0000000000000000000000000000000000000000000000000000000008152600401611c1e90613633565b60405180910390fd5b505050565b60007f01ffc9a7000000000000000000000000000000000000000000000000000000007bffffffffffffffffffffffffffffffffffffffffffffffffffffffff1916827bffffffffffffffffffffffffffffffffffffffffffffffffffffffff1916149050919050565b6000611ca182610878565b9050611cb1816000846001611804565b611cba82610878565b90506004600083815260200190815260200160002060006101000a81549073ffffffffffffffffffffffffffffffffffffffff02191690556001600360008373ffffffffffffffffffffffffffffffffffffffff1673ffffffffffffffffffffffffffffffffffffffff168152602001908152602001600020600082825403925050819055506002600083815260200190815260200160002060006101000a81549073ffffffffffffffffffffffffffffffffffffffff021916905581600073ffffffffffffffffffffffffffffffffffffffff168273ffffffffffffffffffffffffffffffffffffffff167fddf252ad1be2c89b69c2b068fc378daa952ba7f163c4a11628f55a4df523b3ef60405160405180910390a4611de08160008460016118bc565b5050565b611df08484848461225d565b6001811115611e34576040517f08c379a0000000000000000000000000000000000000000000000000000000008152600401611e2b90613906565b60405180910390fd5b6000829050600073ffffffffffffffffffffffffffffffffffffffff168573ffffffffffffffffffffffffffffffffffffffff161415611e7c57611e7781612263565b611ebb565b8373ffffffffffffffffffffffffffffffffffffffff168573ffffffffffffffffffffffffffffffffffffffff1614611eba57611eb985826122ac565b5b5b600073ffffffffffffffffffffffffffffffffffffffff168473ffffffffffffffffffffffffffffffffffffffff161415611efe57611ef981612419565b611f3d565b8473ffffffffffffffffffffffffffffffffffffffff168473ffffffffffffffffffffffffffffffffffffffff1614611f3c57611f3b84826124ea565b5b5b5050505050565b6000808273ffffffffffffffffffffffffffffffffffffffff163b119050919050565b606060006001611f7684612569565b01905060008167ffffffffffffffff811115611f9557611f94612b74565b5b6040519080825280601f01601f191660200182016040528015611fc75781602001600182028036833780820191505090505b509050600082602001820190505b600115612034578080600190039150507f3031323334353637383961626364656600000000000000000000000000000000600a86061a8153600a858161201e5761201d613926565b5b049450600085141561202f57612034565b611fd5565b819350505050919050565b600073ffffffffffffffffffffffffffffffffffffffff168273ffffffffffffffffffffffffffffffffffffffff1614156120af576040517f08c379a00000000000000000000000000000000000000000000000000000000081526004016120a6906139a1565b60405180910390fd5b6120b881611770565b156120f8576040517f08c379a00000000000000000000000000000000000000000000000000000000081526004016120ef90613a0d565b60405180910390fd5b612106600083836001611804565b61210f81611770565b1561214f576040517f08c379a000000000000000000000000000000000000000000000000000000000815260040161214690613a0d565b60405180910390fd5b6001600360008473ffffffffffffffffffffffffffffffffffffffff1673ffffffffffffffffffffffffffffffffffffffff16815260200190815260200160002060008282540192505081905550816002600083815260200190815260200160002060006101000a81548173ffffffffffffffffffffffffffffffffffffffff021916908373ffffffffffffffffffffffffffffffffffffffff160217905550808273ffffffffffffffffffffffffffffffffffffffff16600073ffffffffffffffffffffffffffffffffffffffff167fddf252ad1be2c89b69c2b068fc378daa952ba7f163c4a11628f55a4df523b3ef60405160405180910390a46122596000838360016118bc565b5050565b50505050565b6008805490506009600083815260200190815260200160002081905550600881908060018154018082558091505060019003906000526020600020016000909190919091505550565b600060016122b9846108ff565b6122c39190613a5c565b90506000600760008481526020019081526020016000205490508181146123a8576000600660008673ffffffffffffffffffffffffffffffffffffffff1673ffffffffffffffffffffffffffffffffffffffff168152602001908152602001600020600084815260200190815260200160002054905080600660008773ffffffffffffffffffffffffffffffffffffffff1673ffffffffffffffffffffffffffffffffffffffff168152602001908152602001600020600084815260200190815260200160002081905550816007600083815260200190815260200160002081905550505b6007600084815260200190815260200160002060009055600660008573ffffffffffffffffffffffffffffffffffffffff1673ffffffffffffffffffffffffffffffffffffffff16815260200190815260200160002060008381526020019081526020016000206000905550505050565b6000600160088054905061242d9190613a5c565b905060006009600084815260200190815260200160002054905060006008838154811061245d5761245c613206565b5b90600052602060002001549050806008838154811061247f5761247e613206565b5b9060005260206000200181905550816009600083815260200190815260200160002081905550600960008581526020019081526020016000206000905560088054806124ce576124cd613a90565b5b6001900381819060005260206000200160009055905550505050565b60006124f5836108ff565b905081600660008573ffffffffffffffffffffffffffffffffffffffff1673ffffffffffffffffffffffffffffffffffffffff168152602001908152602001600020600083815260200190815260200160002081905550806007600084815260200190815260200160002081905550505050565b600080600090507a184f03e93ff9f4daa797ed6e38ed64bf6a1f01000000000000000083106125c7577a184f03e93ff9f4daa797ed6e38ed64bf6a1f01000000000000000083816125bd576125bc613926565b5b0492506040810190505b6d04ee2d6d415b85acef81000000008310612604576d04ee2d6d415b85acef810000000083816125fa576125f9613926565b5b0492506020810190505b662386f26fc10000831061263357662386f26fc10000838161262957612628613926565b5b0492506010810190505b6305f5e100831061265c576305f5e100838161265257612651613926565b5b0492506008810190505b612710831061268157612710838161267757612676613926565b5b0492506004810190505b606483106126a4576064838161269a57612699613926565b5b0492506002810190505b600a83106126b3576001810190505b80915050919050565b8280546126c890612e8e565b90600052602060002090601f0160209004810192826126ea5760008555612731565b82601f1061270357805160ff1916838001178555612731565b82800160010185558215612731579182015b82811115612730578251825591602001919060010190612715565b5b50905061273e9190612782565b5090565b50805461274e90612e8e565b6000825580601f10612760575061277f565b601f01602090049060005260206000209081019061277e9190612782565b5b50565b5b8082111561279b576000816000905550600101612783565b5090565b6000604051905090565b600080fd5b600080fd5b60007fffffffff0000000000000000000000000000000000000000000000000000000082169050919050565b6127e8816127b3565b81146127f357600080fd5b50565b600081359050612805816127df565b92915050565b600060208284031215612821576128206127a9565b5b600061282f848285016127f6565b91505092915050565b60008115159050919050565b61284d81612838565b82525050565b60006020820190506128686000830184612844565b92915050565b600081519050919050565b600082825260208201905092915050565b60005b838110156128a857808201518184015260208101905061288d565b838111156128b7576000848401525b50505050565b6000601f19601f8301169050919050565b60006128d98261286e565b6128e38185612879565b93506128f381856020860161288a565b6128fc816128bd565b840191505092915050565b6000602082019050818103600083015261292181846128ce565b905092915050565b6000819050919050565b61293c81612929565b811461294757600080fd5b50565b60008135905061295981612933565b92915050565b600060208284031215612975576129746127a9565b5b60006129838482850161294a565b91505092915050565b600073ffffffffffffffffffffffffffffffffffffffff82169050919050565b60006129b78261298c565b9050919050565b6129c7816129ac565b82525050565b60006020820190506129e260008301846129be565b92915050565b6129f1816129ac565b81146129fc57600080fd5b50565b600081359050612a0e816129e8565b92915050565b60008060408385031215612a2b57612a2a6127a9565b5b6000612a39858286016129ff565b9250506020612a4a8582860161294a565b9150509250929050565b612a5d81612929565b82525050565b6000602082019050612a786000830184612a54565b92915050565b600080600060608486031215612a9757612a966127a9565b5b6000612aa5868287016129ff565b9350506020612ab6868287016129ff565b9250506040612ac78682870161294a565b9150509250925092565b600060208284031215612ae757612ae66127a9565b5b6000612af5848285016129ff565b91505092915050565b612b0781612838565b8114612b1257600080fd5b50565b600081359050612b2481612afe565b92915050565b60008060408385031215612b4157612b406127a9565b5b6000612b4f858286016129ff565b9250506020612b6085828601612b15565b9150509250929050565b600080fd5b600080fd5b7f4e487b7100000000000000000000000000000000000000000000000000000000600052604160045260246000fd5b612bac826128bd565b810181811067ffffffffffffffff82111715612bcb57612bca612b74565b5b80604052505050565b6000612bde61279f565b9050612bea8282612ba3565b919050565b600067ffffffffffffffff821115612c0a57612c09612b74565b5b612c13826128bd565b9050602081019050919050565b82818337600083830152505050565b6000612c42612c3d84612bef565b612bd4565b905082815260208101848484011115612c5e57612c5d612b6f565b5b612c69848285612c20565b509392505050565b600082601f830112612c8657612c85612b6a565b5b8135612c96848260208601612c2f565b91505092915050565b60008060008060808587031215612cb957612cb86127a9565b5b6000612cc7878288016129ff565b9450506020612cd8878288016129ff565b9350506040612ce98782880161294a565b925050606085013567ffffffffffffffff811115612d0a57612d096127ae565b5b612d1687828801612c71565b91505092959194509250565b600067ffffffffffffffff821115612d3d57612d3c612b74565b5b612d46826128bd565b9050602081019050919050565b6000612d66612d6184612d22565b612bd4565b905082815260208101848484011115612d8257612d81612b6f565b5b612d8d848285612c20565b509392505050565b600082601f830112612daa57612da9612b6a565b5b8135612dba848260208601612d53565b91505092915050565b60008060408385031215612dda57612dd96127a9565b5b6000612de8858286016129ff565b925050602083013567ffffffffffffffff811115612e0957612e086127ae565b5b612e1585828601612d95565b9150509250929050565b60008060408385031215612e3657612e356127a9565b5b6000612e44858286016129ff565b9250506020612e55858286016129ff565b9150509250929050565b7f4e487b7100000000000000000000000000000000000000000000000000000000600052602260045260246000fd5b60006002820490506001821680612ea657607f821691505b60208210811415612eba57612eb9612e5f565b5b50919050565b7f4552433732313a20617070726f76616c20746f2063757272656e74206f776e6560008201527f7200000000000000000000000000000000000000000000000000000000000000602082015250565b6000612f1c602183612879565b9150612f2782612ec0565b604082019050919050565b60006020820190508181036000830152612f4b81612f0f565b9050919050565b7f4552433732313a20617070726f76652063616c6c6572206973206e6f7420746f60008201527f6b656e206f776e6572206f7220617070726f76656420666f7220616c6c000000602082015250565b6000612fae603d83612879565b9150612fb982612f52565b604082019050919050565b60006020820190508181036000830152612fdd81612fa1565b9050919050565b7f4552433732313a2063616c6c6572206973206e6f7420746f6b656e206f776e6560008201527f72206f7220617070726f76656400000000000000000000000000000000000000602082015250565b6000613040602d83612879565b915061304b82612fe4565b604082019050919050565b6000602082019050818103600083015261306f81613033565b9050919050565b7f455243373231456e756d657261626c653a206f776e657220696e646578206f7560008201527f74206f6620626f756e6473000000000000000000000000000000000000000000602082015250565b60006130d2602b83612879565b91506130dd82613076565b604082019050919050565b60006020820190508181036000830152613101816130c5565b9050919050565b7f4f6e6c7920746f6b656e206f776e65722063616e206275726e20697400000000600082015250565b600061313e601c83612879565b915061314982613108565b602082019050919050565b6000602082019050818103600083015261316d81613131565b9050919050565b7f455243373231456e756d657261626c653a20676c6f62616c20696e646578206f60008201527f7574206f6620626f756e64730000000000000000000000000000000000000000602082015250565b60006131d0602c83612879565b91506131db82613174565b604082019050919050565b600060208201905081810360008301526131ff816131c3565b9050919050565b7f4e487b7100000000000000000000000000000000000000000000000000000000600052603260045260246000fd5b7f4552433732313a20696e76616c696420746f6b656e2049440000000000000000600082015250565b600061326b601883612879565b915061327682613235565b602082019050919050565b6000602082019050818103600083015261329a8161325e565b9050919050565b7f4552433732313a2061646472657373207a65726f206973206e6f74206120766160008201527f6c6964206f776e65720000000000000000000000000000000000000000000000602082015250565b60006132fd602983612879565b9150613308826132a1565b604082019050919050565b6000602082019050818103600083015261332c816132f0565b9050919050565b7f4f776e61626c653a206e6577206f776e657220697320746865207a65726f206160008201527f6464726573730000000000000000000000000000000000000000000000000000602082015250565b600061338f602683612879565b915061339a82613333565b604082019050919050565b600060208201905081810360008301526133be81613382565b9050919050565b7f4552433732313a207472616e736665722066726f6d20696e636f72726563742060008201527f6f776e6572000000000000000000000000000000000000000000000000000000602082015250565b6000613421602583612879565b915061342c826133c5565b604082019050919050565b6000602082019050818103600083015261345081613414565b9050919050565b7f4552433732313a207472616e7366657220746f20746865207a65726f2061646460008201527f7265737300000000000000000000000000000000000000000000000000000000602082015250565b60006134b3602483612879565b91506134be82613457565b604082019050919050565b600060208201905081810360008301526134e2816134a6565b9050919050565b7f4f776e61626c653a2063616c6c6572206973206e6f7420746865206f776e6572600082015250565b600061351f602083612879565b915061352a826134e9565b602082019050919050565b6000602082019050818103600083015261354e81613512565b9050919050565b7f4552433732313a20617070726f766520746f2063616c6c657200000000000000600082015250565b600061358b601983612879565b915061359682613555565b602082019050919050565b600060208201905081810360008301526135ba8161357e565b9050919050565b7f4552433732313a207472616e7366657220746f206e6f6e20455243373231526560008201527f63656976657220696d706c656d656e7465720000000000000000000000000000602082015250565b600061361d603283612879565b9150613628826135c1565b604082019050919050565b6000602082019050818103600083015261364c81613610565b9050919050565b600081905092915050565b60006136698261286e565b6136738185613653565b935061368381856020860161288a565b80840191505092915050565b600061369b828561365e565b91506136a7828461365e565b91508190509392505050565b7f45524337323155524953746f726167653a2055524920736574206f66206e6f6e60008201527f6578697374656e7420746f6b656e000000000000000000000000000000000000602082015250565b600061370f602e83612879565b915061371a826136b3565b604082019050919050565b6000602082019050818103600083015261373e81613702565b9050919050565b7f596f752063616e2774207472616e73666572207468697320746f6b656e000000600082015250565b600061377b601d83612879565b915061378682613745565b602082019050919050565b600060208201905081810360008301526137aa8161376e565b9050919050565b600081519050919050565b600082825260208201905092915050565b60006137d8826137b1565b6137e281856137bc565b93506137f281856020860161288a565b6137fb816128bd565b840191505092915050565b600060808201905061381b60008301876129be565b61382860208301866129be565b6138356040830185612a54565b818103606083015261384781846137cd565b905095945050505050565b600081519050613861816127df565b92915050565b60006020828403121561387d5761387c6127a9565b5b600061388b84828501613852565b91505092915050565b7f455243373231456e756d657261626c653a20636f6e736563757469766520747260008201527f616e7366657273206e6f7420737570706f727465640000000000000000000000602082015250565b60006138f0603583612879565b91506138fb82613894565b604082019050919050565b6000602082019050818103600083015261391f816138e3565b9050919050565b7f4e487b7100000000000000000000000000000000000000000000000000000000600052601260045260246000fd5b7f4552433732313a206d696e7420746f20746865207a65726f2061646472657373600082015250565b600061398b602083612879565b915061399682613955565b602082019050919050565b600060208201905081810360008301526139ba8161397e565b9050919050565b7f4552433732313a20746f6b656e20616c7265616479206d696e74656400000000600082015250565b60006139f7601c83612879565b9150613a02826139c1565b602082019050919050565b60006020820190508181036000830152613a26816139ea565b9050919050565b7f4e487b7100000000000000000000000000000000000000000000000000000000600052601160045260246000fd5b6000613a6782612929565b9150613a7283612929565b925082821015613a8557613a84613a2d565b5b828203905092915050565b7f4e487b7100000000000000000000000000000000000000000000000000000000600052603160045260246000fdfea2646970667358221220994600166f1a09b9e51ea0770fdb0835cd3549014c440d1b982f1342e5c237d064736f6c63430008090033",
  "immutableReferences": {},
  "source": "\n// SPDX-License-Identifier: MIT\npragma solidity >=0.4.22 <0.9.0;\n\nimport \"@openzeppelin/contracts/token/ERC721/ERC721.sol\";\nimport \"@openzeppelin/contracts/token/ERC721/extensions/ERC721Enumerable.sol\";\nimport \"@openzeppelin/contracts/token/ERC721/extensions/ERC721URIStorage.sol\";\nimport \"@openzeppelin/contracts/access/Ownable.sol\";\nimport \"@openzeppelin/contracts/utils/Counters.sol\";\n\ncontract Soulbounder is ERC721, ERC721Enumerable, ERC721URIStorage, Ownable {\n    using Counters for Counters.Counter;\n\n    Counters.Counter private _tokenIdCounter;\n\n    event Attest(address indexed to, uint256 indexed tokenId);\n    event Revoke(address indexed to, uint256 indexed tokenId);\n\n\n    constructor() ERC721(\"Soulbounder\", \"SBT\") {}\n\n\n    function safeMint(address to, string memory uri) public {\n        uint256 tokenId = _tokenIdCounter.current();\n        _tokenIdCounter.increment();\n        _safeMint(to, tokenId);\n        _setTokenURI(tokenId, uri);\n    }\n\n    function burn(uint256 tokenId) external {\n        require(ownerOf(tokenId) == msg.sender, \"Only token owner can burn it\");\n        _burn(tokenId);\n    }\n\n\n    function revoke(uint256 tokenId) external {\n        _burn(tokenId);\n    }\n\n\n\n    // The following functions are overrides required by Solidity.\n\n    function _beforeTokenTransfer(address from, address to, uint256 tokenId, uint256 batchSize)\n        internal\n        override(ERC721, ERC721Enumerable)\n        virtual\n    {\n        require(from == address(0) || to == address(0), \"You can't transfer this token\");\n        super._beforeTokenTransfer(from, to, tokenId, batchSize);\n    }\n\n\n    function _afterTokenTransfer(address from, address to, uint256 tokenId, uint256 batchSize) \n        internal \n        override \n        virtual \n    {\n        if (from == address(0)) {\n            emit Attest(to, tokenId);\n        } else if (to == address(0)) {\n            emit Revoke(to, tokenId);\n        }\n\n    }\n\n\n\n    function _burn(uint256 tokenId) internal override(ERC721, ERC721URIStorage) {\n        super._burn(tokenId);\n    }\n\n\n    function tokenURI(uint256 tokenId)\n        public\n        view\n        override(ERC721, ERC721URIStorage)\n        returns (string memory)\n    {\n        return super.tokenURI(tokenId);\n    }\n\n    function supportsInterface(bytes4 interfaceId)\n        public\n        view\n        override(ERC721, ERC721Enumerable)\n        returns (bool)\n    {\n        return super.supportsInterface(interfaceId);\n    }\n}",
  "sourcePath": "/Users/joethompson/Documents/Github Projects/Soulbounder/Truffle/contracts/Soulbounder.sol",
  "compiler": {
    "name": "solc",
    "version": "0.8.9+commit.e5eed63a.Emscripten.clang"
  },
  "schemaVersion": "3.4.14",
  "updatedAt": "2023-06-01T00:35:27.325Z",
  "networkType": "ethereum",
  "devdoc": {
    "kind": "dev",
    "methods": {
      "approve(address,uint256)": {
        "details": "See {IERC721-approve}."
      },
      "balanceOf(address)": {
        "details": "See {IERC721-balanceOf}."
      },
      "getApproved(uint256)": {
        "details": "See {IERC721-getApproved}."
      },
      "isApprovedForAll(address,address)": {
        "details": "See {IERC721-isApprovedForAll}."
      },
      "name()": {
        "details": "See {IERC721Metadata-name}."
      },
      "owner()": {
        "details": "Returns the address of the current owner."
      },
      "ownerOf(uint256)": {
        "details": "See {IERC721-ownerOf}."
      },
      "renounceOwnership()": {
        "details": "Leaves the contract without owner. It will not be possible to call `onlyOwner` functions anymore. Can only be called by the current owner. NOTE: Renouncing ownership will leave the contract without an owner, thereby removing any functionality that is only available to the owner."
      },
      "safeTransferFrom(address,address,uint256)": {
        "details": "See {IERC721-safeTransferFrom}."
      },
      "safeTransferFrom(address,address,uint256,bytes)": {
        "details": "See {IERC721-safeTransferFrom}."
      },
      "setApprovalForAll(address,bool)": {
        "details": "See {IERC721-setApprovalForAll}."
      },
      "symbol()": {
        "details": "See {IERC721Metadata-symbol}."
      },
      "tokenByIndex(uint256)": {
        "details": "See {IERC721Enumerable-tokenByIndex}."
      },
      "tokenOfOwnerByIndex(address,uint256)": {
        "details": "See {IERC721Enumerable-tokenOfOwnerByIndex}."
      },
      "totalSupply()": {
        "details": "See {IERC721Enumerable-totalSupply}."
      },
      "transferFrom(address,address,uint256)": {
        "details": "See {IERC721-transferFrom}."
      },
      "transferOwnership(address)": {
        "details": "Transfers ownership of the contract to a new account (`newOwner`). Can only be called by the current owner."
      }
    },
    "version": 1
  },
  "userdoc": {
    "kind": "user",
    "methods": {},
    "version": 1
  }
}