{
  "contractName": "Soulbounder",
  "abi": [
    {
      "inputs": [],
      "stateMutability": "nonpayable",
      "type": "constructor"
    },
    {
      "anonymous": false,
      "inputs": [
        {
          "indexed": true,
          "internalType": "address",
          "name": "owner",
          "type": "address"
        },
        {
          "indexed": true,
          "internalType": "address",
          "name": "approved",
          "type": "address"
        },
        {
          "indexed": true,
          "internalType": "uint256",
          "name": "tokenId",
          "type": "uint256"
        }
      ],
      "name": "Approval",
      "type": "event"
    },
    {
      "anonymous": false,
      "inputs": [
        {
          "indexed": true,
          "internalType": "address",
          "name": "owner",
          "type": "address"
        },
        {
          "indexed": true,
          "internalType": "address",
          "name": "operator",
          "type": "address"
        },
        {
          "indexed": false,
          "internalType": "bool",
          "name": "approved",
          "type": "bool"
        }
      ],
      "name": "ApprovalForAll",
      "type": "event"
    },
    {
      "anonymous": false,
      "inputs": [
        {
          "indexed": true,
          "internalType": "address",
          "name": "to",
          "type": "address"
        },
        {
          "indexed": true,
          "internalType": "uint256",
          "name": "tokenId",
          "type": "uint256"
        }
      ],
      "name": "Attest",
      "type": "event"
    },
    {
      "anonymous": false,
      "inputs": [
        {
          "indexed": true,
          "internalType": "address",
          "name": "previousOwner",
          "type": "address"
        },
        {
          "indexed": true,
          "internalType": "address",
          "name": "newOwner",
          "type": "address"
        }
      ],
      "name": "OwnershipTransferred",
      "type": "event"
    },
    {
      "anonymous": false,
      "inputs": [
        {
          "indexed": true,
          "internalType": "address",
          "name": "to",
          "type": "address"
        },
        {
          "indexed": true,
          "internalType": "uint256",
          "name": "tokenId",
          "type": "uint256"
        }
      ],
      "name": "Revoke",
      "type": "event"
    },
    {
      "anonymous": false,
      "inputs": [
        {
          "indexed": true,
          "internalType": "address",
          "name": "from",
          "type": "address"
        },
        {
          "indexed": true,
          "internalType": "address",
          "name": "to",
          "type": "address"
        },
        {
          "indexed": true,
          "internalType": "uint256",
          "name": "tokenId",
          "type": "uint256"
        }
      ],
      "name": "Transfer",
      "type": "event"
    },
    {
      "inputs": [
        {
          "internalType": "address",
          "name": "to",
          "type": "address"
        },
        {
          "internalType": "uint256",
          "name": "tokenId",
          "type": "uint256"
        }
      ],
      "name": "approve",
      "outputs": [],
      "stateMutability": "nonpayable",
      "type": "function"
    },
    {
      "inputs": [
        {
          "internalType": "address",
          "name": "owner",
          "type": "address"
        }
      ],
      "name": "balanceOf",
      "outputs": [
        {
          "internalType": "uint256",
          "name": "",
          "type": "uint256"
        }
      ],
      "stateMutability": "view",
      "type": "function",
      "constant": true
    },
    {
      "inputs": [
        {
          "internalType": "uint256",
          "name": "tokenId",
          "type": "uint256"
        }
      ],
      "name": "getApproved",
      "outputs": [
        {
          "internalType": "address",
          "name": "",
          "type": "address"
        }
      ],
      "stateMutability": "view",
      "type": "function",
      "constant": true
    },
    {
      "inputs": [
        {
          "internalType": "address",
          "name": "owner",
          "type": "address"
        },
        {
          "internalType": "address",
          "name": "operator",
          "type": "address"
        }
      ],
      "name": "isApprovedForAll",
      "outputs": [
        {
          "internalType": "bool",
          "name": "",
          "type": "bool"
        }
      ],
      "stateMutability": "view",
      "type": "function",
      "constant": true
    },
    {
      "inputs": [],
      "name": "name",
      "outputs": [
        {
          "internalType": "string",
          "name": "",
          "type": "string"
        }
      ],
      "stateMutability": "view",
      "type": "function",
      "constant": true
    },
    {
      "inputs": [],
      "name": "owner",
      "outputs": [
        {
          "internalType": "address",
          "name": "",
          "type": "address"
        }
      ],
      "stateMutability": "view",
      "type": "function",
      "constant": true
    },
    {
      "inputs": [
        {
          "internalType": "uint256",
          "name": "tokenId",
          "type": "uint256"
        }
      ],
      "name": "ownerOf",
      "outputs": [
        {
          "internalType": "address",
          "name": "",
          "type": "address"
        }
      ],
      "stateMutability": "view",
      "type": "function",
      "constant": true
    },
    {
      "inputs": [],
      "name": "renounceOwnership",
      "outputs": [],
      "stateMutability": "nonpayable",
      "type": "function"
    },
    {
      "inputs": [
        {
          "internalType": "address",
          "name": "from",
          "type": "address"
        },
        {
          "internalType": "address",
          "name": "to",
          "type": "address"
        },
        {
          "internalType": "uint256",
          "name": "tokenId",
          "type": "uint256"
        }
      ],
      "name": "safeTransferFrom",
      "outputs": [],
      "stateMutability": "nonpayable",
      "type": "function"
    },
    {
      "inputs": [
        {
          "internalType": "address",
          "name": "from",
          "type": "address"
        },
        {
          "internalType": "address",
          "name": "to",
          "type": "address"
        },
        {
          "internalType": "uint256",
          "name": "tokenId",
          "type": "uint256"
        },
        {
          "internalType": "bytes",
          "name": "data",
          "type": "bytes"
        }
      ],
      "name": "safeTransferFrom",
      "outputs": [],
      "stateMutability": "nonpayable",
      "type": "function"
    },
    {
      "inputs": [
        {
          "internalType": "address",
          "name": "operator",
          "type": "address"
        },
        {
          "internalType": "bool",
          "name": "approved",
          "type": "bool"
        }
      ],
      "name": "setApprovalForAll",
      "outputs": [],
      "stateMutability": "nonpayable",
      "type": "function"
    },
    {
      "inputs": [
        {
          "internalType": "bytes4",
          "name": "interfaceId",
          "type": "bytes4"
        }
      ],
      "name": "supportsInterface",
      "outputs": [
        {
          "internalType": "bool",
          "name": "",
          "type": "bool"
        }
      ],
      "stateMutability": "view",
      "type": "function",
      "constant": true
    },
    {
      "inputs": [],
      "name": "symbol",
      "outputs": [
        {
          "internalType": "string",
          "name": "",
          "type": "string"
        }
      ],
      "stateMutability": "view",
      "type": "function",
      "constant": true
    },
    {
      "inputs": [
        {
          "internalType": "address",
          "name": "from",
          "type": "address"
        },
        {
          "internalType": "address",
          "name": "to",
          "type": "address"
        },
        {
          "internalType": "uint256",
          "name": "tokenId",
          "type": "uint256"
        }
      ],
      "name": "transferFrom",
      "outputs": [],
      "stateMutability": "nonpayable",
      "type": "function"
    },
    {
      "inputs": [
        {
          "internalType": "address",
          "name": "newOwner",
          "type": "address"
        }
      ],
      "name": "transferOwnership",
      "outputs": [],
      "stateMutability": "nonpayable",
      "type": "function"
    },
    {
      "inputs": [
        {
          "internalType": "address",
          "name": "to",
          "type": "address"
        },
        {
          "internalType": "string",
          "name": "uri",
          "type": "string"
        }
      ],
      "name": "safeMint",
      "outputs": [],
      "stateMutability": "nonpayable",
      "type": "function"
    },
    {
      "inputs": [
        {
          "internalType": "uint256",
          "name": "tokenId",
          "type": "uint256"
        }
      ],
      "name": "burn",
      "outputs": [],
      "stateMutability": "nonpayable",
      "type": "function"
    },
    {
      "inputs": [
        {
          "internalType": "uint256",
          "name": "tokenId",
          "type": "uint256"
        }
      ],
      "name": "revoke",
      "outputs": [],
      "stateMutability": "nonpayable",
      "type": "function"
    },
    {
      "inputs": [
        {
          "internalType": "uint256",
          "name": "tokenId",
          "type": "uint256"
        }
      ],
      "name": "tokenURI",
      "outputs": [
        {
          "internalType": "string",
          "name": "",
          "type": "string"
        }
      ],
      "stateMutability": "view",
      "type": "function",
      "constant": true
    }
  ],
  "bytecode": "0x60806040523480156200001157600080fd5b506040518060400160405280600b81526020017f536f756c626f756e6465720000000000000000000000000000000000000000008152506040518060400160405280600381526020017f534254000000000000000000000000000000000000000000000000000000000081525081600090816200008f919062000412565b508060019081620000a1919062000412565b505050620000c4620000b8620000ca60201b60201c565b620000d260201b60201c565b620004f9565b600033905090565b6000600760009054906101000a900473ffffffffffffffffffffffffffffffffffffffff16905081600760006101000a81548173ffffffffffffffffffffffffffffffffffffffff021916908373ffffffffffffffffffffffffffffffffffffffff1602179055508173ffffffffffffffffffffffffffffffffffffffff168173ffffffffffffffffffffffffffffffffffffffff167f8be0079c531659141344cd1fd0a4f28419497f9722a3daafe3b4186f6b6457e060405160405180910390a35050565b600081519050919050565b7f4e487b7100000000000000000000000000000000000000000000000000000000600052604160045260246000fd5b7f4e487b7100000000000000000000000000000000000000000000000000000000600052602260045260246000fd5b600060028204905060018216806200021a57607f821691505b60208210810362000230576200022f620001d2565b5b50919050565b60008190508160005260206000209050919050565b60006020601f8301049050919050565b600082821b905092915050565b6000600883026200029a7fffffffffffffffffffffffffffffffffffffffffffffffffffffffffffffffff826200025b565b620002a686836200025b565b95508019841693508086168417925050509392505050565b6000819050919050565b6000819050919050565b6000620002f3620002ed620002e784620002be565b620002c8565b620002be565b9050919050565b6000819050919050565b6200030f83620002d2565b620003276200031e82620002fa565b84845462000268565b825550505050565b600090565b6200033e6200032f565b6200034b81848462000304565b505050565b5b8181101562000373576200036760008262000334565b60018101905062000351565b5050565b601f821115620003c2576200038c8162000236565b62000397846200024b565b81016020851015620003a7578190505b620003bf620003b6856200024b565b83018262000350565b50505b505050565b600082821c905092915050565b6000620003e760001984600802620003c7565b1980831691505092915050565b6000620004028383620003d4565b9150826002028217905092915050565b6200041d8262000198565b67ffffffffffffffff811115620004395762000438620001a3565b5b62000445825462000201565b6200045282828562000377565b600060209050601f8311600181146200048a576000841562000475578287015190505b620004818582620003f4565b865550620004f1565b601f1984166200049a8662000236565b60005b82811015620004c4578489015182556001820191506020850194506020810190506200049d565b86831015620004e45784890151620004e0601f891682620003d4565b8355505b6001600288020188555050505b505050505050565b61338380620005096000396000f3fe608060405234801561001057600080fd5b50600436106101215760003560e01c806370a08231116100ad578063b88d4fde11610071578063b88d4fde146102f2578063c87b56dd1461030e578063d204c45e1461033e578063e985e9c51461035a578063f2fde38b1461038a57610121565b806370a0823114610260578063715018a6146102905780638da5cb5b1461029a57806395d89b41146102b8578063a22cb465146102d657610121565b806320c5429b116100f457806320c5429b146101c057806323b872dd146101dc57806342842e0e146101f857806342966c68146102145780636352211e1461023057610121565b806301ffc9a71461012657806306fdde0314610156578063081812fc14610174578063095ea7b3146101a4575b600080fd5b610140600480360381019061013b919061209c565b6103a6565b60405161014d91906120e4565b60405180910390f35b61015e610488565b60405161016b919061218f565b60405180910390f35b61018e600480360381019061018991906121e7565b61051a565b60405161019b9190612255565b60405180910390f35b6101be60048036038101906101b9919061229c565b610560565b005b6101da60048036038101906101d591906121e7565b610677565b005b6101f660048036038101906101f191906122dc565b610683565b005b610212600480360381019061020d91906122dc565b6106e3565b005b61022e600480360381019061022991906121e7565b610703565b005b61024a600480360381019061024591906121e7565b610785565b6040516102579190612255565b60405180910390f35b61027a6004803603810190610275919061232f565b61080b565b604051610287919061236b565b60405180910390f35b6102986108c2565b005b6102a26108d6565b6040516102af9190612255565b60405180910390f35b6102c0610900565b6040516102cd919061218f565b60405180910390f35b6102f060048036038101906102eb91906123b2565b610992565b005b61030c60048036038101906103079190612527565b6109a8565b005b610328600480360381019061032391906121e7565b610a0a565b604051610335919061218f565b60405180910390f35b6103586004803603810190610353919061264b565b610a1c565b005b610374600480360381019061036f91906126a7565b610a55565b60405161038191906120e4565b60405180910390f35b6103a4600480360381019061039f919061232f565b610ae9565b005b60007f80ac58cd000000000000000000000000000000000000000000000000000000007bffffffffffffffffffffffffffffffffffffffffffffffffffffffff1916827bffffffffffffffffffffffffffffffffffffffffffffffffffffffff1916148061047157507f5b5e139f000000000000000000000000000000000000000000000000000000007bffffffffffffffffffffffffffffffffffffffffffffffffffffffff1916827bffffffffffffffffffffffffffffffffffffffffffffffffffffffff1916145b80610481575061048082610b6c565b5b9050919050565b60606000805461049790612716565b80601f01602080910402602001604051908101604052809291908181526020018280546104c390612716565b80156105105780601f106104e557610100808354040283529160200191610510565b820191906000526020600020905b8154815290600101906020018083116104f357829003601f168201915b5050505050905090565b600061052582610bd6565b6004600083815260200190815260200160002060009054906101000a900473ffffffffffffffffffffffffffffffffffffffff169050919050565b600061056b82610785565b90508073ffffffffffffffffffffffffffffffffffffffff168373ffffffffffffffffffffffffffffffffffffffff16036105db576040517f08c379a00000000000000000000000000000000000000000000000000000000081526004016105d2906127b9565b60405180910390fd5b8073ffffffffffffffffffffffffffffffffffffffff166105fa610c21565b73ffffffffffffffffffffffffffffffffffffffff161480610629575061062881610623610c21565b610a55565b5b610668576040517f08c379a000000000000000000000000000000000000000000000000000000000815260040161065f9061284b565b60405180910390fd5b6106728383610c29565b505050565b61068081610ce2565b50565b61069461068e610c21565b82610cee565b6106d3576040517f08c379a00000000000000000000000000000000000000000000000000000000081526004016106ca906128dd565b60405180910390fd5b6106de838383610d83565b505050565b6106fe838383604051806020016040528060008152506109a8565b505050565b3373ffffffffffffffffffffffffffffffffffffffff1661072382610785565b73ffffffffffffffffffffffffffffffffffffffff1614610779576040517f08c379a000000000000000000000000000000000000000000000000000000000815260040161077090612949565b60405180910390fd5b61078281610ce2565b50565b6000806107918361107c565b9050600073ffffffffffffffffffffffffffffffffffffffff168173ffffffffffffffffffffffffffffffffffffffff1603610802576040517f08c379a00000000000000000000000000000000000000000000000000000000081526004016107f9906129b5565b60405180910390fd5b80915050919050565b60008073ffffffffffffffffffffffffffffffffffffffff168273ffffffffffffffffffffffffffffffffffffffff160361087b576040517f08c379a000000000000000000000000000000000000000000000000000000000815260040161087290612a47565b60405180910390fd5b600360008373ffffffffffffffffffffffffffffffffffffffff1673ffffffffffffffffffffffffffffffffffffffff168152602001908152602001600020549050919050565b6108ca6110b9565b6108d46000611137565b565b6000600760009054906101000a900473ffffffffffffffffffffffffffffffffffffffff16905090565b60606001805461090f90612716565b80601f016020809104026020016040519081016040528092919081815260200182805461093b90612716565b80156109885780601f1061095d57610100808354040283529160200191610988565b820191906000526020600020905b81548152906001019060200180831161096b57829003601f168201915b5050505050905090565b6109a461099d610c21565b83836111fd565b5050565b6109b96109b3610c21565b83610cee565b6109f8576040517f08c379a00000000000000000000000000000000000000000000000000000000081526004016109ef906128dd565b60405180910390fd5b610a0484848484611369565b50505050565b6060610a15826113c5565b9050919050565b610a246110b9565b6000610a3060086114d7565b9050610a3c60086114e5565b610a4683826114fb565b610a508183611519565b505050565b6000600560008473ffffffffffffffffffffffffffffffffffffffff1673ffffffffffffffffffffffffffffffffffffffff16815260200190815260200160002060008373ffffffffffffffffffffffffffffffffffffffff1673ffffffffffffffffffffffffffffffffffffffff16815260200190815260200160002060009054906101000a900460ff16905092915050565b610af16110b9565b600073ffffffffffffffffffffffffffffffffffffffff168173ffffffffffffffffffffffffffffffffffffffff1603610b60576040517f08c379a0000000000000000000000000000000000000000000000000000000008152600401610b5790612ad9565b60405180910390fd5b610b6981611137565b50565b60007f01ffc9a7000000000000000000000000000000000000000000000000000000007bffffffffffffffffffffffffffffffffffffffffffffffffffffffff1916827bffffffffffffffffffffffffffffffffffffffffffffffffffffffff1916149050919050565b610bdf81611586565b610c1e576040517f08c379a0000000000000000000000000000000000000000000000000000000008152600401610c15906129b5565b60405180910390fd5b50565b600033905090565b816004600083815260200190815260200160002060006101000a81548173ffffffffffffffffffffffffffffffffffffffff021916908373ffffffffffffffffffffffffffffffffffffffff160217905550808273ffffffffffffffffffffffffffffffffffffffff16610c9c83610785565b73ffffffffffffffffffffffffffffffffffffffff167f8c5be1e5ebec7d5bd14f71427d1e84f3dd0314c0f7b2291e5b200ac8c7c3b92560405160405180910390a45050565b610ceb816115c7565b50565b600080610cfa83610785565b90508073ffffffffffffffffffffffffffffffffffffffff168473ffffffffffffffffffffffffffffffffffffffff161480610d3c5750610d3b8185610a55565b5b80610d7a57508373ffffffffffffffffffffffffffffffffffffffff16610d628461051a565b73ffffffffffffffffffffffffffffffffffffffff16145b91505092915050565b8273ffffffffffffffffffffffffffffffffffffffff16610da382610785565b73ffffffffffffffffffffffffffffffffffffffff1614610df9576040517f08c379a0000000000000000000000000000000000000000000000000000000008152600401610df090612b6b565b60405180910390fd5b600073ffffffffffffffffffffffffffffffffffffffff168273ffffffffffffffffffffffffffffffffffffffff1603610e68576040517f08c379a0000000000000000000000000000000000000000000000000000000008152600401610e5f90612bfd565b60405180910390fd5b610e75838383600161161a565b8273ffffffffffffffffffffffffffffffffffffffff16610e9582610785565b73ffffffffffffffffffffffffffffffffffffffff1614610eeb576040517f08c379a0000000000000000000000000000000000000000000000000000000008152600401610ee290612b6b565b60405180910390fd5b6004600082815260200190815260200160002060006101000a81549073ffffffffffffffffffffffffffffffffffffffff02191690556001600360008573ffffffffffffffffffffffffffffffffffffffff1673ffffffffffffffffffffffffffffffffffffffff168152602001908152602001600020600082825403925050819055506001600360008473ffffffffffffffffffffffffffffffffffffffff1673ffffffffffffffffffffffffffffffffffffffff16815260200190815260200160002060008282540192505081905550816002600083815260200190815260200160002060006101000a81548173ffffffffffffffffffffffffffffffffffffffff021916908373ffffffffffffffffffffffffffffffffffffffff160217905550808273ffffffffffffffffffffffffffffffffffffffff168473ffffffffffffffffffffffffffffffffffffffff167fddf252ad1be2c89b69c2b068fc378daa952ba7f163c4a11628f55a4df523b3ef60405160405180910390a461107783838360016116c6565b505050565b60006002600083815260200190815260200160002060009054906101000a900473ffffffffffffffffffffffffffffffffffffffff169050919050565b6110c1610c21565b73ffffffffffffffffffffffffffffffffffffffff166110df6108d6565b73ffffffffffffffffffffffffffffffffffffffff1614611135576040517f08c379a000000000000000000000000000000000000000000000000000000000815260040161112c90612c69565b60405180910390fd5b565b6000600760009054906101000a900473ffffffffffffffffffffffffffffffffffffffff16905081600760006101000a81548173ffffffffffffffffffffffffffffffffffffffff021916908373ffffffffffffffffffffffffffffffffffffffff1602179055508173ffffffffffffffffffffffffffffffffffffffff168173ffffffffffffffffffffffffffffffffffffffff167f8be0079c531659141344cd1fd0a4f28419497f9722a3daafe3b4186f6b6457e060405160405180910390a35050565b8173ffffffffffffffffffffffffffffffffffffffff168373ffffffffffffffffffffffffffffffffffffffff160361126b576040517f08c379a000000000000000000000000000000000000000000000000000000000815260040161126290612cd5565b60405180910390fd5b80600560008573ffffffffffffffffffffffffffffffffffffffff1673ffffffffffffffffffffffffffffffffffffffff16815260200190815260200160002060008473ffffffffffffffffffffffffffffffffffffffff1673ffffffffffffffffffffffffffffffffffffffff16815260200190815260200160002060006101000a81548160ff0219169083151502179055508173ffffffffffffffffffffffffffffffffffffffff168373ffffffffffffffffffffffffffffffffffffffff167f17307eab39ab6107e8899845ad3d59bd9653f200f220920489ca2b5937696c318360405161135c91906120e4565b60405180910390a3505050565b611374848484610d83565b611380848484846117c3565b6113bf576040517f08c379a00000000000000000000000000000000000000000000000000000000081526004016113b690612d67565b60405180910390fd5b50505050565b60606113d082610bd6565b60006006600084815260200190815260200160002080546113f090612716565b80601f016020809104026020016040519081016040528092919081815260200182805461141c90612716565b80156114695780601f1061143e57610100808354040283529160200191611469565b820191906000526020600020905b81548152906001019060200180831161144c57829003601f168201915b50505050509050600061147a61194a565b9050600081510361148f5781925050506114d2565b6000825111156114c45780826040516020016114ac929190612dc3565b604051602081830303815290604052925050506114d2565b6114cd84611961565b925050505b919050565b600081600001549050919050565b6001816000016000828254019250508190555050565b6115158282604051806020016040528060008152506119c9565b5050565b61152282611586565b611561576040517f08c379a000000000000000000000000000000000000000000000000000000000815260040161155890612e59565b60405180910390fd5b806006600084815260200190815260200160002090816115819190613025565b505050565b60008073ffffffffffffffffffffffffffffffffffffffff166115a88361107c565b73ffffffffffffffffffffffffffffffffffffffff1614159050919050565b6115d081611a24565b60006006600083815260200190815260200160002080546115f090612716565b905014611617576006600082815260200190815260200160002060006116169190611fd3565b5b50565b600073ffffffffffffffffffffffffffffffffffffffff168473ffffffffffffffffffffffffffffffffffffffff1614806116815750600073ffffffffffffffffffffffffffffffffffffffff168373ffffffffffffffffffffffffffffffffffffffff16145b6116c0576040517f08c379a00000000000000000000000000000000000000000000000000000000081526004016116b790613143565b60405180910390fd5b50505050565b600073ffffffffffffffffffffffffffffffffffffffff168473ffffffffffffffffffffffffffffffffffffffff160361174357818373ffffffffffffffffffffffffffffffffffffffff167fe9274a84b19e9428826de6bae8c48329354f8f0e73f771b97cae2d9dccd45a2760405160405180910390a36117bd565b600073ffffffffffffffffffffffffffffffffffffffff168373ffffffffffffffffffffffffffffffffffffffff16036117bc57818373ffffffffffffffffffffffffffffffffffffffff167fec9ab91322523c899ede7830ec9bfc992b5981cdcc27b91162fb23de5791117b60405160405180910390a35b5b50505050565b60006117e48473ffffffffffffffffffffffffffffffffffffffff16611b72565b1561193d578373ffffffffffffffffffffffffffffffffffffffff1663150b7a0261180d610c21565b8786866040518563ffffffff1660e01b815260040161182f94939291906131b8565b6020604051808303816000875af192505050801561186b57506040513d601f19601f820116820180604052508101906118689190613219565b60015b6118ed573d806000811461189b576040519150601f19603f3d011682016040523d82523d6000602084013e6118a0565b606091505b5060008151036118e5576040517f08c379a00000000000000000000000000000000000000000000000000000000081526004016118dc90612d67565b60405180910390fd5b805181602001fd5b63150b7a0260e01b7bffffffffffffffffffffffffffffffffffffffffffffffffffffffff1916817bffffffffffffffffffffffffffffffffffffffffffffffffffffffff191614915050611942565b600190505b949350505050565b606060405180602001604052806000815250905090565b606061196c82610bd6565b600061197661194a565b9050600081511161199657604051806020016040528060008152506119c1565b806119a084611b95565b6040516020016119b1929190612dc3565b6040516020818303038152906040525b915050919050565b6119d38383611c63565b6119e060008484846117c3565b611a1f576040517f08c379a0000000000000000000000000000000000000000000000000000000008152600401611a1690612d67565b60405180910390fd5b505050565b6000611a2f82610785565b9050611a3f81600084600161161a565b611a4882610785565b90506004600083815260200190815260200160002060006101000a81549073ffffffffffffffffffffffffffffffffffffffff02191690556001600360008373ffffffffffffffffffffffffffffffffffffffff1673ffffffffffffffffffffffffffffffffffffffff168152602001908152602001600020600082825403925050819055506002600083815260200190815260200160002060006101000a81549073ffffffffffffffffffffffffffffffffffffffff021916905581600073ffffffffffffffffffffffffffffffffffffffff168273ffffffffffffffffffffffffffffffffffffffff167fddf252ad1be2c89b69c2b068fc378daa952ba7f163c4a11628f55a4df523b3ef60405160405180910390a4611b6e8160008460016116c6565b5050565b6000808273ffffffffffffffffffffffffffffffffffffffff163b119050919050565b606060006001611ba484611e80565b01905060008167ffffffffffffffff811115611bc357611bc26123fc565b5b6040519080825280601f01601f191660200182016040528015611bf55781602001600182028036833780820191505090505b509050600082602001820190505b600115611c58578080600190039150507f3031323334353637383961626364656600000000000000000000000000000000600a86061a8153600a8581611c4c57611c4b613246565b5b04945060008503611c03575b819350505050919050565b600073ffffffffffffffffffffffffffffffffffffffff168273ffffffffffffffffffffffffffffffffffffffff1603611cd2576040517f08c379a0000000000000000000000000000000000000000000000000000000008152600401611cc9906132c1565b60405180910390fd5b611cdb81611586565b15611d1b576040517f08c379a0000000000000000000000000000000000000000000000000000000008152600401611d129061332d565b60405180910390fd5b611d2960008383600161161a565b611d3281611586565b15611d72576040517f08c379a0000000000000000000000000000000000000000000000000000000008152600401611d699061332d565b60405180910390fd5b6001600360008473ffffffffffffffffffffffffffffffffffffffff1673ffffffffffffffffffffffffffffffffffffffff16815260200190815260200160002060008282540192505081905550816002600083815260200190815260200160002060006101000a81548173ffffffffffffffffffffffffffffffffffffffff021916908373ffffffffffffffffffffffffffffffffffffffff160217905550808273ffffffffffffffffffffffffffffffffffffffff16600073ffffffffffffffffffffffffffffffffffffffff167fddf252ad1be2c89b69c2b068fc378daa952ba7f163c4a11628f55a4df523b3ef60405160405180910390a4611e7c6000838360016116c6565b5050565b600080600090507a184f03e93ff9f4daa797ed6e38ed64bf6a1f0100000000000000008310611ede577a184f03e93ff9f4daa797ed6e38ed64bf6a1f0100000000000000008381611ed457611ed3613246565b5b0492506040810190505b6d04ee2d6d415b85acef81000000008310611f1b576d04ee2d6d415b85acef81000000008381611f1157611f10613246565b5b0492506020810190505b662386f26fc100008310611f4a57662386f26fc100008381611f4057611f3f613246565b5b0492506010810190505b6305f5e1008310611f73576305f5e1008381611f6957611f68613246565b5b0492506008810190505b6127108310611f98576127108381611f8e57611f8d613246565b5b0492506004810190505b60648310611fbb5760648381611fb157611fb0613246565b5b0492506002810190505b600a8310611fca576001810190505b80915050919050565b508054611fdf90612716565b6000825580601f10611ff15750612010565b601f01602090049060005260206000209081019061200f9190612013565b5b50565b5b8082111561202c576000816000905550600101612014565b5090565b6000604051905090565b600080fd5b600080fd5b60007fffffffff0000000000000000000000000000000000000000000000000000000082169050919050565b61207981612044565b811461208457600080fd5b50565b60008135905061209681612070565b92915050565b6000602082840312156120b2576120b161203a565b5b60006120c084828501612087565b91505092915050565b60008115159050919050565b6120de816120c9565b82525050565b60006020820190506120f960008301846120d5565b92915050565b600081519050919050565b600082825260208201905092915050565b60005b8381101561213957808201518184015260208101905061211e565b60008484015250505050565b6000601f19601f8301169050919050565b6000612161826120ff565b61216b818561210a565b935061217b81856020860161211b565b61218481612145565b840191505092915050565b600060208201905081810360008301526121a98184612156565b905092915050565b6000819050919050565b6121c4816121b1565b81146121cf57600080fd5b50565b6000813590506121e1816121bb565b92915050565b6000602082840312156121fd576121fc61203a565b5b600061220b848285016121d2565b91505092915050565b600073ffffffffffffffffffffffffffffffffffffffff82169050919050565b600061223f82612214565b9050919050565b61224f81612234565b82525050565b600060208201905061226a6000830184612246565b92915050565b61227981612234565b811461228457600080fd5b50565b60008135905061229681612270565b92915050565b600080604083850312156122b3576122b261203a565b5b60006122c185828601612287565b92505060206122d2858286016121d2565b9150509250929050565b6000806000606084860312156122f5576122f461203a565b5b600061230386828701612287565b935050602061231486828701612287565b9250506040612325868287016121d2565b9150509250925092565b6000602082840312156123455761234461203a565b5b600061235384828501612287565b91505092915050565b612365816121b1565b82525050565b6000602082019050612380600083018461235c565b92915050565b61238f816120c9565b811461239a57600080fd5b50565b6000813590506123ac81612386565b92915050565b600080604083850312156123c9576123c861203a565b5b60006123d785828601612287565b92505060206123e88582860161239d565b9150509250929050565b600080fd5b600080fd5b7f4e487b7100000000000000000000000000000000000000000000000000000000600052604160045260246000fd5b61243482612145565b810181811067ffffffffffffffff82111715612453576124526123fc565b5b80604052505050565b6000612466612030565b9050612472828261242b565b919050565b600067ffffffffffffffff821115612492576124916123fc565b5b61249b82612145565b9050602081019050919050565b82818337600083830152505050565b60006124ca6124c584612477565b61245c565b9050828152602081018484840111156124e6576124e56123f7565b5b6124f18482856124a8565b509392505050565b600082601f83011261250e5761250d6123f2565b5b813561251e8482602086016124b7565b91505092915050565b600080600080608085870312156125415761254061203a565b5b600061254f87828801612287565b945050602061256087828801612287565b9350506040612571878288016121d2565b925050606085013567ffffffffffffffff8111156125925761259161203f565b5b61259e878288016124f9565b91505092959194509250565b600067ffffffffffffffff8211156125c5576125c46123fc565b5b6125ce82612145565b9050602081019050919050565b60006125ee6125e9846125aa565b61245c565b90508281526020810184848401111561260a576126096123f7565b5b6126158482856124a8565b509392505050565b600082601f830112612632576126316123f2565b5b81356126428482602086016125db565b91505092915050565b600080604083850312156126625761266161203a565b5b600061267085828601612287565b925050602083013567ffffffffffffffff8111156126915761269061203f565b5b61269d8582860161261d565b9150509250929050565b600080604083850312156126be576126bd61203a565b5b60006126cc85828601612287565b92505060206126dd85828601612287565b9150509250929050565b7f4e487b7100000000000000000000000000000000000000000000000000000000600052602260045260246000fd5b6000600282049050600182168061272e57607f821691505b602082108103612741576127406126e7565b5b50919050565b7f4552433732313a20617070726f76616c20746f2063757272656e74206f776e6560008201527f7200000000000000000000000000000000000000000000000000000000000000602082015250565b60006127a360218361210a565b91506127ae82612747565b604082019050919050565b600060208201905081810360008301526127d281612796565b9050919050565b7f4552433732313a20617070726f76652063616c6c6572206973206e6f7420746f60008201527f6b656e206f776e6572206f7220617070726f76656420666f7220616c6c000000602082015250565b6000612835603d8361210a565b9150612840826127d9565b604082019050919050565b6000602082019050818103600083015261286481612828565b9050919050565b7f4552433732313a2063616c6c6572206973206e6f7420746f6b656e206f776e6560008201527f72206f7220617070726f76656400000000000000000000000000000000000000602082015250565b60006128c7602d8361210a565b91506128d28261286b565b604082019050919050565b600060208201905081810360008301526128f6816128ba565b9050919050565b7f4f6e6c7920746f6b656e206f776e65722063616e206275726e20697400000000600082015250565b6000612933601c8361210a565b915061293e826128fd565b602082019050919050565b6000602082019050818103600083015261296281612926565b9050919050565b7f4552433732313a20696e76616c696420746f6b656e2049440000000000000000600082015250565b600061299f60188361210a565b91506129aa82612969565b602082019050919050565b600060208201905081810360008301526129ce81612992565b9050919050565b7f4552433732313a2061646472657373207a65726f206973206e6f74206120766160008201527f6c6964206f776e65720000000000000000000000000000000000000000000000602082015250565b6000612a3160298361210a565b9150612a3c826129d5565b604082019050919050565b60006020820190508181036000830152612a6081612a24565b9050919050565b7f4f776e61626c653a206e6577206f776e657220697320746865207a65726f206160008201527f6464726573730000000000000000000000000000000000000000000000000000602082015250565b6000612ac360268361210a565b9150612ace82612a67565b604082019050919050565b60006020820190508181036000830152612af281612ab6565b9050919050565b7f4552433732313a207472616e736665722066726f6d20696e636f72726563742060008201527f6f776e6572000000000000000000000000000000000000000000000000000000602082015250565b6000612b5560258361210a565b9150612b6082612af9565b604082019050919050565b60006020820190508181036000830152612b8481612b48565b9050919050565b7f4552433732313a207472616e7366657220746f20746865207a65726f2061646460008201527f7265737300000000000000000000000000000000000000000000000000000000602082015250565b6000612be760248361210a565b9150612bf282612b8b565b604082019050919050565b60006020820190508181036000830152612c1681612bda565b9050919050565b7f4f776e61626c653a2063616c6c6572206973206e6f7420746865206f776e6572600082015250565b6000612c5360208361210a565b9150612c5e82612c1d565b602082019050919050565b60006020820190508181036000830152612c8281612c46565b9050919050565b7f4552433732313a20617070726f766520746f2063616c6c657200000000000000600082015250565b6000612cbf60198361210a565b9150612cca82612c89565b602082019050919050565b60006020820190508181036000830152612cee81612cb2565b9050919050565b7f4552433732313a207472616e7366657220746f206e6f6e20455243373231526560008201527f63656976657220696d706c656d656e7465720000000000000000000000000000602082015250565b6000612d5160328361210a565b9150612d5c82612cf5565b604082019050919050565b60006020820190508181036000830152612d8081612d44565b9050919050565b600081905092915050565b6000612d9d826120ff565b612da78185612d87565b9350612db781856020860161211b565b80840191505092915050565b6000612dcf8285612d92565b9150612ddb8284612d92565b91508190509392505050565b7f45524337323155524953746f726167653a2055524920736574206f66206e6f6e60008201527f6578697374656e7420746f6b656e000000000000000000000000000000000000602082015250565b6000612e43602e8361210a565b9150612e4e82612de7565b604082019050919050565b60006020820190508181036000830152612e7281612e36565b9050919050565b60008190508160005260206000209050919050565b60006020601f8301049050919050565b600082821b905092915050565b600060088302612edb7fffffffffffffffffffffffffffffffffffffffffffffffffffffffffffffffff82612e9e565b612ee58683612e9e565b95508019841693508086168417925050509392505050565b6000819050919050565b6000612f22612f1d612f18846121b1565b612efd565b6121b1565b9050919050565b6000819050919050565b612f3c83612f07565b612f50612f4882612f29565b848454612eab565b825550505050565b600090565b612f65612f58565b612f70818484612f33565b505050565b5b81811015612f9457612f89600082612f5d565b600181019050612f76565b5050565b601f821115612fd957612faa81612e79565b612fb384612e8e565b81016020851015612fc2578190505b612fd6612fce85612e8e565b830182612f75565b50505b505050565b600082821c905092915050565b6000612ffc60001984600802612fde565b1980831691505092915050565b60006130158383612feb565b9150826002028217905092915050565b61302e826120ff565b67ffffffffffffffff811115613047576130466123fc565b5b6130518254612716565b61305c828285612f98565b600060209050601f83116001811461308f576000841561307d578287015190505b6130878582613009565b8655506130ef565b601f19841661309d86612e79565b60005b828110156130c5578489015182556001820191506020850194506020810190506130a0565b868310156130e257848901516130de601f891682612feb565b8355505b6001600288020188555050505b505050505050565b7f596f752063616e2774207472616e73666572207468697320746f6b656e000000600082015250565b600061312d601d8361210a565b9150613138826130f7565b602082019050919050565b6000602082019050818103600083015261315c81613120565b9050919050565b600081519050919050565b600082825260208201905092915050565b600061318a82613163565b613194818561316e565b93506131a481856020860161211b565b6131ad81612145565b840191505092915050565b60006080820190506131cd6000830187612246565b6131da6020830186612246565b6131e7604083018561235c565b81810360608301526131f9818461317f565b905095945050505050565b60008151905061321381612070565b92915050565b60006020828403121561322f5761322e61203a565b5b600061323d84828501613204565b91505092915050565b7f4e487b7100000000000000000000000000000000000000000000000000000000600052601260045260246000fd5b7f4552433732313a206d696e7420746f20746865207a65726f2061646472657373600082015250565b60006132ab60208361210a565b91506132b682613275565b602082019050919050565b600060208201905081810360008301526132da8161329e565b9050919050565b7f4552433732313a20746f6b656e20616c7265616479206d696e74656400000000600082015250565b6000613317601c8361210a565b9150613322826132e1565b602082019050919050565b600060208201905081810360008301526133468161330a565b905091905056fea264697066735822122063b48ed76289a295939deaa28c428a40630e76e044d31d1e1363cccd12daaa4764736f6c63430008130033",
  "immutableReferences": {},
  "source": "// SPDX-License-Identifier: MIT\npragma solidity ^0.8.9;\n\nimport \"@openzeppelin/contracts/token/ERC721/ERC721.sol\";\nimport \"@openzeppelin/contracts/token/ERC721/extensions/ERC721URIStorage.sol\";\nimport \"@openzeppelin/contracts/token/ERC721/extensions/ERC721Enumerable.sol\";\nimport \"@openzeppelin/contracts/access/Ownable.sol\";\nimport \"@openzeppelin/contracts/utils/Counters.sol\";\n\ncontract Soulbounder is ERC721, ERC721URIStorage, Ownable {\n    using Counters for Counters.Counter;\n\n    Counters.Counter private _tokenIdCounter;\n\n    event Attest(address indexed to, uint256 indexed tokenId);\n    event Revoke(address indexed to, uint256 indexed tokenId);\n\n\n    constructor() ERC721(\"Soulbounder\", \"SBT\") {}\n\n    function safeMint(address to, string memory uri) public onlyOwner {\n        uint256 tokenId = _tokenIdCounter.current();\n        _tokenIdCounter.increment();\n        _safeMint(to, tokenId);\n        _setTokenURI(tokenId, uri);\n    }\n\n\n\n\n    function burn(uint256 tokenId) external {\n        require(ownerOf(tokenId) == msg.sender, \"Only token owner can burn it\");\n        _burn(tokenId);\n    }\n\n\n\n\n    function revoke(uint256 tokenId) external {\n        _burn(tokenId);\n    }\n\n\n\n\n    /**\n    * @dev Hook that is called before any token transfer. This includes minting and burning. If {ERC721Consecutive} is\n    * used, the hook may be called as part of a consecutive (batch) mint, as indicated by `batchSize` greater than 1.\n    *\n    * Calling conditions:\n    *\n    * - When `from` and `to` are both non-zero, ``from``'s tokens will be transferred to `to`.\n    * - When `from` is zero, the tokens will be minted for `to`.\n    * - When `to` is zero, ``from``'s tokens will be burned.\n    * - `from` and `to` are never both zero.\n    * - `batchSize` is non-zero.\n    *\n    * To learn more about hooks, head to xref:ROOT:extending-contracts.adoc#using-hooks[Using Hooks].\n    */\n    function _beforeTokenTransfer(address from, address to, uint256 firstTokenId, uint256 batchSize) internal override virtual {\n\n        require(from == address(0) || to == address(0), \"You can't transfer this token\");\n\n    }\n\n\n\n    /**\n    * @dev Hook that is called after any token transfer. This includes minting and burning. If {ERC721Consecutive} is\n    * used, the hook may be called as part of a consecutive (batch) mint, as indicated by `batchSize` greater than 1.\n    *\n    * Calling conditions:\n    *\n    * - When `from` and `to` are both non-zero, ``from``'s tokens were transferred to `to`.\n    * - When `from` is zero, the tokens were minted for `to`.\n    * - When `to` is zero, ``from``'s tokens were burned.\n    * - `from` and `to` are never both zero.\n    * - `batchSize` is non-zero.\n    *\n    * To learn more about hooks, head to xref:ROOT:extending-contracts.adoc#using-hooks[Using Hooks].\n    */\n    function _afterTokenTransfer(address from, address to, uint256 firstTokenId, uint256 batchSize) internal override virtual {\n\n        if (from == address(0)) {\n            emit Attest(to, firstTokenId);\n        } else if (to == address(0)) {\n            emit Revoke(to, firstTokenId);\n        }\n\n    }\n\n\n\n\n    // The following functions are overrides required by Solidity.\n\n    function _burn(uint256 tokenId) internal override(ERC721, ERC721URIStorage) {\n        super._burn(tokenId);\n    }\n\n    function tokenURI(uint256 tokenId)\n        public\n        view\n        override(ERC721, ERC721URIStorage)\n        returns (string memory)\n    {\n        return super.tokenURI(tokenId);\n    }\n}\n",
  "sourcePath": "/Users/joethompson/Documents/Github Projects/Soulbounder/Truffle/contracts/Soulbounder.sol",
  "compiler": {
    "name": "solc",
    "version": "0.8.19+commit.7dd6d404.Emscripten.clang"
  },
  "schemaVersion": "3.4.13",
  "updatedAt": "2023-03-15T17:23:09.620Z",
  "networkType": "ethereum",
  "devdoc": {
    "events": {
      "Approval(address,address,uint256)": {
        "details": "Emitted when `owner` enables `approved` to manage the `tokenId` token."
      },
      "ApprovalForAll(address,address,bool)": {
        "details": "Emitted when `owner` enables or disables (`approved`) `operator` to manage all of its assets."
      },
      "Transfer(address,address,uint256)": {
        "details": "Emitted when `tokenId` token is transferred from `from` to `to`."
      }
    },
    "kind": "dev",
    "methods": {
      "approve(address,uint256)": {
        "details": "See {IERC721-approve}."
      },
      "balanceOf(address)": {
        "details": "See {IERC721-balanceOf}."
      },
      "getApproved(uint256)": {
        "details": "See {IERC721-getApproved}."
      },
      "isApprovedForAll(address,address)": {
        "details": "See {IERC721-isApprovedForAll}."
      },
      "name()": {
        "details": "See {IERC721Metadata-name}."
      },
      "owner()": {
        "details": "Returns the address of the current owner."
      },
      "ownerOf(uint256)": {
        "details": "See {IERC721-ownerOf}."
      },
      "renounceOwnership()": {
        "details": "Leaves the contract without owner. It will not be possible to call `onlyOwner` functions anymore. Can only be called by the current owner. NOTE: Renouncing ownership will leave the contract without an owner, thereby removing any functionality that is only available to the owner."
      },
      "safeTransferFrom(address,address,uint256)": {
        "details": "See {IERC721-safeTransferFrom}."
      },
      "safeTransferFrom(address,address,uint256,bytes)": {
        "details": "See {IERC721-safeTransferFrom}."
      },
      "setApprovalForAll(address,bool)": {
        "details": "See {IERC721-setApprovalForAll}."
      },
      "supportsInterface(bytes4)": {
        "details": "See {IERC165-supportsInterface}."
      },
      "symbol()": {
        "details": "See {IERC721Metadata-symbol}."
      },
      "transferFrom(address,address,uint256)": {
        "details": "See {IERC721-transferFrom}."
      },
      "transferOwnership(address)": {
        "details": "Transfers ownership of the contract to a new account (`newOwner`). Can only be called by the current owner."
      }
    },
    "version": 1
  },
  "userdoc": {
    "kind": "user",
    "methods": {},
    "version": 1
  }
}